{
	"contracts/boxUUPSV2.sol": {
		"BoxUUPSV2": {
			"abi": [
				{
					"anonymous": false,
					"inputs": [
						{
							"indexed": false,
							"internalType": "address",
							"name": "previousAdmin",
							"type": "address"
						},
						{
							"indexed": false,
							"internalType": "address",
							"name": "newAdmin",
							"type": "address"
						}
					],
					"name": "AdminChanged",
					"type": "event"
				},
				{
					"anonymous": false,
					"inputs": [
						{
							"indexed": true,
							"internalType": "address",
							"name": "beacon",
							"type": "address"
						}
					],
					"name": "BeaconUpgraded",
					"type": "event"
				},
				{
					"anonymous": false,
					"inputs": [
						{
							"indexed": false,
							"internalType": "uint8",
							"name": "version",
							"type": "uint8"
						}
					],
					"name": "Initialized",
					"type": "event"
				},
				{
					"anonymous": false,
					"inputs": [
						{
							"indexed": true,
							"internalType": "address",
							"name": "previousOwner",
							"type": "address"
						},
						{
							"indexed": true,
							"internalType": "address",
							"name": "newOwner",
							"type": "address"
						}
					],
					"name": "OwnershipTransferred",
					"type": "event"
				},
				{
					"anonymous": false,
					"inputs": [
						{
							"indexed": true,
							"internalType": "address",
							"name": "implementation",
							"type": "address"
						}
					],
					"name": "Upgraded",
					"type": "event"
				},
				{
					"anonymous": false,
					"inputs": [
						{
							"indexed": false,
							"internalType": "uint256",
							"name": "value",
							"type": "uint256"
						}
					],
					"name": "ValueChanged",
					"type": "event"
				},
				{
					"inputs": [],
					"name": "get",
					"outputs": [
						{
							"internalType": "uint256",
							"name": "",
							"type": "uint256"
						}
					],
					"stateMutability": "view",
					"type": "function"
				},
				{
					"inputs": [],
					"name": "increment",
					"outputs": [],
					"stateMutability": "nonpayable",
					"type": "function"
				},
				{
					"inputs": [],
					"name": "initialize",
					"outputs": [],
					"stateMutability": "nonpayable",
					"type": "function"
				},
				{
					"inputs": [],
					"name": "owner",
					"outputs": [
						{
							"internalType": "address",
							"name": "",
							"type": "address"
						}
					],
					"stateMutability": "view",
					"type": "function"
				},
				{
					"inputs": [],
					"name": "proxiableUUID",
					"outputs": [
						{
							"internalType": "bytes32",
							"name": "",
							"type": "bytes32"
						}
					],
					"stateMutability": "view",
					"type": "function"
				},
				{
					"inputs": [],
					"name": "renounceOwnership",
					"outputs": [],
					"stateMutability": "nonpayable",
					"type": "function"
				},
				{
					"inputs": [
						{
							"internalType": "uint256",
							"name": "_value",
							"type": "uint256"
						}
					],
					"name": "set",
					"outputs": [],
					"stateMutability": "nonpayable",
					"type": "function"
				},
				{
					"inputs": [
						{
							"internalType": "address",
							"name": "newOwner",
							"type": "address"
						}
					],
					"name": "transferOwnership",
					"outputs": [],
					"stateMutability": "nonpayable",
					"type": "function"
				},
				{
					"inputs": [
						{
							"internalType": "address",
							"name": "newImplementation",
							"type": "address"
						}
					],
					"name": "upgradeTo",
					"outputs": [],
					"stateMutability": "nonpayable",
					"type": "function"
				},
				{
					"inputs": [
						{
							"internalType": "address",
							"name": "newImplementation",
							"type": "address"
						},
						{
							"internalType": "bytes",
							"name": "data",
							"type": "bytes"
						}
					],
					"name": "upgradeToAndCall",
					"outputs": [],
					"stateMutability": "payable",
					"type": "function"
				}
			],
			"devdoc": {
				"kind": "dev",
				"methods": {
					"owner()": {
						"details": "Returns the address of the current owner."
					},
					"proxiableUUID()": {
						"details": "Implementation of the ERC1822 {proxiableUUID} function. This returns the storage slot used by the implementation. It is used to validate the implementation's compatibility when performing an upgrade. IMPORTANT: A proxy pointing at a proxiable contract should not be considered proxiable itself, because this risks bricking a proxy that upgrades to it, by delegating to itself until out of gas. Thus it is critical that this function revert if invoked through a proxy. This is guaranteed by the `notDelegated` modifier."
					},
					"renounceOwnership()": {
						"details": "Leaves the contract without owner. It will not be possible to call `onlyOwner` functions anymore. Can only be called by the current owner. NOTE: Renouncing ownership will leave the contract without an owner, thereby removing any functionality that is only available to the owner."
					},
					"transferOwnership(address)": {
						"details": "Transfers ownership of the contract to a new account (`newOwner`). Can only be called by the current owner."
					},
					"upgradeTo(address)": {
						"details": "Upgrade the implementation of the proxy to `newImplementation`. Calls {_authorizeUpgrade}. Emits an {Upgraded} event."
					},
					"upgradeToAndCall(address,bytes)": {
						"details": "Upgrade the implementation of the proxy to `newImplementation`, and subsequently execute the function call encoded in `data`. Calls {_authorizeUpgrade}. Emits an {Upgraded} event."
					}
				},
				"version": 1
			},
			"evm": {
				"assembly": "    /* \"contracts/boxUUPSV2.sol\":309:1172  contract BoxUUPSV2 is Initializable, UUPSUpgradeable, OwnableUpgradeable {... */\n  mstore(0x40, 0xa0)\n    /* \"@openzeppelin/contracts-upgradeable/proxy/utils/UUPSUpgradeable.sol\":1332:1336  this */\n  address\n    /* \"@openzeppelin/contracts-upgradeable/proxy/utils/UUPSUpgradeable.sol\":1289:1337  address private immutable __self = address(this) */\n  0xffffffffffffffffffffffffffffffffffffffff\n  and\n  0x80\n  swap1\n  0xffffffffffffffffffffffffffffffffffffffff\n  and\n  dup2\n  mstore\n  pop\n    /* \"contracts/boxUUPSV2.sol\":309:1172  contract BoxUUPSV2 is Initializable, UUPSUpgradeable, OwnableUpgradeable {... */\n  callvalue\n  dup1\n  iszero\n  tag_1\n  jumpi\n  0x00\n  dup1\n  revert\ntag_1:\n  pop\n  mload(0x80)\n  codecopy(0x00, dataOffset(sub_0), dataSize(sub_0))\n  0x00\n  assignImmutable(\"0x4c643d5d9b0441803235e222732b65e2dc488f209ae20302cca6cafc813933a8\")\n  return(0x00, dataSize(sub_0))\nstop\n\nsub_0: assembly {\n        /* \"contracts/boxUUPSV2.sol\":309:1172  contract BoxUUPSV2 is Initializable, UUPSUpgradeable, OwnableUpgradeable {... */\n      mstore(0x40, 0x80)\n      jumpi(tag_1, lt(calldatasize, 0x04))\n      shr(0xe0, calldataload(0x00))\n      dup1\n      0x715018a6\n      gt\n      tag_12\n      jumpi\n      dup1\n      0x715018a6\n      eq\n      tag_7\n      jumpi\n      dup1\n      0x8129fc1c\n      eq\n      tag_8\n      jumpi\n      dup1\n      0x8da5cb5b\n      eq\n      tag_9\n      jumpi\n      dup1\n      0xd09de08a\n      eq\n      tag_10\n      jumpi\n      dup1\n      0xf2fde38b\n      eq\n      tag_11\n      jumpi\n      jump(tag_1)\n    tag_12:\n      dup1\n      0x3659cfe6\n      eq\n      tag_2\n      jumpi\n      dup1\n      0x4f1ef286\n      eq\n      tag_3\n      jumpi\n      dup1\n      0x52d1902d\n      eq\n      tag_4\n      jumpi\n      dup1\n      0x60fe47b1\n      eq\n      tag_5\n      jumpi\n      dup1\n      0x6d4ce63c\n      eq\n      tag_6\n      jumpi\n    tag_1:\n      0x00\n      dup1\n      revert\n        /* \"@openzeppelin/contracts-upgradeable/proxy/utils/UUPSUpgradeable.sol\":3317:3514  function upgradeTo(address newImplementation) external virtual onlyProxy {... */\n    tag_2:\n      callvalue\n      dup1\n      iszero\n      tag_13\n      jumpi\n      0x00\n      dup1\n      revert\n    tag_13:\n      pop\n      tag_14\n      0x04\n      dup1\n      calldatasize\n      sub\n      dup2\n      add\n      swap1\n      tag_15\n      swap2\n      swap1\n      tag_16\n      jump\t// in\n    tag_15:\n      tag_17\n      jump\t// in\n    tag_14:\n      stop\n        /* \"@openzeppelin/contracts-upgradeable/proxy/utils/UUPSUpgradeable.sol\":3763:3985  function upgradeToAndCall(address newImplementation, bytes memory data) external payable virtual onlyProxy {... */\n    tag_3:\n      tag_18\n      0x04\n      dup1\n      calldatasize\n      sub\n      dup2\n      add\n      swap1\n      tag_19\n      swap2\n      swap1\n      tag_20\n      jump\t// in\n    tag_19:\n      tag_21\n      jump\t// in\n    tag_18:\n      stop\n        /* \"@openzeppelin/contracts-upgradeable/proxy/utils/UUPSUpgradeable.sol\":3006:3137  function proxiableUUID() external view virtual override notDelegated returns (bytes32) {... */\n    tag_4:\n      callvalue\n      dup1\n      iszero\n      tag_22\n      jumpi\n      0x00\n      dup1\n      revert\n    tag_22:\n      pop\n      tag_23\n      tag_24\n      jump\t// in\n    tag_23:\n      mload(0x40)\n      tag_25\n      swap2\n      swap1\n      tag_26\n      jump\t// in\n    tag_25:\n      mload(0x40)\n      dup1\n      swap2\n      sub\n      swap1\n      return\n        /* \"contracts/boxUUPSV2.sol\":739:840  function set(uint256 _value) public {... */\n    tag_5:\n      callvalue\n      dup1\n      iszero\n      tag_27\n      jumpi\n      0x00\n      dup1\n      revert\n    tag_27:\n      pop\n      tag_28\n      0x04\n      dup1\n      calldatasize\n      sub\n      dup2\n      add\n      swap1\n      tag_29\n      swap2\n      swap1\n      tag_30\n      jump\t// in\n    tag_29:\n      tag_31\n      jump\t// in\n    tag_28:\n      stop\n        /* \"contracts/boxUUPSV2.sol\":881:955  function get() public view returns (uint256) {... */\n    tag_6:\n      callvalue\n      dup1\n      iszero\n      tag_32\n      jumpi\n      0x00\n      dup1\n      revert\n    tag_32:\n      pop\n      tag_33\n      tag_34\n      jump\t// in\n    tag_33:\n      mload(0x40)\n      tag_35\n      swap2\n      swap1\n      tag_36\n      jump\t// in\n    tag_35:\n      mload(0x40)\n      dup1\n      swap2\n      sub\n      swap1\n      return\n        /* \"@openzeppelin/contracts-upgradeable/access/OwnableUpgradeable.sol\":2071:2172  function renounceOwnership() public virtual onlyOwner {... */\n    tag_7:\n      callvalue\n      dup1\n      iszero\n      tag_37\n      jumpi\n      0x00\n      dup1\n      revert\n    tag_37:\n      pop\n      tag_38\n      tag_39\n      jump\t// in\n    tag_38:\n      stop\n        /* \"contracts/boxUUPSV2.sol\":524:602  function initialize() initializer public {... */\n    tag_8:\n      callvalue\n      dup1\n      iszero\n      tag_40\n      jumpi\n      0x00\n      dup1\n      revert\n    tag_40:\n      pop\n      tag_41\n      tag_42\n      jump\t// in\n    tag_41:\n      stop\n        /* \"@openzeppelin/contracts-upgradeable/access/OwnableUpgradeable.sol\":1441:1526  function owner() public view virtual returns (address) {... */\n    tag_9:\n      callvalue\n      dup1\n      iszero\n      tag_43\n      jumpi\n      0x00\n      dup1\n      revert\n    tag_43:\n      pop\n      tag_44\n      tag_45\n      jump\t// in\n    tag_44:\n      mload(0x40)\n      tag_46\n      swap2\n      swap1\n      tag_47\n      jump\t// in\n    tag_46:\n      mload(0x40)\n      dup1\n      swap2\n      sub\n      swap1\n      return\n        /* \"contracts/boxUUPSV2.sol\":969:1065  function increment() public {... */\n    tag_10:\n      callvalue\n      dup1\n      iszero\n      tag_48\n      jumpi\n      0x00\n      dup1\n      revert\n    tag_48:\n      pop\n      tag_49\n      tag_50\n      jump\t// in\n    tag_49:\n      stop\n        /* \"@openzeppelin/contracts-upgradeable/access/OwnableUpgradeable.sol\":2321:2519  function transferOwnership(address newOwner) public virtual onlyOwner {... */\n    tag_11:\n      callvalue\n      dup1\n      iszero\n      tag_51\n      jumpi\n      0x00\n      dup1\n      revert\n    tag_51:\n      pop\n      tag_52\n      0x04\n      dup1\n      calldatasize\n      sub\n      dup2\n      add\n      swap1\n      tag_53\n      swap2\n      swap1\n      tag_16\n      jump\t// in\n    tag_53:\n      tag_54\n      jump\t// in\n    tag_52:\n      stop\n        /* \"@openzeppelin/contracts-upgradeable/proxy/utils/UUPSUpgradeable.sol\":3317:3514  function upgradeTo(address newImplementation) external virtual onlyProxy {... */\n    tag_17:\n        /* \"@openzeppelin/contracts-upgradeable/proxy/utils/UUPSUpgradeable.sol\":1898:1904  __self */\n      immutable(\"0x4c643d5d9b0441803235e222732b65e2dc488f209ae20302cca6cafc813933a8\")\n        /* \"@openzeppelin/contracts-upgradeable/proxy/utils/UUPSUpgradeable.sol\":1881:1904  address(this) != __self */\n      0xffffffffffffffffffffffffffffffffffffffff\n      and\n        /* \"@openzeppelin/contracts-upgradeable/proxy/utils/UUPSUpgradeable.sol\":1889:1893  this */\n      address\n        /* \"@openzeppelin/contracts-upgradeable/proxy/utils/UUPSUpgradeable.sol\":1881:1904  address(this) != __self */\n      0xffffffffffffffffffffffffffffffffffffffff\n      and\n      sub\n        /* \"@openzeppelin/contracts-upgradeable/proxy/utils/UUPSUpgradeable.sol\":1873:1953  require(address(this) != __self, \"Function must be called through delegatecall\") */\n      tag_56\n      jumpi\n      mload(0x40)\n      0x08c379a000000000000000000000000000000000000000000000000000000000\n      dup2\n      mstore\n      0x04\n      add\n      tag_57\n      swap1\n      tag_58\n      jump\t// in\n    tag_57:\n      mload(0x40)\n      dup1\n      swap2\n      sub\n      swap1\n      revert\n    tag_56:\n        /* \"@openzeppelin/contracts-upgradeable/proxy/utils/UUPSUpgradeable.sol\":1995:2001  __self */\n      immutable(\"0x4c643d5d9b0441803235e222732b65e2dc488f209ae20302cca6cafc813933a8\")\n        /* \"@openzeppelin/contracts-upgradeable/proxy/utils/UUPSUpgradeable.sol\":1971:2001  _getImplementation() == __self */\n      0xffffffffffffffffffffffffffffffffffffffff\n      and\n        /* \"@openzeppelin/contracts-upgradeable/proxy/utils/UUPSUpgradeable.sol\":1971:1991  _getImplementation() */\n      tag_59\n        /* \"@openzeppelin/contracts-upgradeable/proxy/utils/UUPSUpgradeable.sol\":1971:1989  _getImplementation */\n      tag_60\n        /* \"@openzeppelin/contracts-upgradeable/proxy/utils/UUPSUpgradeable.sol\":1971:1991  _getImplementation() */\n      jump\t// in\n    tag_59:\n        /* \"@openzeppelin/contracts-upgradeable/proxy/utils/UUPSUpgradeable.sol\":1971:2001  _getImplementation() == __self */\n      0xffffffffffffffffffffffffffffffffffffffff\n      and\n      eq\n        /* \"@openzeppelin/contracts-upgradeable/proxy/utils/UUPSUpgradeable.sol\":1963:2050  require(_getImplementation() == __self, \"Function must be called through active proxy\") */\n      tag_61\n      jumpi\n      mload(0x40)\n      0x08c379a000000000000000000000000000000000000000000000000000000000\n      dup2\n      mstore\n      0x04\n      add\n      tag_62\n      swap1\n      tag_63\n      jump\t// in\n    tag_62:\n      mload(0x40)\n      dup1\n      swap2\n      sub\n      swap1\n      revert\n    tag_61:\n        /* \"@openzeppelin/contracts-upgradeable/proxy/utils/UUPSUpgradeable.sol\":3400:3436  _authorizeUpgrade(newImplementation) */\n      tag_65\n        /* \"@openzeppelin/contracts-upgradeable/proxy/utils/UUPSUpgradeable.sol\":3418:3435  newImplementation */\n      dup2\n        /* \"@openzeppelin/contracts-upgradeable/proxy/utils/UUPSUpgradeable.sol\":3400:3417  _authorizeUpgrade */\n      tag_66\n        /* \"@openzeppelin/contracts-upgradeable/proxy/utils/UUPSUpgradeable.sol\":3400:3436  _authorizeUpgrade(newImplementation) */\n      jump\t// in\n    tag_65:\n        /* \"@openzeppelin/contracts-upgradeable/proxy/utils/UUPSUpgradeable.sol\":3446:3507  _upgradeToAndCallUUPS(newImplementation, new bytes(0), false) */\n      tag_67\n        /* \"@openzeppelin/contracts-upgradeable/proxy/utils/UUPSUpgradeable.sol\":3468:3485  newImplementation */\n      dup2\n        /* \"@openzeppelin/contracts-upgradeable/proxy/utils/UUPSUpgradeable.sol\":3497:3498  0 */\n      0x00\n        /* \"@openzeppelin/contracts-upgradeable/proxy/utils/UUPSUpgradeable.sol\":3487:3499  new bytes(0) */\n      0xffffffffffffffff\n      dup2\n      gt\n      iszero\n      tag_68\n      jumpi\n      tag_69\n      tag_70\n      jump\t// in\n    tag_69:\n    tag_68:\n      mload(0x40)\n      swap1\n      dup1\n      dup3\n      mstore\n      dup1\n      0x1f\n      add\n      not(0x1f)\n      and\n      0x20\n      add\n      dup3\n      add\n      0x40\n      mstore\n      dup1\n      iszero\n      tag_71\n      jumpi\n      dup2\n      0x20\n      add\n      0x01\n      dup3\n      mul\n      dup1\n      calldatasize\n      dup4\n      calldatacopy\n      dup1\n      dup3\n      add\n      swap2\n      pop\n      pop\n      swap1\n      pop\n    tag_71:\n      pop\n        /* \"@openzeppelin/contracts-upgradeable/proxy/utils/UUPSUpgradeable.sol\":3501:3506  false */\n      0x00\n        /* \"@openzeppelin/contracts-upgradeable/proxy/utils/UUPSUpgradeable.sol\":3446:3467  _upgradeToAndCallUUPS */\n      tag_72\n        /* \"@openzeppelin/contracts-upgradeable/proxy/utils/UUPSUpgradeable.sol\":3446:3507  _upgradeToAndCallUUPS(newImplementation, new bytes(0), false) */\n      jump\t// in\n    tag_67:\n        /* \"@openzeppelin/contracts-upgradeable/proxy/utils/UUPSUpgradeable.sol\":3317:3514  function upgradeTo(address newImplementation) external virtual onlyProxy {... */\n      pop\n      jump\t// out\n        /* \"@openzeppelin/contracts-upgradeable/proxy/utils/UUPSUpgradeable.sol\":3763:3985  function upgradeToAndCall(address newImplementation, bytes memory data) external payable virtual onlyProxy {... */\n    tag_21:\n        /* \"@openzeppelin/contracts-upgradeable/proxy/utils/UUPSUpgradeable.sol\":1898:1904  __self */\n      immutable(\"0x4c643d5d9b0441803235e222732b65e2dc488f209ae20302cca6cafc813933a8\")\n        /* \"@openzeppelin/contracts-upgradeable/proxy/utils/UUPSUpgradeable.sol\":1881:1904  address(this) != __self */\n      0xffffffffffffffffffffffffffffffffffffffff\n      and\n        /* \"@openzeppelin/contracts-upgradeable/proxy/utils/UUPSUpgradeable.sol\":1889:1893  this */\n      address\n        /* \"@openzeppelin/contracts-upgradeable/proxy/utils/UUPSUpgradeable.sol\":1881:1904  address(this) != __self */\n      0xffffffffffffffffffffffffffffffffffffffff\n      and\n      sub\n        /* \"@openzeppelin/contracts-upgradeable/proxy/utils/UUPSUpgradeable.sol\":1873:1953  require(address(this) != __self, \"Function must be called through delegatecall\") */\n      tag_74\n      jumpi\n      mload(0x40)\n      0x08c379a000000000000000000000000000000000000000000000000000000000\n      dup2\n      mstore\n      0x04\n      add\n      tag_75\n      swap1\n      tag_58\n      jump\t// in\n    tag_75:\n      mload(0x40)\n      dup1\n      swap2\n      sub\n      swap1\n      revert\n    tag_74:\n        /* \"@openzeppelin/contracts-upgradeable/proxy/utils/UUPSUpgradeable.sol\":1995:2001  __self */\n      immutable(\"0x4c643d5d9b0441803235e222732b65e2dc488f209ae20302cca6cafc813933a8\")\n        /* \"@openzeppelin/contracts-upgradeable/proxy/utils/UUPSUpgradeable.sol\":1971:2001  _getImplementation() == __self */\n      0xffffffffffffffffffffffffffffffffffffffff\n      and\n        /* \"@openzeppelin/contracts-upgradeable/proxy/utils/UUPSUpgradeable.sol\":1971:1991  _getImplementation() */\n      tag_76\n        /* \"@openzeppelin/contracts-upgradeable/proxy/utils/UUPSUpgradeable.sol\":1971:1989  _getImplementation */\n      tag_60\n        /* \"@openzeppelin/contracts-upgradeable/proxy/utils/UUPSUpgradeable.sol\":1971:1991  _getImplementation() */\n      jump\t// in\n    tag_76:\n        /* \"@openzeppelin/contracts-upgradeable/proxy/utils/UUPSUpgradeable.sol\":1971:2001  _getImplementation() == __self */\n      0xffffffffffffffffffffffffffffffffffffffff\n      and\n      eq\n        /* \"@openzeppelin/contracts-upgradeable/proxy/utils/UUPSUpgradeable.sol\":1963:2050  require(_getImplementation() == __self, \"Function must be called through active proxy\") */\n      tag_77\n      jumpi\n      mload(0x40)\n      0x08c379a000000000000000000000000000000000000000000000000000000000\n      dup2\n      mstore\n      0x04\n      add\n      tag_78\n      swap1\n      tag_63\n      jump\t// in\n    tag_78:\n      mload(0x40)\n      dup1\n      swap2\n      sub\n      swap1\n      revert\n    tag_77:\n        /* \"@openzeppelin/contracts-upgradeable/proxy/utils/UUPSUpgradeable.sol\":3880:3916  _authorizeUpgrade(newImplementation) */\n      tag_80\n        /* \"@openzeppelin/contracts-upgradeable/proxy/utils/UUPSUpgradeable.sol\":3898:3915  newImplementation */\n      dup3\n        /* \"@openzeppelin/contracts-upgradeable/proxy/utils/UUPSUpgradeable.sol\":3880:3897  _authorizeUpgrade */\n      tag_66\n        /* \"@openzeppelin/contracts-upgradeable/proxy/utils/UUPSUpgradeable.sol\":3880:3916  _authorizeUpgrade(newImplementation) */\n      jump\t// in\n    tag_80:\n        /* \"@openzeppelin/contracts-upgradeable/proxy/utils/UUPSUpgradeable.sol\":3926:3978  _upgradeToAndCallUUPS(newImplementation, data, true) */\n      tag_81\n        /* \"@openzeppelin/contracts-upgradeable/proxy/utils/UUPSUpgradeable.sol\":3948:3965  newImplementation */\n      dup3\n        /* \"@openzeppelin/contracts-upgradeable/proxy/utils/UUPSUpgradeable.sol\":3967:3971  data */\n      dup3\n        /* \"@openzeppelin/contracts-upgradeable/proxy/utils/UUPSUpgradeable.sol\":3973:3977  true */\n      0x01\n        /* \"@openzeppelin/contracts-upgradeable/proxy/utils/UUPSUpgradeable.sol\":3926:3947  _upgradeToAndCallUUPS */\n      tag_72\n        /* \"@openzeppelin/contracts-upgradeable/proxy/utils/UUPSUpgradeable.sol\":3926:3978  _upgradeToAndCallUUPS(newImplementation, data, true) */\n      jump\t// in\n    tag_81:\n        /* \"@openzeppelin/contracts-upgradeable/proxy/utils/UUPSUpgradeable.sol\":3763:3985  function upgradeToAndCall(address newImplementation, bytes memory data) external payable virtual onlyProxy {... */\n      pop\n      pop\n      jump\t// out\n        /* \"@openzeppelin/contracts-upgradeable/proxy/utils/UUPSUpgradeable.sol\":3006:3137  function proxiableUUID() external view virtual override notDelegated returns (bytes32) {... */\n    tag_24:\n        /* \"@openzeppelin/contracts-upgradeable/proxy/utils/UUPSUpgradeable.sol\":3084:3091  bytes32 */\n      0x00\n        /* \"@openzeppelin/contracts-upgradeable/proxy/utils/UUPSUpgradeable.sol\":2333:2339  __self */\n      immutable(\"0x4c643d5d9b0441803235e222732b65e2dc488f209ae20302cca6cafc813933a8\")\n        /* \"@openzeppelin/contracts-upgradeable/proxy/utils/UUPSUpgradeable.sol\":2316:2339  address(this) == __self */\n      0xffffffffffffffffffffffffffffffffffffffff\n      and\n        /* \"@openzeppelin/contracts-upgradeable/proxy/utils/UUPSUpgradeable.sol\":2324:2328  this */\n      address\n        /* \"@openzeppelin/contracts-upgradeable/proxy/utils/UUPSUpgradeable.sol\":2316:2339  address(this) == __self */\n      0xffffffffffffffffffffffffffffffffffffffff\n      and\n      eq\n        /* \"@openzeppelin/contracts-upgradeable/proxy/utils/UUPSUpgradeable.sol\":2308:2400  require(address(this) == __self, \"UUPSUpgradeable: must not be called through delegatecall\") */\n      tag_83\n      jumpi\n      mload(0x40)\n      0x08c379a000000000000000000000000000000000000000000000000000000000\n      dup2\n      mstore\n      0x04\n      add\n      tag_84\n      swap1\n      tag_85\n      jump\t// in\n    tag_84:\n      mload(0x40)\n      dup1\n      swap2\n      sub\n      swap1\n      revert\n    tag_83:\n        /* \"@openzeppelin/contracts-upgradeable/proxy/ERC1967/ERC1967UpgradeUpgradeable.sol\":1292:1358  0x360894a13ba1a3210667c828492db98dca3e2076cc3735a920a3ca505d382bbc */\n      0x360894a13ba1a3210667c828492db98dca3e2076cc3735a920a3ca505d382bbc\n        /* \"@openzeppelin/contracts-upgradeable/proxy/utils/UUPSUpgradeable.sol\":3110:3130  _IMPLEMENTATION_SLOT */\n      0x00\n      shl\n        /* \"@openzeppelin/contracts-upgradeable/proxy/utils/UUPSUpgradeable.sol\":3103:3130  return _IMPLEMENTATION_SLOT */\n      swap1\n      pop\n        /* \"@openzeppelin/contracts-upgradeable/proxy/utils/UUPSUpgradeable.sol\":3006:3137  function proxiableUUID() external view virtual override notDelegated returns (bytes32) {... */\n      swap1\n      jump\t// out\n        /* \"contracts/boxUUPSV2.sol\":739:840  function set(uint256 _value) public {... */\n    tag_31:\n        /* \"contracts/boxUUPSV2.sol\":793:799  _value */\n      dup1\n        /* \"contracts/boxUUPSV2.sol\":785:790  value */\n      0xc9\n        /* \"contracts/boxUUPSV2.sol\":785:799  value = _value */\n      dup2\n      swap1\n      sstore\n      pop\n        /* \"contracts/boxUUPSV2.sol\":814:833  ValueChanged(value) */\n      0x93fe6d397c74fdf1402a8b72e47b68512f0510d7b98a4bc4cbdf6ac7108b3c59\n        /* \"contracts/boxUUPSV2.sol\":827:832  value */\n      sload(0xc9)\n        /* \"contracts/boxUUPSV2.sol\":814:833  ValueChanged(value) */\n      mload(0x40)\n      tag_88\n      swap2\n      swap1\n      tag_36\n      jump\t// in\n    tag_88:\n      mload(0x40)\n      dup1\n      swap2\n      sub\n      swap1\n      log1\n        /* \"contracts/boxUUPSV2.sol\":739:840  function set(uint256 _value) public {... */\n      pop\n      jump\t// out\n        /* \"contracts/boxUUPSV2.sol\":881:955  function get() public view returns (uint256) {... */\n    tag_34:\n        /* \"contracts/boxUUPSV2.sol\":917:924  uint256 */\n      0x00\n        /* \"contracts/boxUUPSV2.sol\":943:948  value */\n      sload(0xc9)\n        /* \"contracts/boxUUPSV2.sol\":936:948  return value */\n      swap1\n      pop\n        /* \"contracts/boxUUPSV2.sol\":881:955  function get() public view returns (uint256) {... */\n      swap1\n      jump\t// out\n        /* \"@openzeppelin/contracts-upgradeable/access/OwnableUpgradeable.sol\":2071:2172  function renounceOwnership() public virtual onlyOwner {... */\n    tag_39:\n        /* \"@openzeppelin/contracts-upgradeable/access/OwnableUpgradeable.sol\":1334:1347  _checkOwner() */\n      tag_91\n        /* \"@openzeppelin/contracts-upgradeable/access/OwnableUpgradeable.sol\":1334:1345  _checkOwner */\n      tag_92\n        /* \"@openzeppelin/contracts-upgradeable/access/OwnableUpgradeable.sol\":1334:1347  _checkOwner() */\n      jump\t// in\n    tag_91:\n        /* \"@openzeppelin/contracts-upgradeable/access/OwnableUpgradeable.sol\":2135:2165  _transferOwnership(address(0)) */\n      tag_94\n        /* \"@openzeppelin/contracts-upgradeable/access/OwnableUpgradeable.sol\":2162:2163  0 */\n      0x00\n        /* \"@openzeppelin/contracts-upgradeable/access/OwnableUpgradeable.sol\":2135:2153  _transferOwnership */\n      tag_95\n        /* \"@openzeppelin/contracts-upgradeable/access/OwnableUpgradeable.sol\":2135:2165  _transferOwnership(address(0)) */\n      jump\t// in\n    tag_94:\n        /* \"@openzeppelin/contracts-upgradeable/access/OwnableUpgradeable.sol\":2071:2172  function renounceOwnership() public virtual onlyOwner {... */\n      jump\t// out\n        /* \"contracts/boxUUPSV2.sol\":524:602  function initialize() initializer public {... */\n    tag_42:\n        /* \"@openzeppelin/contracts-upgradeable/proxy/utils/Initializable.sol\":3268:3287  bool isTopLevelCall */\n      0x00\n        /* \"@openzeppelin/contracts-upgradeable/proxy/utils/Initializable.sol\":3291:3304  _initializing */\n      dup1\n      0x01\n      swap1\n      sload\n      swap1\n      0x0100\n      exp\n      swap1\n      div\n      0xff\n      and\n        /* \"@openzeppelin/contracts-upgradeable/proxy/utils/Initializable.sol\":3290:3304  !_initializing */\n      iszero\n        /* \"@openzeppelin/contracts-upgradeable/proxy/utils/Initializable.sol\":3268:3304  bool isTopLevelCall = !_initializing */\n      swap1\n      pop\n        /* \"@openzeppelin/contracts-upgradeable/proxy/utils/Initializable.sol\":3336:3350  isTopLevelCall */\n      dup1\n        /* \"@openzeppelin/contracts-upgradeable/proxy/utils/Initializable.sol\":3336:3370  isTopLevelCall && _initialized < 1 */\n      dup1\n      iszero\n      tag_97\n      jumpi\n      pop\n        /* \"@openzeppelin/contracts-upgradeable/proxy/utils/Initializable.sol\":3369:3370  1 */\n      0x01\n        /* \"@openzeppelin/contracts-upgradeable/proxy/utils/Initializable.sol\":3354:3366  _initialized */\n      0x00\n      dup1\n      sload\n      swap1\n      0x0100\n      exp\n      swap1\n      div\n      0xff\n      and\n        /* \"@openzeppelin/contracts-upgradeable/proxy/utils/Initializable.sol\":3354:3370  _initialized < 1 */\n      0xff\n      and\n      lt\n        /* \"@openzeppelin/contracts-upgradeable/proxy/utils/Initializable.sol\":3336:3370  isTopLevelCall && _initialized < 1 */\n    tag_97:\n        /* \"@openzeppelin/contracts-upgradeable/proxy/utils/Initializable.sol\":3335:3443  (isTopLevelCall && _initialized < 1) || (!AddressUpgradeable.isContract(address(this)) && _initialized == 1) */\n      dup1\n      tag_98\n      jumpi\n      pop\n        /* \"@openzeppelin/contracts-upgradeable/proxy/utils/Initializable.sol\":3377:3421  AddressUpgradeable.isContract(address(this)) */\n      tag_99\n        /* \"@openzeppelin/contracts-upgradeable/proxy/utils/Initializable.sol\":3415:3419  this */\n      address\n        /* \"@openzeppelin/contracts-upgradeable/proxy/utils/Initializable.sol\":3377:3406  AddressUpgradeable.isContract */\n      tag_100\n        /* \"@openzeppelin/contracts-upgradeable/proxy/utils/Initializable.sol\":3377:3421  AddressUpgradeable.isContract(address(this)) */\n      jump\t// in\n    tag_99:\n        /* \"@openzeppelin/contracts-upgradeable/proxy/utils/Initializable.sol\":3376:3421  !AddressUpgradeable.isContract(address(this)) */\n      iszero\n        /* \"@openzeppelin/contracts-upgradeable/proxy/utils/Initializable.sol\":3376:3442  !AddressUpgradeable.isContract(address(this)) && _initialized == 1 */\n      dup1\n      iszero\n      tag_101\n      jumpi\n      pop\n        /* \"@openzeppelin/contracts-upgradeable/proxy/utils/Initializable.sol\":3441:3442  1 */\n      0x01\n        /* \"@openzeppelin/contracts-upgradeable/proxy/utils/Initializable.sol\":3425:3437  _initialized */\n      0x00\n      dup1\n      sload\n      swap1\n      0x0100\n      exp\n      swap1\n      div\n      0xff\n      and\n        /* \"@openzeppelin/contracts-upgradeable/proxy/utils/Initializable.sol\":3425:3442  _initialized == 1 */\n      0xff\n      and\n      eq\n        /* \"@openzeppelin/contracts-upgradeable/proxy/utils/Initializable.sol\":3376:3442  !AddressUpgradeable.isContract(address(this)) && _initialized == 1 */\n    tag_101:\n        /* \"@openzeppelin/contracts-upgradeable/proxy/utils/Initializable.sol\":3335:3443  (isTopLevelCall && _initialized < 1) || (!AddressUpgradeable.isContract(address(this)) && _initialized == 1) */\n    tag_98:\n        /* \"@openzeppelin/contracts-upgradeable/proxy/utils/Initializable.sol\":3314:3515  require(... */\n      tag_102\n      jumpi\n      mload(0x40)\n      0x08c379a000000000000000000000000000000000000000000000000000000000\n      dup2\n      mstore\n      0x04\n      add\n      tag_103\n      swap1\n      tag_104\n      jump\t// in\n    tag_103:\n      mload(0x40)\n      dup1\n      swap2\n      sub\n      swap1\n      revert\n    tag_102:\n        /* \"@openzeppelin/contracts-upgradeable/proxy/utils/Initializable.sol\":3540:3541  1 */\n      0x01\n        /* \"@openzeppelin/contracts-upgradeable/proxy/utils/Initializable.sol\":3525:3537  _initialized */\n      0x00\n      dup1\n        /* \"@openzeppelin/contracts-upgradeable/proxy/utils/Initializable.sol\":3525:3541  _initialized = 1 */\n      0x0100\n      exp\n      dup2\n      sload\n      dup2\n      0xff\n      mul\n      not\n      and\n      swap1\n      dup4\n      0xff\n      and\n      mul\n      or\n      swap1\n      sstore\n      pop\n        /* \"@openzeppelin/contracts-upgradeable/proxy/utils/Initializable.sol\":3555:3569  isTopLevelCall */\n      dup1\n        /* \"@openzeppelin/contracts-upgradeable/proxy/utils/Initializable.sol\":3551:3616  if (isTopLevelCall) {... */\n      iszero\n      tag_105\n      jumpi\n        /* \"@openzeppelin/contracts-upgradeable/proxy/utils/Initializable.sol\":3601:3605  true */\n      0x01\n        /* \"@openzeppelin/contracts-upgradeable/proxy/utils/Initializable.sol\":3585:3598  _initializing */\n      0x00\n      0x01\n        /* \"@openzeppelin/contracts-upgradeable/proxy/utils/Initializable.sol\":3585:3605  _initializing = true */\n      0x0100\n      exp\n      dup2\n      sload\n      dup2\n      0xff\n      mul\n      not\n      and\n      swap1\n      dup4\n      iszero\n      iszero\n      mul\n      or\n      swap1\n      sstore\n      pop\n        /* \"@openzeppelin/contracts-upgradeable/proxy/utils/Initializable.sol\":3551:3616  if (isTopLevelCall) {... */\n    tag_105:\n        /* \"contracts/boxUUPSV2.sol\":575:591  __Ownable_init() */\n      tag_107\n        /* \"contracts/boxUUPSV2.sol\":575:589  __Ownable_init */\n      tag_108\n        /* \"contracts/boxUUPSV2.sol\":575:591  __Ownable_init() */\n      jump\t// in\n    tag_107:\n        /* \"@openzeppelin/contracts-upgradeable/proxy/utils/Initializable.sol\":3640:3654  isTopLevelCall */\n      dup1\n        /* \"@openzeppelin/contracts-upgradeable/proxy/utils/Initializable.sol\":3636:3735  if (isTopLevelCall) {... */\n      iszero\n      tag_109\n      jumpi\n        /* \"@openzeppelin/contracts-upgradeable/proxy/utils/Initializable.sol\":3686:3691  false */\n      0x00\n        /* \"@openzeppelin/contracts-upgradeable/proxy/utils/Initializable.sol\":3670:3683  _initializing */\n      dup1\n      0x01\n        /* \"@openzeppelin/contracts-upgradeable/proxy/utils/Initializable.sol\":3670:3691  _initializing = false */\n      0x0100\n      exp\n      dup2\n      sload\n      dup2\n      0xff\n      mul\n      not\n      and\n      swap1\n      dup4\n      iszero\n      iszero\n      mul\n      or\n      swap1\n      sstore\n      pop\n        /* \"@openzeppelin/contracts-upgradeable/proxy/utils/Initializable.sol\":3710:3724  Initialized(1) */\n      0x7f26b83ff96e1f2b6a682f133852f6798a09c465da95921460cefb3847402498\n        /* \"@openzeppelin/contracts-upgradeable/proxy/utils/Initializable.sol\":3722:3723  1 */\n      0x01\n        /* \"@openzeppelin/contracts-upgradeable/proxy/utils/Initializable.sol\":3710:3724  Initialized(1) */\n      mload(0x40)\n      tag_110\n      swap2\n      swap1\n      tag_111\n      jump\t// in\n    tag_110:\n      mload(0x40)\n      dup1\n      swap2\n      sub\n      swap1\n      log1\n        /* \"@openzeppelin/contracts-upgradeable/proxy/utils/Initializable.sol\":3636:3735  if (isTopLevelCall) {... */\n    tag_109:\n        /* \"@openzeppelin/contracts-upgradeable/proxy/utils/Initializable.sol\":3258:3741  {... */\n      pop\n        /* \"contracts/boxUUPSV2.sol\":524:602  function initialize() initializer public {... */\n      jump\t// out\n        /* \"@openzeppelin/contracts-upgradeable/access/OwnableUpgradeable.sol\":1441:1526  function owner() public view virtual returns (address) {... */\n    tag_45:\n        /* \"@openzeppelin/contracts-upgradeable/access/OwnableUpgradeable.sol\":1487:1494  address */\n      0x00\n        /* \"@openzeppelin/contracts-upgradeable/access/OwnableUpgradeable.sol\":1513:1519  _owner */\n      0x97\n      0x00\n      swap1\n      sload\n      swap1\n      0x0100\n      exp\n      swap1\n      div\n      0xffffffffffffffffffffffffffffffffffffffff\n      and\n        /* \"@openzeppelin/contracts-upgradeable/access/OwnableUpgradeable.sol\":1506:1519  return _owner */\n      swap1\n      pop\n        /* \"@openzeppelin/contracts-upgradeable/access/OwnableUpgradeable.sol\":1441:1526  function owner() public view virtual returns (address) {... */\n      swap1\n      jump\t// out\n        /* \"contracts/boxUUPSV2.sol\":969:1065  function increment() public {... */\n    tag_50:\n        /* \"contracts/boxUUPSV2.sol\":1023:1024  1 */\n      0x01\n        /* \"contracts/boxUUPSV2.sol\":1015:1020  value */\n      sload(0xc9)\n        /* \"contracts/boxUUPSV2.sol\":1015:1024  value + 1 */\n      tag_114\n      swap2\n      swap1\n      tag_115\n      jump\t// in\n    tag_114:\n        /* \"contracts/boxUUPSV2.sol\":1007:1012  value */\n      0xc9\n        /* \"contracts/boxUUPSV2.sol\":1007:1024  value = value + 1 */\n      dup2\n      swap1\n      sstore\n      pop\n        /* \"contracts/boxUUPSV2.sol\":1039:1058  ValueChanged(value) */\n      0x93fe6d397c74fdf1402a8b72e47b68512f0510d7b98a4bc4cbdf6ac7108b3c59\n        /* \"contracts/boxUUPSV2.sol\":1052:1057  value */\n      sload(0xc9)\n        /* \"contracts/boxUUPSV2.sol\":1039:1058  ValueChanged(value) */\n      mload(0x40)\n      tag_116\n      swap2\n      swap1\n      tag_36\n      jump\t// in\n    tag_116:\n      mload(0x40)\n      dup1\n      swap2\n      sub\n      swap1\n      log1\n        /* \"contracts/boxUUPSV2.sol\":969:1065  function increment() public {... */\n      jump\t// out\n        /* \"@openzeppelin/contracts-upgradeable/access/OwnableUpgradeable.sol\":2321:2519  function transferOwnership(address newOwner) public virtual onlyOwner {... */\n    tag_54:\n        /* \"@openzeppelin/contracts-upgradeable/access/OwnableUpgradeable.sol\":1334:1347  _checkOwner() */\n      tag_118\n        /* \"@openzeppelin/contracts-upgradeable/access/OwnableUpgradeable.sol\":1334:1345  _checkOwner */\n      tag_92\n        /* \"@openzeppelin/contracts-upgradeable/access/OwnableUpgradeable.sol\":1334:1347  _checkOwner() */\n      jump\t// in\n    tag_118:\n        /* \"@openzeppelin/contracts-upgradeable/access/OwnableUpgradeable.sol\":2429:2430  0 */\n      0x00\n        /* \"@openzeppelin/contracts-upgradeable/access/OwnableUpgradeable.sol\":2409:2431  newOwner != address(0) */\n      0xffffffffffffffffffffffffffffffffffffffff\n      and\n        /* \"@openzeppelin/contracts-upgradeable/access/OwnableUpgradeable.sol\":2409:2417  newOwner */\n      dup2\n        /* \"@openzeppelin/contracts-upgradeable/access/OwnableUpgradeable.sol\":2409:2431  newOwner != address(0) */\n      0xffffffffffffffffffffffffffffffffffffffff\n      and\n      sub\n        /* \"@openzeppelin/contracts-upgradeable/access/OwnableUpgradeable.sol\":2401:2474  require(newOwner != address(0), \"Ownable: new owner is the zero address\") */\n      tag_120\n      jumpi\n      mload(0x40)\n      0x08c379a000000000000000000000000000000000000000000000000000000000\n      dup2\n      mstore\n      0x04\n      add\n      tag_121\n      swap1\n      tag_122\n      jump\t// in\n    tag_121:\n      mload(0x40)\n      dup1\n      swap2\n      sub\n      swap1\n      revert\n    tag_120:\n        /* \"@openzeppelin/contracts-upgradeable/access/OwnableUpgradeable.sol\":2484:2512  _transferOwnership(newOwner) */\n      tag_123\n        /* \"@openzeppelin/contracts-upgradeable/access/OwnableUpgradeable.sol\":2503:2511  newOwner */\n      dup2\n        /* \"@openzeppelin/contracts-upgradeable/access/OwnableUpgradeable.sol\":2484:2502  _transferOwnership */\n      tag_95\n        /* \"@openzeppelin/contracts-upgradeable/access/OwnableUpgradeable.sol\":2484:2512  _transferOwnership(newOwner) */\n      jump\t// in\n    tag_123:\n        /* \"@openzeppelin/contracts-upgradeable/access/OwnableUpgradeable.sol\":2321:2519  function transferOwnership(address newOwner) public virtual onlyOwner {... */\n      pop\n      jump\t// out\n        /* \"@openzeppelin/contracts-upgradeable/proxy/ERC1967/ERC1967UpgradeUpgradeable.sol\":1563:1714  function _getImplementation() internal view returns (address) {... */\n    tag_60:\n        /* \"@openzeppelin/contracts-upgradeable/proxy/ERC1967/ERC1967UpgradeUpgradeable.sol\":1616:1623  address */\n      0x00\n        /* \"@openzeppelin/contracts-upgradeable/proxy/ERC1967/ERC1967UpgradeUpgradeable.sol\":1642:1701  StorageSlotUpgradeable.getAddressSlot(_IMPLEMENTATION_SLOT) */\n      tag_125\n        /* \"@openzeppelin/contracts-upgradeable/proxy/ERC1967/ERC1967UpgradeUpgradeable.sol\":1292:1358  0x360894a13ba1a3210667c828492db98dca3e2076cc3735a920a3ca505d382bbc */\n      0x360894a13ba1a3210667c828492db98dca3e2076cc3735a920a3ca505d382bbc\n        /* \"@openzeppelin/contracts-upgradeable/proxy/ERC1967/ERC1967UpgradeUpgradeable.sol\":1680:1700  _IMPLEMENTATION_SLOT */\n      0x00\n      shl\n        /* \"@openzeppelin/contracts-upgradeable/proxy/ERC1967/ERC1967UpgradeUpgradeable.sol\":1642:1679  StorageSlotUpgradeable.getAddressSlot */\n      tag_126\n        /* \"@openzeppelin/contracts-upgradeable/proxy/ERC1967/ERC1967UpgradeUpgradeable.sol\":1642:1701  StorageSlotUpgradeable.getAddressSlot(_IMPLEMENTATION_SLOT) */\n      jump\t// in\n    tag_125:\n        /* \"@openzeppelin/contracts-upgradeable/proxy/ERC1967/ERC1967UpgradeUpgradeable.sol\":1642:1707  StorageSlotUpgradeable.getAddressSlot(_IMPLEMENTATION_SLOT).value */\n      0x00\n      add\n      0x00\n      swap1\n      sload\n      swap1\n      0x0100\n      exp\n      swap1\n      div\n      0xffffffffffffffffffffffffffffffffffffffff\n      and\n        /* \"@openzeppelin/contracts-upgradeable/proxy/ERC1967/ERC1967UpgradeUpgradeable.sol\":1635:1707  return StorageSlotUpgradeable.getAddressSlot(_IMPLEMENTATION_SLOT).value */\n      swap1\n      pop\n        /* \"@openzeppelin/contracts-upgradeable/proxy/ERC1967/ERC1967UpgradeUpgradeable.sol\":1563:1714  function _getImplementation() internal view returns (address) {... */\n      swap1\n      jump\t// out\n        /* \"contracts/boxUUPSV2.sol\":1079:1164  function _authorizeUpgrade(address  newImplementation) internal override onlyOwner {} */\n    tag_66:\n        /* \"@openzeppelin/contracts-upgradeable/access/OwnableUpgradeable.sol\":1334:1347  _checkOwner() */\n      tag_128\n        /* \"@openzeppelin/contracts-upgradeable/access/OwnableUpgradeable.sol\":1334:1345  _checkOwner */\n      tag_92\n        /* \"@openzeppelin/contracts-upgradeable/access/OwnableUpgradeable.sol\":1334:1347  _checkOwner() */\n      jump\t// in\n    tag_128:\n        /* \"contracts/boxUUPSV2.sol\":1079:1164  function _authorizeUpgrade(address  newImplementation) internal override onlyOwner {} */\n      pop\n      jump\t// out\n        /* \"@openzeppelin/contracts-upgradeable/proxy/ERC1967/ERC1967UpgradeUpgradeable.sol\":2938:3912  function _upgradeToAndCallUUPS(... */\n    tag_72:\n        /* \"@openzeppelin/contracts-upgradeable/proxy/ERC1967/ERC1967UpgradeUpgradeable.sol\":3384:3437  StorageSlotUpgradeable.getBooleanSlot(_ROLLBACK_SLOT) */\n      tag_131\n        /* \"@openzeppelin/contracts-upgradeable/proxy/ERC1967/ERC1967UpgradeUpgradeable.sol\":951:1017  0x4910fdfa16fed3260ed0e7147f7cc6da11a60208b5b9406d12a635614ffd9143 */\n      0x4910fdfa16fed3260ed0e7147f7cc6da11a60208b5b9406d12a635614ffd9143\n        /* \"@openzeppelin/contracts-upgradeable/proxy/ERC1967/ERC1967UpgradeUpgradeable.sol\":3422:3436  _ROLLBACK_SLOT */\n      0x00\n      shl\n        /* \"@openzeppelin/contracts-upgradeable/proxy/ERC1967/ERC1967UpgradeUpgradeable.sol\":3384:3421  StorageSlotUpgradeable.getBooleanSlot */\n      tag_132\n        /* \"@openzeppelin/contracts-upgradeable/proxy/ERC1967/ERC1967UpgradeUpgradeable.sol\":3384:3437  StorageSlotUpgradeable.getBooleanSlot(_ROLLBACK_SLOT) */\n      jump\t// in\n    tag_131:\n        /* \"@openzeppelin/contracts-upgradeable/proxy/ERC1967/ERC1967UpgradeUpgradeable.sol\":3384:3443  StorageSlotUpgradeable.getBooleanSlot(_ROLLBACK_SLOT).value */\n      0x00\n      add\n      0x00\n      swap1\n      sload\n      swap1\n      0x0100\n      exp\n      swap1\n      div\n      0xff\n      and\n        /* \"@openzeppelin/contracts-upgradeable/proxy/ERC1967/ERC1967UpgradeUpgradeable.sol\":3380:3906  if (StorageSlotUpgradeable.getBooleanSlot(_ROLLBACK_SLOT).value) {... */\n      iszero\n      tag_133\n      jumpi\n        /* \"@openzeppelin/contracts-upgradeable/proxy/ERC1967/ERC1967UpgradeUpgradeable.sol\":3459:3496  _setImplementation(newImplementation) */\n      tag_134\n        /* \"@openzeppelin/contracts-upgradeable/proxy/ERC1967/ERC1967UpgradeUpgradeable.sol\":3478:3495  newImplementation */\n      dup4\n        /* \"@openzeppelin/contracts-upgradeable/proxy/ERC1967/ERC1967UpgradeUpgradeable.sol\":3459:3477  _setImplementation */\n      tag_135\n        /* \"@openzeppelin/contracts-upgradeable/proxy/ERC1967/ERC1967UpgradeUpgradeable.sol\":3459:3496  _setImplementation(newImplementation) */\n      jump\t// in\n    tag_134:\n        /* \"@openzeppelin/contracts-upgradeable/proxy/ERC1967/ERC1967UpgradeUpgradeable.sol\":3380:3906  if (StorageSlotUpgradeable.getBooleanSlot(_ROLLBACK_SLOT).value) {... */\n      jump(tag_136)\n    tag_133:\n        /* \"@openzeppelin/contracts-upgradeable/proxy/ERC1967/ERC1967UpgradeUpgradeable.sol\":3560:3577  newImplementation */\n      dup3\n        /* \"@openzeppelin/contracts-upgradeable/proxy/ERC1967/ERC1967UpgradeUpgradeable.sol\":3531:3592  IERC1822ProxiableUpgradeable(newImplementation).proxiableUUID */\n      0xffffffffffffffffffffffffffffffffffffffff\n      and\n      0x52d1902d\n        /* \"@openzeppelin/contracts-upgradeable/proxy/ERC1967/ERC1967UpgradeUpgradeable.sol\":3531:3594  IERC1822ProxiableUpgradeable(newImplementation).proxiableUUID() */\n      mload(0x40)\n      dup2\n      0xffffffff\n      and\n      0xe0\n      shl\n      dup2\n      mstore\n      0x04\n      add\n      0x20\n      mload(0x40)\n      dup1\n      dup4\n      sub\n      dup2\n      dup7\n      gas\n      staticcall\n      swap3\n      pop\n      pop\n      pop\n      dup1\n      iszero\n      tag_137\n      jumpi\n      pop\n      mload(0x40)\n      returndatasize\n      not(0x1f)\n      0x1f\n      dup3\n      add\n      and\n      dup3\n      add\n      dup1\n      0x40\n      mstore\n      pop\n      dup2\n      add\n      swap1\n      tag_138\n      swap2\n      swap1\n      tag_139\n      jump\t// in\n    tag_138:\n      0x01\n    tag_137:\n        /* \"@openzeppelin/contracts-upgradeable/proxy/ERC1967/ERC1967UpgradeUpgradeable.sol\":3527:3829  try IERC1822ProxiableUpgradeable(newImplementation).proxiableUUID() returns (bytes32 slot) {... */\n      tag_140\n      jumpi\n        /* \"@openzeppelin/contracts-upgradeable/proxy/ERC1967/ERC1967UpgradeUpgradeable.sol\":3758:3814  revert(\"ERC1967Upgrade: new implementation is not UUPS\") */\n      mload(0x40)\n      0x08c379a000000000000000000000000000000000000000000000000000000000\n      dup2\n      mstore\n      0x04\n      add\n      tag_144\n      swap1\n      tag_145\n      jump\t// in\n    tag_144:\n      mload(0x40)\n      dup1\n      swap2\n      sub\n      swap1\n      revert\n        /* \"@openzeppelin/contracts-upgradeable/proxy/ERC1967/ERC1967UpgradeUpgradeable.sol\":3527:3829  try IERC1822ProxiableUpgradeable(newImplementation).proxiableUUID() returns (bytes32 slot) {... */\n    tag_140:\n        /* \"@openzeppelin/contracts-upgradeable/proxy/ERC1967/ERC1967UpgradeUpgradeable.sol\":1292:1358  0x360894a13ba1a3210667c828492db98dca3e2076cc3735a920a3ca505d382bbc */\n      0x360894a13ba1a3210667c828492db98dca3e2076cc3735a920a3ca505d382bbc\n        /* \"@openzeppelin/contracts-upgradeable/proxy/ERC1967/ERC1967UpgradeUpgradeable.sol\":3652:3672  _IMPLEMENTATION_SLOT */\n      0x00\n      shl\n        /* \"@openzeppelin/contracts-upgradeable/proxy/ERC1967/ERC1967UpgradeUpgradeable.sol\":3644:3648  slot */\n      dup2\n        /* \"@openzeppelin/contracts-upgradeable/proxy/ERC1967/ERC1967UpgradeUpgradeable.sol\":3644:3672  slot == _IMPLEMENTATION_SLOT */\n      eq\n        /* \"@openzeppelin/contracts-upgradeable/proxy/ERC1967/ERC1967UpgradeUpgradeable.sol\":3636:3718  require(slot == _IMPLEMENTATION_SLOT, \"ERC1967Upgrade: unsupported proxiableUUID\") */\n      tag_147\n      jumpi\n      mload(0x40)\n      0x08c379a000000000000000000000000000000000000000000000000000000000\n      dup2\n      mstore\n      0x04\n      add\n      tag_148\n      swap1\n      tag_149\n      jump\t// in\n    tag_148:\n      mload(0x40)\n      dup1\n      swap2\n      sub\n      swap1\n      revert\n    tag_147:\n        /* \"@openzeppelin/contracts-upgradeable/proxy/ERC1967/ERC1967UpgradeUpgradeable.sol\":3595:3733  returns (bytes32 slot) {... */\n      pop\n        /* \"@openzeppelin/contracts-upgradeable/proxy/ERC1967/ERC1967UpgradeUpgradeable.sol\":3842:3895  _upgradeToAndCall(newImplementation, data, forceCall) */\n      tag_150\n        /* \"@openzeppelin/contracts-upgradeable/proxy/ERC1967/ERC1967UpgradeUpgradeable.sol\":3860:3877  newImplementation */\n      dup4\n        /* \"@openzeppelin/contracts-upgradeable/proxy/ERC1967/ERC1967UpgradeUpgradeable.sol\":3879:3883  data */\n      dup4\n        /* \"@openzeppelin/contracts-upgradeable/proxy/ERC1967/ERC1967UpgradeUpgradeable.sol\":3885:3894  forceCall */\n      dup4\n        /* \"@openzeppelin/contracts-upgradeable/proxy/ERC1967/ERC1967UpgradeUpgradeable.sol\":3842:3859  _upgradeToAndCall */\n      tag_151\n        /* \"@openzeppelin/contracts-upgradeable/proxy/ERC1967/ERC1967UpgradeUpgradeable.sol\":3842:3895  _upgradeToAndCall(newImplementation, data, forceCall) */\n      jump\t// in\n    tag_150:\n        /* \"@openzeppelin/contracts-upgradeable/proxy/ERC1967/ERC1967UpgradeUpgradeable.sol\":3380:3906  if (StorageSlotUpgradeable.getBooleanSlot(_ROLLBACK_SLOT).value) {... */\n    tag_136:\n        /* \"@openzeppelin/contracts-upgradeable/proxy/ERC1967/ERC1967UpgradeUpgradeable.sol\":2938:3912  function _upgradeToAndCallUUPS(... */\n      pop\n      pop\n      pop\n      jump\t// out\n        /* \"@openzeppelin/contracts-upgradeable/access/OwnableUpgradeable.sol\":1599:1729  function _checkOwner() internal view virtual {... */\n    tag_92:\n        /* \"@openzeppelin/contracts-upgradeable/access/OwnableUpgradeable.sol\":1673:1685  _msgSender() */\n      tag_153\n        /* \"@openzeppelin/contracts-upgradeable/access/OwnableUpgradeable.sol\":1673:1683  _msgSender */\n      tag_154\n        /* \"@openzeppelin/contracts-upgradeable/access/OwnableUpgradeable.sol\":1673:1685  _msgSender() */\n      jump\t// in\n    tag_153:\n        /* \"@openzeppelin/contracts-upgradeable/access/OwnableUpgradeable.sol\":1662:1685  owner() == _msgSender() */\n      0xffffffffffffffffffffffffffffffffffffffff\n      and\n        /* \"@openzeppelin/contracts-upgradeable/access/OwnableUpgradeable.sol\":1662:1669  owner() */\n      tag_155\n        /* \"@openzeppelin/contracts-upgradeable/access/OwnableUpgradeable.sol\":1662:1667  owner */\n      tag_45\n        /* \"@openzeppelin/contracts-upgradeable/access/OwnableUpgradeable.sol\":1662:1669  owner() */\n      jump\t// in\n    tag_155:\n        /* \"@openzeppelin/contracts-upgradeable/access/OwnableUpgradeable.sol\":1662:1685  owner() == _msgSender() */\n      0xffffffffffffffffffffffffffffffffffffffff\n      and\n      eq\n        /* \"@openzeppelin/contracts-upgradeable/access/OwnableUpgradeable.sol\":1654:1722  require(owner() == _msgSender(), \"Ownable: caller is not the owner\") */\n      tag_156\n      jumpi\n      mload(0x40)\n      0x08c379a000000000000000000000000000000000000000000000000000000000\n      dup2\n      mstore\n      0x04\n      add\n      tag_157\n      swap1\n      tag_158\n      jump\t// in\n    tag_157:\n      mload(0x40)\n      dup1\n      swap2\n      sub\n      swap1\n      revert\n    tag_156:\n        /* \"@openzeppelin/contracts-upgradeable/access/OwnableUpgradeable.sol\":1599:1729  function _checkOwner() internal view virtual {... */\n      jump\t// out\n        /* \"@openzeppelin/contracts-upgradeable/access/OwnableUpgradeable.sol\":2673:2860  function _transferOwnership(address newOwner) internal virtual {... */\n    tag_95:\n        /* \"@openzeppelin/contracts-upgradeable/access/OwnableUpgradeable.sol\":2746:2762  address oldOwner */\n      0x00\n        /* \"@openzeppelin/contracts-upgradeable/access/OwnableUpgradeable.sol\":2765:2771  _owner */\n      0x97\n      0x00\n      swap1\n      sload\n      swap1\n      0x0100\n      exp\n      swap1\n      div\n      0xffffffffffffffffffffffffffffffffffffffff\n      and\n        /* \"@openzeppelin/contracts-upgradeable/access/OwnableUpgradeable.sol\":2746:2771  address oldOwner = _owner */\n      swap1\n      pop\n        /* \"@openzeppelin/contracts-upgradeable/access/OwnableUpgradeable.sol\":2790:2798  newOwner */\n      dup2\n        /* \"@openzeppelin/contracts-upgradeable/access/OwnableUpgradeable.sol\":2781:2787  _owner */\n      0x97\n      0x00\n        /* \"@openzeppelin/contracts-upgradeable/access/OwnableUpgradeable.sol\":2781:2798  _owner = newOwner */\n      0x0100\n      exp\n      dup2\n      sload\n      dup2\n      0xffffffffffffffffffffffffffffffffffffffff\n      mul\n      not\n      and\n      swap1\n      dup4\n      0xffffffffffffffffffffffffffffffffffffffff\n      and\n      mul\n      or\n      swap1\n      sstore\n      pop\n        /* \"@openzeppelin/contracts-upgradeable/access/OwnableUpgradeable.sol\":2844:2852  newOwner */\n      dup2\n        /* \"@openzeppelin/contracts-upgradeable/access/OwnableUpgradeable.sol\":2813:2853  OwnershipTransferred(oldOwner, newOwner) */\n      0xffffffffffffffffffffffffffffffffffffffff\n      and\n        /* \"@openzeppelin/contracts-upgradeable/access/OwnableUpgradeable.sol\":2834:2842  oldOwner */\n      dup2\n        /* \"@openzeppelin/contracts-upgradeable/access/OwnableUpgradeable.sol\":2813:2853  OwnershipTransferred(oldOwner, newOwner) */\n      0xffffffffffffffffffffffffffffffffffffffff\n      and\n      0x8be0079c531659141344cd1fd0a4f28419497f9722a3daafe3b4186f6b6457e0\n      mload(0x40)\n      mload(0x40)\n      dup1\n      swap2\n      sub\n      swap1\n      log3\n        /* \"@openzeppelin/contracts-upgradeable/access/OwnableUpgradeable.sol\":2736:2860  {... */\n      pop\n        /* \"@openzeppelin/contracts-upgradeable/access/OwnableUpgradeable.sol\":2673:2860  function _transferOwnership(address newOwner) internal virtual {... */\n      pop\n      jump\t// out\n        /* \"@openzeppelin/contracts-upgradeable/utils/AddressUpgradeable.sol\":1186:1506  function isContract(address account) internal view returns (bool) {... */\n    tag_100:\n        /* \"@openzeppelin/contracts-upgradeable/utils/AddressUpgradeable.sol\":1246:1250  bool */\n      0x00\n        /* \"@openzeppelin/contracts-upgradeable/utils/AddressUpgradeable.sol\":1498:1499  0 */\n      dup1\n        /* \"@openzeppelin/contracts-upgradeable/utils/AddressUpgradeable.sol\":1476:1483  account */\n      dup3\n        /* \"@openzeppelin/contracts-upgradeable/utils/AddressUpgradeable.sol\":1476:1495  account.code.length */\n      0xffffffffffffffffffffffffffffffffffffffff\n      and\n      extcodesize\n        /* \"@openzeppelin/contracts-upgradeable/utils/AddressUpgradeable.sol\":1476:1499  account.code.length > 0 */\n      gt\n        /* \"@openzeppelin/contracts-upgradeable/utils/AddressUpgradeable.sol\":1469:1499  return account.code.length > 0 */\n      swap1\n      pop\n        /* \"@openzeppelin/contracts-upgradeable/utils/AddressUpgradeable.sol\":1186:1506  function isContract(address account) internal view returns (bool) {... */\n      swap2\n      swap1\n      pop\n      jump\t// out\n        /* \"@openzeppelin/contracts-upgradeable/access/OwnableUpgradeable.sol\":1003:1098  function __Ownable_init() internal onlyInitializing {... */\n    tag_108:\n        /* \"@openzeppelin/contracts-upgradeable/proxy/utils/Initializable.sol\":5363:5376  _initializing */\n      0x00\n      0x01\n      swap1\n      sload\n      swap1\n      0x0100\n      exp\n      swap1\n      div\n      0xff\n      and\n        /* \"@openzeppelin/contracts-upgradeable/proxy/utils/Initializable.sol\":5355:5424  require(_initializing, \"Initializable: contract is not initializing\") */\n      tag_162\n      jumpi\n      mload(0x40)\n      0x08c379a000000000000000000000000000000000000000000000000000000000\n      dup2\n      mstore\n      0x04\n      add\n      tag_163\n      swap1\n      tag_164\n      jump\t// in\n    tag_163:\n      mload(0x40)\n      dup1\n      swap2\n      sub\n      swap1\n      revert\n    tag_162:\n        /* \"@openzeppelin/contracts-upgradeable/access/OwnableUpgradeable.sol\":1065:1091  __Ownable_init_unchained() */\n      tag_166\n        /* \"@openzeppelin/contracts-upgradeable/access/OwnableUpgradeable.sol\":1065:1089  __Ownable_init_unchained */\n      tag_167\n        /* \"@openzeppelin/contracts-upgradeable/access/OwnableUpgradeable.sol\":1065:1091  __Ownable_init_unchained() */\n      jump\t// in\n    tag_166:\n        /* \"@openzeppelin/contracts-upgradeable/access/OwnableUpgradeable.sol\":1003:1098  function __Ownable_init() internal onlyInitializing {... */\n      jump\t// out\n        /* \"@openzeppelin/contracts-upgradeable/utils/StorageSlotUpgradeable.sol\":1625:1815  function getAddressSlot(bytes32 slot) internal pure returns (AddressSlot storage r) {... */\n    tag_126:\n        /* \"@openzeppelin/contracts-upgradeable/utils/StorageSlotUpgradeable.sol\":1686:1707  AddressSlot storage r */\n      0x00\n        /* \"@openzeppelin/contracts-upgradeable/utils/StorageSlotUpgradeable.sol\":1795:1799  slot */\n      dup2\n        /* \"@openzeppelin/contracts-upgradeable/utils/StorageSlotUpgradeable.sol\":1785:1799  r.slot := slot */\n      swap1\n      pop\n        /* \"@openzeppelin/contracts-upgradeable/utils/StorageSlotUpgradeable.sol\":1625:1815  function getAddressSlot(bytes32 slot) internal pure returns (AddressSlot storage r) {... */\n      swap2\n      swap1\n      pop\n      jump\t// out\n        /* \"@openzeppelin/contracts-upgradeable/utils/StorageSlotUpgradeable.sol\":1913:2103  function getBooleanSlot(bytes32 slot) internal pure returns (BooleanSlot storage r) {... */\n    tag_132:\n        /* \"@openzeppelin/contracts-upgradeable/utils/StorageSlotUpgradeable.sol\":1974:1995  BooleanSlot storage r */\n      0x00\n        /* \"@openzeppelin/contracts-upgradeable/utils/StorageSlotUpgradeable.sol\":2083:2087  slot */\n      dup2\n        /* \"@openzeppelin/contracts-upgradeable/utils/StorageSlotUpgradeable.sol\":2073:2087  r.slot := slot */\n      swap1\n      pop\n        /* \"@openzeppelin/contracts-upgradeable/utils/StorageSlotUpgradeable.sol\":1913:2103  function getBooleanSlot(bytes32 slot) internal pure returns (BooleanSlot storage r) {... */\n      swap2\n      swap1\n      pop\n      jump\t// out\n        /* \"@openzeppelin/contracts-upgradeable/proxy/ERC1967/ERC1967UpgradeUpgradeable.sol\":1805:2086  function _setImplementation(address newImplementation) private {... */\n    tag_135:\n        /* \"@openzeppelin/contracts-upgradeable/proxy/ERC1967/ERC1967UpgradeUpgradeable.sol\":1886:1934  AddressUpgradeable.isContract(newImplementation) */\n      tag_171\n        /* \"@openzeppelin/contracts-upgradeable/proxy/ERC1967/ERC1967UpgradeUpgradeable.sol\":1916:1933  newImplementation */\n      dup2\n        /* \"@openzeppelin/contracts-upgradeable/proxy/ERC1967/ERC1967UpgradeUpgradeable.sol\":1886:1915  AddressUpgradeable.isContract */\n      tag_100\n        /* \"@openzeppelin/contracts-upgradeable/proxy/ERC1967/ERC1967UpgradeUpgradeable.sol\":1886:1934  AddressUpgradeable.isContract(newImplementation) */\n      jump\t// in\n    tag_171:\n        /* \"@openzeppelin/contracts-upgradeable/proxy/ERC1967/ERC1967UpgradeUpgradeable.sol\":1878:1984  require(AddressUpgradeable.isContract(newImplementation), \"ERC1967: new implementation is not a contract\") */\n      tag_172\n      jumpi\n      mload(0x40)\n      0x08c379a000000000000000000000000000000000000000000000000000000000\n      dup2\n      mstore\n      0x04\n      add\n      tag_173\n      swap1\n      tag_174\n      jump\t// in\n    tag_173:\n      mload(0x40)\n      dup1\n      swap2\n      sub\n      swap1\n      revert\n    tag_172:\n        /* \"@openzeppelin/contracts-upgradeable/proxy/ERC1967/ERC1967UpgradeUpgradeable.sol\":2062:2079  newImplementation */\n      dup1\n        /* \"@openzeppelin/contracts-upgradeable/proxy/ERC1967/ERC1967UpgradeUpgradeable.sol\":1994:2053  StorageSlotUpgradeable.getAddressSlot(_IMPLEMENTATION_SLOT) */\n      tag_175\n        /* \"@openzeppelin/contracts-upgradeable/proxy/ERC1967/ERC1967UpgradeUpgradeable.sol\":1292:1358  0x360894a13ba1a3210667c828492db98dca3e2076cc3735a920a3ca505d382bbc */\n      0x360894a13ba1a3210667c828492db98dca3e2076cc3735a920a3ca505d382bbc\n        /* \"@openzeppelin/contracts-upgradeable/proxy/ERC1967/ERC1967UpgradeUpgradeable.sol\":2032:2052  _IMPLEMENTATION_SLOT */\n      0x00\n      shl\n        /* \"@openzeppelin/contracts-upgradeable/proxy/ERC1967/ERC1967UpgradeUpgradeable.sol\":1994:2031  StorageSlotUpgradeable.getAddressSlot */\n      tag_126\n        /* \"@openzeppelin/contracts-upgradeable/proxy/ERC1967/ERC1967UpgradeUpgradeable.sol\":1994:2053  StorageSlotUpgradeable.getAddressSlot(_IMPLEMENTATION_SLOT) */\n      jump\t// in\n    tag_175:\n        /* \"@openzeppelin/contracts-upgradeable/proxy/ERC1967/ERC1967UpgradeUpgradeable.sol\":1994:2059  StorageSlotUpgradeable.getAddressSlot(_IMPLEMENTATION_SLOT).value */\n      0x00\n      add\n      0x00\n        /* \"@openzeppelin/contracts-upgradeable/proxy/ERC1967/ERC1967UpgradeUpgradeable.sol\":1994:2079  StorageSlotUpgradeable.getAddressSlot(_IMPLEMENTATION_SLOT).value = newImplementation */\n      0x0100\n      exp\n      dup2\n      sload\n      dup2\n      0xffffffffffffffffffffffffffffffffffffffff\n      mul\n      not\n      and\n      swap1\n      dup4\n      0xffffffffffffffffffffffffffffffffffffffff\n      and\n      mul\n      or\n      swap1\n      sstore\n      pop\n        /* \"@openzeppelin/contracts-upgradeable/proxy/ERC1967/ERC1967UpgradeUpgradeable.sol\":1805:2086  function _setImplementation(address newImplementation) private {... */\n      pop\n      jump\t// out\n        /* \"@openzeppelin/contracts-upgradeable/proxy/ERC1967/ERC1967UpgradeUpgradeable.sol\":2478:2766  function _upgradeToAndCall(... */\n    tag_151:\n        /* \"@openzeppelin/contracts-upgradeable/proxy/ERC1967/ERC1967UpgradeUpgradeable.sol\":2616:2645  _upgradeTo(newImplementation) */\n      tag_177\n        /* \"@openzeppelin/contracts-upgradeable/proxy/ERC1967/ERC1967UpgradeUpgradeable.sol\":2627:2644  newImplementation */\n      dup4\n        /* \"@openzeppelin/contracts-upgradeable/proxy/ERC1967/ERC1967UpgradeUpgradeable.sol\":2616:2626  _upgradeTo */\n      tag_178\n        /* \"@openzeppelin/contracts-upgradeable/proxy/ERC1967/ERC1967UpgradeUpgradeable.sol\":2616:2645  _upgradeTo(newImplementation) */\n      jump\t// in\n    tag_177:\n        /* \"@openzeppelin/contracts-upgradeable/proxy/ERC1967/ERC1967UpgradeUpgradeable.sol\":2673:2674  0 */\n      0x00\n        /* \"@openzeppelin/contracts-upgradeable/proxy/ERC1967/ERC1967UpgradeUpgradeable.sol\":2659:2663  data */\n      dup3\n        /* \"@openzeppelin/contracts-upgradeable/proxy/ERC1967/ERC1967UpgradeUpgradeable.sol\":2659:2670  data.length */\n      mload\n        /* \"@openzeppelin/contracts-upgradeable/proxy/ERC1967/ERC1967UpgradeUpgradeable.sol\":2659:2674  data.length > 0 */\n      gt\n        /* \"@openzeppelin/contracts-upgradeable/proxy/ERC1967/ERC1967UpgradeUpgradeable.sol\":2659:2687  data.length > 0 || forceCall */\n      dup1\n      tag_179\n      jumpi\n      pop\n        /* \"@openzeppelin/contracts-upgradeable/proxy/ERC1967/ERC1967UpgradeUpgradeable.sol\":2678:2687  forceCall */\n      dup1\n        /* \"@openzeppelin/contracts-upgradeable/proxy/ERC1967/ERC1967UpgradeUpgradeable.sol\":2659:2687  data.length > 0 || forceCall */\n    tag_179:\n        /* \"@openzeppelin/contracts-upgradeable/proxy/ERC1967/ERC1967UpgradeUpgradeable.sol\":2655:2760  if (data.length > 0 || forceCall) {... */\n      iszero\n      tag_180\n      jumpi\n        /* \"@openzeppelin/contracts-upgradeable/proxy/ERC1967/ERC1967UpgradeUpgradeable.sol\":2703:2749  _functionDelegateCall(newImplementation, data) */\n      tag_181\n        /* \"@openzeppelin/contracts-upgradeable/proxy/ERC1967/ERC1967UpgradeUpgradeable.sol\":2725:2742  newImplementation */\n      dup4\n        /* \"@openzeppelin/contracts-upgradeable/proxy/ERC1967/ERC1967UpgradeUpgradeable.sol\":2744:2748  data */\n      dup4\n        /* \"@openzeppelin/contracts-upgradeable/proxy/ERC1967/ERC1967UpgradeUpgradeable.sol\":2703:2724  _functionDelegateCall */\n      tag_182\n        /* \"@openzeppelin/contracts-upgradeable/proxy/ERC1967/ERC1967UpgradeUpgradeable.sol\":2703:2749  _functionDelegateCall(newImplementation, data) */\n      jump\t// in\n    tag_181:\n      pop\n        /* \"@openzeppelin/contracts-upgradeable/proxy/ERC1967/ERC1967UpgradeUpgradeable.sol\":2655:2760  if (data.length > 0 || forceCall) {... */\n    tag_180:\n        /* \"@openzeppelin/contracts-upgradeable/proxy/ERC1967/ERC1967UpgradeUpgradeable.sol\":2478:2766  function _upgradeToAndCall(... */\n      pop\n      pop\n      pop\n      jump\t// out\n        /* \"@openzeppelin/contracts-upgradeable/utils/ContextUpgradeable.sol\":850:946  function _msgSender() internal view virtual returns (address) {... */\n    tag_154:\n        /* \"@openzeppelin/contracts-upgradeable/utils/ContextUpgradeable.sol\":903:910  address */\n      0x00\n        /* \"@openzeppelin/contracts-upgradeable/utils/ContextUpgradeable.sol\":929:939  msg.sender */\n      caller\n        /* \"@openzeppelin/contracts-upgradeable/utils/ContextUpgradeable.sol\":922:939  return msg.sender */\n      swap1\n      pop\n        /* \"@openzeppelin/contracts-upgradeable/utils/ContextUpgradeable.sol\":850:946  function _msgSender() internal view virtual returns (address) {... */\n      swap1\n      jump\t// out\n        /* \"@openzeppelin/contracts-upgradeable/access/OwnableUpgradeable.sol\":1104:1215  function __Ownable_init_unchained() internal onlyInitializing {... */\n    tag_167:\n        /* \"@openzeppelin/contracts-upgradeable/proxy/utils/Initializable.sol\":5363:5376  _initializing */\n      0x00\n      0x01\n      swap1\n      sload\n      swap1\n      0x0100\n      exp\n      swap1\n      div\n      0xff\n      and\n        /* \"@openzeppelin/contracts-upgradeable/proxy/utils/Initializable.sol\":5355:5424  require(_initializing, \"Initializable: contract is not initializing\") */\n      tag_185\n      jumpi\n      mload(0x40)\n      0x08c379a000000000000000000000000000000000000000000000000000000000\n      dup2\n      mstore\n      0x04\n      add\n      tag_186\n      swap1\n      tag_164\n      jump\t// in\n    tag_186:\n      mload(0x40)\n      dup1\n      swap2\n      sub\n      swap1\n      revert\n    tag_185:\n        /* \"@openzeppelin/contracts-upgradeable/access/OwnableUpgradeable.sol\":1176:1208  _transferOwnership(_msgSender()) */\n      tag_188\n        /* \"@openzeppelin/contracts-upgradeable/access/OwnableUpgradeable.sol\":1195:1207  _msgSender() */\n      tag_189\n        /* \"@openzeppelin/contracts-upgradeable/access/OwnableUpgradeable.sol\":1195:1205  _msgSender */\n      tag_154\n        /* \"@openzeppelin/contracts-upgradeable/access/OwnableUpgradeable.sol\":1195:1207  _msgSender() */\n      jump\t// in\n    tag_189:\n        /* \"@openzeppelin/contracts-upgradeable/access/OwnableUpgradeable.sol\":1176:1194  _transferOwnership */\n      tag_95\n        /* \"@openzeppelin/contracts-upgradeable/access/OwnableUpgradeable.sol\":1176:1208  _transferOwnership(_msgSender()) */\n      jump\t// in\n    tag_188:\n        /* \"@openzeppelin/contracts-upgradeable/access/OwnableUpgradeable.sol\":1104:1215  function __Ownable_init_unchained() internal onlyInitializing {... */\n      jump\t// out\n        /* \"@openzeppelin/contracts-upgradeable/proxy/ERC1967/ERC1967UpgradeUpgradeable.sol\":2192:2344  function _upgradeTo(address newImplementation) internal {... */\n    tag_178:\n        /* \"@openzeppelin/contracts-upgradeable/proxy/ERC1967/ERC1967UpgradeUpgradeable.sol\":2258:2295  _setImplementation(newImplementation) */\n      tag_191\n        /* \"@openzeppelin/contracts-upgradeable/proxy/ERC1967/ERC1967UpgradeUpgradeable.sol\":2277:2294  newImplementation */\n      dup2\n        /* \"@openzeppelin/contracts-upgradeable/proxy/ERC1967/ERC1967UpgradeUpgradeable.sol\":2258:2276  _setImplementation */\n      tag_135\n        /* \"@openzeppelin/contracts-upgradeable/proxy/ERC1967/ERC1967UpgradeUpgradeable.sol\":2258:2295  _setImplementation(newImplementation) */\n      jump\t// in\n    tag_191:\n        /* \"@openzeppelin/contracts-upgradeable/proxy/ERC1967/ERC1967UpgradeUpgradeable.sol\":2319:2336  newImplementation */\n      dup1\n        /* \"@openzeppelin/contracts-upgradeable/proxy/ERC1967/ERC1967UpgradeUpgradeable.sol\":2310:2337  Upgraded(newImplementation) */\n      0xffffffffffffffffffffffffffffffffffffffff\n      and\n      0xbc7cd75a20ee27fd9adebab32041f755214dbc6bffa90cc0225b39da2e5c2d3b\n      mload(0x40)\n      mload(0x40)\n      dup1\n      swap2\n      sub\n      swap1\n      log2\n        /* \"@openzeppelin/contracts-upgradeable/proxy/ERC1967/ERC1967UpgradeUpgradeable.sol\":2192:2344  function _upgradeTo(address newImplementation) internal {... */\n      pop\n      jump\t// out\n        /* \"@openzeppelin/contracts-upgradeable/proxy/ERC1967/ERC1967UpgradeUpgradeable.sol\":7088:7543  function _functionDelegateCall(address target, bytes memory data) private returns (bytes memory) {... */\n    tag_182:\n        /* \"@openzeppelin/contracts-upgradeable/proxy/ERC1967/ERC1967UpgradeUpgradeable.sol\":7171:7183  bytes memory */\n      0x60\n        /* \"@openzeppelin/contracts-upgradeable/proxy/ERC1967/ERC1967UpgradeUpgradeable.sol\":7203:7240  AddressUpgradeable.isContract(target) */\n      tag_193\n        /* \"@openzeppelin/contracts-upgradeable/proxy/ERC1967/ERC1967UpgradeUpgradeable.sol\":7233:7239  target */\n      dup4\n        /* \"@openzeppelin/contracts-upgradeable/proxy/ERC1967/ERC1967UpgradeUpgradeable.sol\":7203:7232  AddressUpgradeable.isContract */\n      tag_100\n        /* \"@openzeppelin/contracts-upgradeable/proxy/ERC1967/ERC1967UpgradeUpgradeable.sol\":7203:7240  AddressUpgradeable.isContract(target) */\n      jump\t// in\n    tag_193:\n        /* \"@openzeppelin/contracts-upgradeable/proxy/ERC1967/ERC1967UpgradeUpgradeable.sol\":7195:7283  require(AddressUpgradeable.isContract(target), \"Address: delegate call to non-contract\") */\n      tag_194\n      jumpi\n      mload(0x40)\n      0x08c379a000000000000000000000000000000000000000000000000000000000\n      dup2\n      mstore\n      0x04\n      add\n      tag_195\n      swap1\n      tag_196\n      jump\t// in\n    tag_195:\n      mload(0x40)\n      dup1\n      swap2\n      sub\n      swap1\n      revert\n    tag_194:\n        /* \"@openzeppelin/contracts-upgradeable/proxy/ERC1967/ERC1967UpgradeUpgradeable.sol\":7354:7366  bool success */\n      0x00\n        /* \"@openzeppelin/contracts-upgradeable/proxy/ERC1967/ERC1967UpgradeUpgradeable.sol\":7368:7391  bytes memory returndata */\n      dup1\n        /* \"@openzeppelin/contracts-upgradeable/proxy/ERC1967/ERC1967UpgradeUpgradeable.sol\":7395:7401  target */\n      dup5\n        /* \"@openzeppelin/contracts-upgradeable/proxy/ERC1967/ERC1967UpgradeUpgradeable.sol\":7395:7414  target.delegatecall */\n      0xffffffffffffffffffffffffffffffffffffffff\n      and\n        /* \"@openzeppelin/contracts-upgradeable/proxy/ERC1967/ERC1967UpgradeUpgradeable.sol\":7415:7419  data */\n      dup5\n        /* \"@openzeppelin/contracts-upgradeable/proxy/ERC1967/ERC1967UpgradeUpgradeable.sol\":7395:7420  target.delegatecall(data) */\n      mload(0x40)\n      tag_197\n      swap2\n      swap1\n      tag_198\n      jump\t// in\n    tag_197:\n      0x00\n      mload(0x40)\n      dup1\n      dup4\n      sub\n      dup2\n      dup6\n      gas\n      delegatecall\n      swap2\n      pop\n      pop\n      returndatasize\n      dup1\n      0x00\n      dup2\n      eq\n      tag_201\n      jumpi\n      mload(0x40)\n      swap2\n      pop\n      and(add(returndatasize, 0x3f), not(0x1f))\n      dup3\n      add\n      0x40\n      mstore\n      returndatasize\n      dup3\n      mstore\n      returndatasize\n      0x00\n      0x20\n      dup5\n      add\n      returndatacopy\n      jump(tag_200)\n    tag_201:\n      0x60\n      swap2\n      pop\n    tag_200:\n      pop\n        /* \"@openzeppelin/contracts-upgradeable/proxy/ERC1967/ERC1967UpgradeUpgradeable.sol\":7353:7420  (bool success, bytes memory returndata) = target.delegatecall(data) */\n      swap2\n      pop\n      swap2\n      pop\n        /* \"@openzeppelin/contracts-upgradeable/proxy/ERC1967/ERC1967UpgradeUpgradeable.sol\":7437:7536  AddressUpgradeable.verifyCallResult(success, returndata, \"Address: low-level delegate call failed\") */\n      tag_202\n        /* \"@openzeppelin/contracts-upgradeable/proxy/ERC1967/ERC1967UpgradeUpgradeable.sol\":7473:7480  success */\n      dup3\n        /* \"@openzeppelin/contracts-upgradeable/proxy/ERC1967/ERC1967UpgradeUpgradeable.sol\":7482:7492  returndata */\n      dup3\n        /* \"@openzeppelin/contracts-upgradeable/proxy/ERC1967/ERC1967UpgradeUpgradeable.sol\":7437:7536  AddressUpgradeable.verifyCallResult(success, returndata, \"Address: low-level delegate call failed\") */\n      mload(0x40)\n      dup1\n      0x60\n      add\n      0x40\n      mstore\n      dup1\n      0x27\n      dup2\n      mstore\n      0x20\n      add\n      data_9fdcd12e4b726339b32a442b0a448365d5d85c96b2d2cff917b4f66c63110398\n      0x27\n      swap2\n      codecopy\n        /* \"@openzeppelin/contracts-upgradeable/proxy/ERC1967/ERC1967UpgradeUpgradeable.sol\":7437:7472  AddressUpgradeable.verifyCallResult */\n      tag_203\n        /* \"@openzeppelin/contracts-upgradeable/proxy/ERC1967/ERC1967UpgradeUpgradeable.sol\":7437:7536  AddressUpgradeable.verifyCallResult(success, returndata, \"Address: low-level delegate call failed\") */\n      jump\t// in\n    tag_202:\n        /* \"@openzeppelin/contracts-upgradeable/proxy/ERC1967/ERC1967UpgradeUpgradeable.sol\":7430:7536  return AddressUpgradeable.verifyCallResult(success, returndata, \"Address: low-level delegate call failed\") */\n      swap3\n      pop\n      pop\n      pop\n        /* \"@openzeppelin/contracts-upgradeable/proxy/ERC1967/ERC1967UpgradeUpgradeable.sol\":7088:7543  function _functionDelegateCall(address target, bytes memory data) private returns (bytes memory) {... */\n      swap3\n      swap2\n      pop\n      pop\n      jump\t// out\n        /* \"@openzeppelin/contracts-upgradeable/utils/AddressUpgradeable.sol\":7438:7733  function verifyCallResult(... */\n    tag_203:\n        /* \"@openzeppelin/contracts-upgradeable/utils/AddressUpgradeable.sol\":7584:7596  bytes memory */\n      0x60\n        /* \"@openzeppelin/contracts-upgradeable/utils/AddressUpgradeable.sol\":7612:7619  success */\n      dup4\n        /* \"@openzeppelin/contracts-upgradeable/utils/AddressUpgradeable.sol\":7608:7727  if (success) {... */\n      iszero\n      tag_205\n      jumpi\n        /* \"@openzeppelin/contracts-upgradeable/utils/AddressUpgradeable.sol\":7642:7652  returndata */\n      dup3\n        /* \"@openzeppelin/contracts-upgradeable/utils/AddressUpgradeable.sol\":7635:7652  return returndata */\n      swap1\n      pop\n      jump(tag_204)\n        /* \"@openzeppelin/contracts-upgradeable/utils/AddressUpgradeable.sol\":7608:7727  if (success) {... */\n    tag_205:\n        /* \"@openzeppelin/contracts-upgradeable/utils/AddressUpgradeable.sol\":7683:7716  _revert(returndata, errorMessage) */\n      tag_207\n        /* \"@openzeppelin/contracts-upgradeable/utils/AddressUpgradeable.sol\":7691:7701  returndata */\n      dup4\n        /* \"@openzeppelin/contracts-upgradeable/utils/AddressUpgradeable.sol\":7703:7715  errorMessage */\n      dup4\n        /* \"@openzeppelin/contracts-upgradeable/utils/AddressUpgradeable.sol\":7683:7690  _revert */\n      tag_208\n        /* \"@openzeppelin/contracts-upgradeable/utils/AddressUpgradeable.sol\":7683:7716  _revert(returndata, errorMessage) */\n      jump\t// in\n    tag_207:\n        /* \"@openzeppelin/contracts-upgradeable/utils/AddressUpgradeable.sol\":7438:7733  function verifyCallResult(... */\n    tag_204:\n      swap4\n      swap3\n      pop\n      pop\n      pop\n      jump\t// out\n        /* \"@openzeppelin/contracts-upgradeable/utils/AddressUpgradeable.sol\":7739:8279  function _revert(bytes memory returndata, string memory errorMessage) private pure {... */\n    tag_208:\n        /* \"@openzeppelin/contracts-upgradeable/utils/AddressUpgradeable.sol\":7918:7919  0 */\n      0x00\n        /* \"@openzeppelin/contracts-upgradeable/utils/AddressUpgradeable.sol\":7898:7908  returndata */\n      dup3\n        /* \"@openzeppelin/contracts-upgradeable/utils/AddressUpgradeable.sol\":7898:7915  returndata.length */\n      mload\n        /* \"@openzeppelin/contracts-upgradeable/utils/AddressUpgradeable.sol\":7898:7919  returndata.length > 0 */\n      gt\n        /* \"@openzeppelin/contracts-upgradeable/utils/AddressUpgradeable.sol\":7894:8273  if (returndata.length > 0) {... */\n      iszero\n      tag_210\n      jumpi\n        /* \"@openzeppelin/contracts-upgradeable/utils/AddressUpgradeable.sol\":8126:8136  returndata */\n      dup2\n        /* \"@openzeppelin/contracts-upgradeable/utils/AddressUpgradeable.sol\":8120:8137  mload(returndata) */\n      mload\n        /* \"@openzeppelin/contracts-upgradeable/utils/AddressUpgradeable.sol\":8182:8197  returndata_size */\n      dup1\n        /* \"@openzeppelin/contracts-upgradeable/utils/AddressUpgradeable.sol\":8169:8179  returndata */\n      dup4\n        /* \"@openzeppelin/contracts-upgradeable/utils/AddressUpgradeable.sol\":8165:8167  32 */\n      0x20\n        /* \"@openzeppelin/contracts-upgradeable/utils/AddressUpgradeable.sol\":8161:8180  add(32, returndata) */\n      add\n        /* \"@openzeppelin/contracts-upgradeable/utils/AddressUpgradeable.sol\":8154:8198  revert(add(32, returndata), returndata_size) */\n      revert\n        /* \"@openzeppelin/contracts-upgradeable/utils/AddressUpgradeable.sol\":7894:8273  if (returndata.length > 0) {... */\n    tag_210:\n        /* \"@openzeppelin/contracts-upgradeable/utils/AddressUpgradeable.sol\":8249:8261  errorMessage */\n      dup1\n        /* \"@openzeppelin/contracts-upgradeable/utils/AddressUpgradeable.sol\":8242:8262  revert(errorMessage) */\n      mload(0x40)\n      0x08c379a000000000000000000000000000000000000000000000000000000000\n      dup2\n      mstore\n      0x04\n      add\n      tag_212\n      swap2\n      swap1\n      tag_213\n      jump\t// in\n    tag_212:\n      mload(0x40)\n      dup1\n      swap2\n      sub\n      swap1\n      revert\n        /* \"#utility.yul\":7:82   */\n    tag_214:\n        /* \"#utility.yul\":40:46   */\n      0x00\n        /* \"#utility.yul\":73:75   */\n      0x40\n        /* \"#utility.yul\":67:76   */\n      mload\n        /* \"#utility.yul\":57:76   */\n      swap1\n      pop\n        /* \"#utility.yul\":7:82   */\n      swap1\n      jump\t// out\n        /* \"#utility.yul\":88:205   */\n    tag_215:\n        /* \"#utility.yul\":197:198   */\n      0x00\n        /* \"#utility.yul\":194:195   */\n      dup1\n        /* \"#utility.yul\":187:199   */\n      revert\n        /* \"#utility.yul\":211:328   */\n    tag_216:\n        /* \"#utility.yul\":320:321   */\n      0x00\n        /* \"#utility.yul\":317:318   */\n      dup1\n        /* \"#utility.yul\":310:322   */\n      revert\n        /* \"#utility.yul\":334:460   */\n    tag_217:\n        /* \"#utility.yul\":371:378   */\n      0x00\n        /* \"#utility.yul\":411:453   */\n      0xffffffffffffffffffffffffffffffffffffffff\n        /* \"#utility.yul\":404:409   */\n      dup3\n        /* \"#utility.yul\":400:454   */\n      and\n        /* \"#utility.yul\":389:454   */\n      swap1\n      pop\n        /* \"#utility.yul\":334:460   */\n      swap2\n      swap1\n      pop\n      jump\t// out\n        /* \"#utility.yul\":466:562   */\n    tag_218:\n        /* \"#utility.yul\":503:510   */\n      0x00\n        /* \"#utility.yul\":532:556   */\n      tag_280\n        /* \"#utility.yul\":550:555   */\n      dup3\n        /* \"#utility.yul\":532:556   */\n      tag_217\n      jump\t// in\n    tag_280:\n        /* \"#utility.yul\":521:556   */\n      swap1\n      pop\n        /* \"#utility.yul\":466:562   */\n      swap2\n      swap1\n      pop\n      jump\t// out\n        /* \"#utility.yul\":568:690   */\n    tag_219:\n        /* \"#utility.yul\":641:665   */\n      tag_282\n        /* \"#utility.yul\":659:664   */\n      dup2\n        /* \"#utility.yul\":641:665   */\n      tag_218\n      jump\t// in\n    tag_282:\n        /* \"#utility.yul\":634:639   */\n      dup2\n        /* \"#utility.yul\":631:666   */\n      eq\n        /* \"#utility.yul\":621:684   */\n      tag_283\n      jumpi\n        /* \"#utility.yul\":680:681   */\n      0x00\n        /* \"#utility.yul\":677:678   */\n      dup1\n        /* \"#utility.yul\":670:682   */\n      revert\n        /* \"#utility.yul\":621:684   */\n    tag_283:\n        /* \"#utility.yul\":568:690   */\n      pop\n      jump\t// out\n        /* \"#utility.yul\":696:835   */\n    tag_220:\n        /* \"#utility.yul\":742:747   */\n      0x00\n        /* \"#utility.yul\":780:786   */\n      dup2\n        /* \"#utility.yul\":767:787   */\n      calldataload\n        /* \"#utility.yul\":758:787   */\n      swap1\n      pop\n        /* \"#utility.yul\":796:829   */\n      tag_285\n        /* \"#utility.yul\":823:828   */\n      dup2\n        /* \"#utility.yul\":796:829   */\n      tag_219\n      jump\t// in\n    tag_285:\n        /* \"#utility.yul\":696:835   */\n      swap3\n      swap2\n      pop\n      pop\n      jump\t// out\n        /* \"#utility.yul\":841:1170   */\n    tag_16:\n        /* \"#utility.yul\":900:906   */\n      0x00\n        /* \"#utility.yul\":949:951   */\n      0x20\n        /* \"#utility.yul\":937:946   */\n      dup3\n        /* \"#utility.yul\":928:935   */\n      dup5\n        /* \"#utility.yul\":924:947   */\n      sub\n        /* \"#utility.yul\":920:952   */\n      slt\n        /* \"#utility.yul\":917:1036   */\n      iszero\n      tag_287\n      jumpi\n        /* \"#utility.yul\":955:1034   */\n      tag_288\n      tag_215\n      jump\t// in\n    tag_288:\n        /* \"#utility.yul\":917:1036   */\n    tag_287:\n        /* \"#utility.yul\":1075:1076   */\n      0x00\n        /* \"#utility.yul\":1100:1153   */\n      tag_289\n        /* \"#utility.yul\":1145:1152   */\n      dup5\n        /* \"#utility.yul\":1136:1142   */\n      dup3\n        /* \"#utility.yul\":1125:1134   */\n      dup6\n        /* \"#utility.yul\":1121:1143   */\n      add\n        /* \"#utility.yul\":1100:1153   */\n      tag_220\n      jump\t// in\n    tag_289:\n        /* \"#utility.yul\":1090:1153   */\n      swap2\n      pop\n        /* \"#utility.yul\":1046:1163   */\n      pop\n        /* \"#utility.yul\":841:1170   */\n      swap3\n      swap2\n      pop\n      pop\n      jump\t// out\n        /* \"#utility.yul\":1176:1293   */\n    tag_221:\n        /* \"#utility.yul\":1285:1286   */\n      0x00\n        /* \"#utility.yul\":1282:1283   */\n      dup1\n        /* \"#utility.yul\":1275:1287   */\n      revert\n        /* \"#utility.yul\":1299:1416   */\n    tag_222:\n        /* \"#utility.yul\":1408:1409   */\n      0x00\n        /* \"#utility.yul\":1405:1406   */\n      dup1\n        /* \"#utility.yul\":1398:1410   */\n      revert\n        /* \"#utility.yul\":1422:1524   */\n    tag_223:\n        /* \"#utility.yul\":1463:1469   */\n      0x00\n        /* \"#utility.yul\":1514:1516   */\n      0x1f\n        /* \"#utility.yul\":1510:1517   */\n      not\n        /* \"#utility.yul\":1505:1507   */\n      0x1f\n        /* \"#utility.yul\":1498:1503   */\n      dup4\n        /* \"#utility.yul\":1494:1508   */\n      add\n        /* \"#utility.yul\":1490:1518   */\n      and\n        /* \"#utility.yul\":1480:1518   */\n      swap1\n      pop\n        /* \"#utility.yul\":1422:1524   */\n      swap2\n      swap1\n      pop\n      jump\t// out\n        /* \"#utility.yul\":1530:1710   */\n    tag_70:\n        /* \"#utility.yul\":1578:1655   */\n      0x4e487b7100000000000000000000000000000000000000000000000000000000\n        /* \"#utility.yul\":1575:1576   */\n      0x00\n        /* \"#utility.yul\":1568:1656   */\n      mstore\n        /* \"#utility.yul\":1675:1679   */\n      0x41\n        /* \"#utility.yul\":1672:1673   */\n      0x04\n        /* \"#utility.yul\":1665:1680   */\n      mstore\n        /* \"#utility.yul\":1699:1703   */\n      0x24\n        /* \"#utility.yul\":1696:1697   */\n      0x00\n        /* \"#utility.yul\":1689:1704   */\n      revert\n        /* \"#utility.yul\":1716:1997   */\n    tag_224:\n        /* \"#utility.yul\":1799:1826   */\n      tag_295\n        /* \"#utility.yul\":1821:1825   */\n      dup3\n        /* \"#utility.yul\":1799:1826   */\n      tag_223\n      jump\t// in\n    tag_295:\n        /* \"#utility.yul\":1791:1797   */\n      dup2\n        /* \"#utility.yul\":1787:1827   */\n      add\n        /* \"#utility.yul\":1929:1935   */\n      dup2\n        /* \"#utility.yul\":1917:1927   */\n      dup2\n        /* \"#utility.yul\":1914:1936   */\n      lt\n        /* \"#utility.yul\":1893:1911   */\n      0xffffffffffffffff\n        /* \"#utility.yul\":1881:1891   */\n      dup3\n        /* \"#utility.yul\":1878:1912   */\n      gt\n        /* \"#utility.yul\":1875:1937   */\n      or\n        /* \"#utility.yul\":1872:1960   */\n      iszero\n      tag_296\n      jumpi\n        /* \"#utility.yul\":1940:1958   */\n      tag_297\n      tag_70\n      jump\t// in\n    tag_297:\n        /* \"#utility.yul\":1872:1960   */\n    tag_296:\n        /* \"#utility.yul\":1980:1990   */\n      dup1\n        /* \"#utility.yul\":1976:1978   */\n      0x40\n        /* \"#utility.yul\":1969:1991   */\n      mstore\n        /* \"#utility.yul\":1759:1997   */\n      pop\n        /* \"#utility.yul\":1716:1997   */\n      pop\n      pop\n      jump\t// out\n        /* \"#utility.yul\":2003:2132   */\n    tag_225:\n        /* \"#utility.yul\":2037:2043   */\n      0x00\n        /* \"#utility.yul\":2064:2084   */\n      tag_299\n      tag_214\n      jump\t// in\n    tag_299:\n        /* \"#utility.yul\":2054:2084   */\n      swap1\n      pop\n        /* \"#utility.yul\":2093:2126   */\n      tag_300\n        /* \"#utility.yul\":2121:2125   */\n      dup3\n        /* \"#utility.yul\":2113:2119   */\n      dup3\n        /* \"#utility.yul\":2093:2126   */\n      tag_224\n      jump\t// in\n    tag_300:\n        /* \"#utility.yul\":2003:2132   */\n      swap2\n      swap1\n      pop\n      jump\t// out\n        /* \"#utility.yul\":2138:2445   */\n    tag_226:\n        /* \"#utility.yul\":2199:2203   */\n      0x00\n        /* \"#utility.yul\":2289:2307   */\n      0xffffffffffffffff\n        /* \"#utility.yul\":2281:2287   */\n      dup3\n        /* \"#utility.yul\":2278:2308   */\n      gt\n        /* \"#utility.yul\":2275:2331   */\n      iszero\n      tag_302\n      jumpi\n        /* \"#utility.yul\":2311:2329   */\n      tag_303\n      tag_70\n      jump\t// in\n    tag_303:\n        /* \"#utility.yul\":2275:2331   */\n    tag_302:\n        /* \"#utility.yul\":2349:2378   */\n      tag_304\n        /* \"#utility.yul\":2371:2377   */\n      dup3\n        /* \"#utility.yul\":2349:2378   */\n      tag_223\n      jump\t// in\n    tag_304:\n        /* \"#utility.yul\":2341:2378   */\n      swap1\n      pop\n        /* \"#utility.yul\":2433:2437   */\n      0x20\n        /* \"#utility.yul\":2427:2431   */\n      dup2\n        /* \"#utility.yul\":2423:2438   */\n      add\n        /* \"#utility.yul\":2415:2438   */\n      swap1\n      pop\n        /* \"#utility.yul\":2138:2445   */\n      swap2\n      swap1\n      pop\n      jump\t// out\n        /* \"#utility.yul\":2451:2597   */\n    tag_227:\n        /* \"#utility.yul\":2548:2554   */\n      dup3\n        /* \"#utility.yul\":2543:2546   */\n      dup2\n        /* \"#utility.yul\":2538:2541   */\n      dup4\n        /* \"#utility.yul\":2525:2555   */\n      calldatacopy\n        /* \"#utility.yul\":2589:2590   */\n      0x00\n        /* \"#utility.yul\":2580:2586   */\n      dup4\n        /* \"#utility.yul\":2575:2578   */\n      dup4\n        /* \"#utility.yul\":2571:2587   */\n      add\n        /* \"#utility.yul\":2564:2591   */\n      mstore\n        /* \"#utility.yul\":2451:2597   */\n      pop\n      pop\n      pop\n      jump\t// out\n        /* \"#utility.yul\":2603:3026   */\n    tag_228:\n        /* \"#utility.yul\":2680:2685   */\n      0x00\n        /* \"#utility.yul\":2705:2770   */\n      tag_307\n        /* \"#utility.yul\":2721:2769   */\n      tag_308\n        /* \"#utility.yul\":2762:2768   */\n      dup5\n        /* \"#utility.yul\":2721:2769   */\n      tag_226\n      jump\t// in\n    tag_308:\n        /* \"#utility.yul\":2705:2770   */\n      tag_225\n      jump\t// in\n    tag_307:\n        /* \"#utility.yul\":2696:2770   */\n      swap1\n      pop\n        /* \"#utility.yul\":2793:2799   */\n      dup3\n        /* \"#utility.yul\":2786:2791   */\n      dup2\n        /* \"#utility.yul\":2779:2800   */\n      mstore\n        /* \"#utility.yul\":2831:2835   */\n      0x20\n        /* \"#utility.yul\":2824:2829   */\n      dup2\n        /* \"#utility.yul\":2820:2836   */\n      add\n        /* \"#utility.yul\":2869:2872   */\n      dup5\n        /* \"#utility.yul\":2860:2866   */\n      dup5\n        /* \"#utility.yul\":2855:2858   */\n      dup5\n        /* \"#utility.yul\":2851:2867   */\n      add\n        /* \"#utility.yul\":2848:2873   */\n      gt\n        /* \"#utility.yul\":2845:2957   */\n      iszero\n      tag_309\n      jumpi\n        /* \"#utility.yul\":2876:2955   */\n      tag_310\n      tag_222\n      jump\t// in\n    tag_310:\n        /* \"#utility.yul\":2845:2957   */\n    tag_309:\n        /* \"#utility.yul\":2966:3020   */\n      tag_311\n        /* \"#utility.yul\":3013:3019   */\n      dup5\n        /* \"#utility.yul\":3008:3011   */\n      dup3\n        /* \"#utility.yul\":3003:3006   */\n      dup6\n        /* \"#utility.yul\":2966:3020   */\n      tag_227\n      jump\t// in\n    tag_311:\n        /* \"#utility.yul\":2686:3026   */\n      pop\n        /* \"#utility.yul\":2603:3026   */\n      swap4\n      swap3\n      pop\n      pop\n      pop\n      jump\t// out\n        /* \"#utility.yul\":3045:3383   */\n    tag_229:\n        /* \"#utility.yul\":3100:3105   */\n      0x00\n        /* \"#utility.yul\":3149:3152   */\n      dup3\n        /* \"#utility.yul\":3142:3146   */\n      0x1f\n        /* \"#utility.yul\":3134:3140   */\n      dup4\n        /* \"#utility.yul\":3130:3147   */\n      add\n        /* \"#utility.yul\":3126:3153   */\n      slt\n        /* \"#utility.yul\":3116:3238   */\n      tag_313\n      jumpi\n        /* \"#utility.yul\":3157:3236   */\n      tag_314\n      tag_221\n      jump\t// in\n    tag_314:\n        /* \"#utility.yul\":3116:3238   */\n    tag_313:\n        /* \"#utility.yul\":3274:3280   */\n      dup2\n        /* \"#utility.yul\":3261:3281   */\n      calldataload\n        /* \"#utility.yul\":3299:3377   */\n      tag_315\n        /* \"#utility.yul\":3373:3376   */\n      dup5\n        /* \"#utility.yul\":3365:3371   */\n      dup3\n        /* \"#utility.yul\":3358:3362   */\n      0x20\n        /* \"#utility.yul\":3350:3356   */\n      dup7\n        /* \"#utility.yul\":3346:3363   */\n      add\n        /* \"#utility.yul\":3299:3377   */\n      tag_228\n      jump\t// in\n    tag_315:\n        /* \"#utility.yul\":3290:3377   */\n      swap2\n      pop\n        /* \"#utility.yul\":3106:3383   */\n      pop\n        /* \"#utility.yul\":3045:3383   */\n      swap3\n      swap2\n      pop\n      pop\n      jump\t// out\n        /* \"#utility.yul\":3389:4041   */\n    tag_20:\n        /* \"#utility.yul\":3466:3472   */\n      0x00\n        /* \"#utility.yul\":3474:3480   */\n      dup1\n        /* \"#utility.yul\":3523:3525   */\n      0x40\n        /* \"#utility.yul\":3511:3520   */\n      dup4\n        /* \"#utility.yul\":3502:3509   */\n      dup6\n        /* \"#utility.yul\":3498:3521   */\n      sub\n        /* \"#utility.yul\":3494:3526   */\n      slt\n        /* \"#utility.yul\":3491:3610   */\n      iszero\n      tag_317\n      jumpi\n        /* \"#utility.yul\":3529:3608   */\n      tag_318\n      tag_215\n      jump\t// in\n    tag_318:\n        /* \"#utility.yul\":3491:3610   */\n    tag_317:\n        /* \"#utility.yul\":3649:3650   */\n      0x00\n        /* \"#utility.yul\":3674:3727   */\n      tag_319\n        /* \"#utility.yul\":3719:3726   */\n      dup6\n        /* \"#utility.yul\":3710:3716   */\n      dup3\n        /* \"#utility.yul\":3699:3708   */\n      dup7\n        /* \"#utility.yul\":3695:3717   */\n      add\n        /* \"#utility.yul\":3674:3727   */\n      tag_220\n      jump\t// in\n    tag_319:\n        /* \"#utility.yul\":3664:3727   */\n      swap3\n      pop\n        /* \"#utility.yul\":3620:3737   */\n      pop\n        /* \"#utility.yul\":3804:3806   */\n      0x20\n        /* \"#utility.yul\":3793:3802   */\n      dup4\n        /* \"#utility.yul\":3789:3807   */\n      add\n        /* \"#utility.yul\":3776:3808   */\n      calldataload\n        /* \"#utility.yul\":3835:3853   */\n      0xffffffffffffffff\n        /* \"#utility.yul\":3827:3833   */\n      dup2\n        /* \"#utility.yul\":3824:3854   */\n      gt\n        /* \"#utility.yul\":3821:3938   */\n      iszero\n      tag_320\n      jumpi\n        /* \"#utility.yul\":3857:3936   */\n      tag_321\n      tag_216\n      jump\t// in\n    tag_321:\n        /* \"#utility.yul\":3821:3938   */\n    tag_320:\n        /* \"#utility.yul\":3962:4024   */\n      tag_322\n        /* \"#utility.yul\":4016:4023   */\n      dup6\n        /* \"#utility.yul\":4007:4013   */\n      dup3\n        /* \"#utility.yul\":3996:4005   */\n      dup7\n        /* \"#utility.yul\":3992:4014   */\n      add\n        /* \"#utility.yul\":3962:4024   */\n      tag_229\n      jump\t// in\n    tag_322:\n        /* \"#utility.yul\":3952:4024   */\n      swap2\n      pop\n        /* \"#utility.yul\":3747:4034   */\n      pop\n        /* \"#utility.yul\":3389:4041   */\n      swap3\n      pop\n      swap3\n      swap1\n      pop\n      jump\t// out\n        /* \"#utility.yul\":4047:4124   */\n    tag_230:\n        /* \"#utility.yul\":4084:4091   */\n      0x00\n        /* \"#utility.yul\":4113:4118   */\n      dup2\n        /* \"#utility.yul\":4102:4118   */\n      swap1\n      pop\n        /* \"#utility.yul\":4047:4124   */\n      swap2\n      swap1\n      pop\n      jump\t// out\n        /* \"#utility.yul\":4130:4248   */\n    tag_231:\n        /* \"#utility.yul\":4217:4241   */\n      tag_325\n        /* \"#utility.yul\":4235:4240   */\n      dup2\n        /* \"#utility.yul\":4217:4241   */\n      tag_230\n      jump\t// in\n    tag_325:\n        /* \"#utility.yul\":4212:4215   */\n      dup3\n        /* \"#utility.yul\":4205:4242   */\n      mstore\n        /* \"#utility.yul\":4130:4248   */\n      pop\n      pop\n      jump\t// out\n        /* \"#utility.yul\":4254:4476   */\n    tag_26:\n        /* \"#utility.yul\":4347:4351   */\n      0x00\n        /* \"#utility.yul\":4385:4387   */\n      0x20\n        /* \"#utility.yul\":4374:4383   */\n      dup3\n        /* \"#utility.yul\":4370:4388   */\n      add\n        /* \"#utility.yul\":4362:4388   */\n      swap1\n      pop\n        /* \"#utility.yul\":4398:4469   */\n      tag_327\n        /* \"#utility.yul\":4466:4467   */\n      0x00\n        /* \"#utility.yul\":4455:4464   */\n      dup4\n        /* \"#utility.yul\":4451:4468   */\n      add\n        /* \"#utility.yul\":4442:4448   */\n      dup5\n        /* \"#utility.yul\":4398:4469   */\n      tag_231\n      jump\t// in\n    tag_327:\n        /* \"#utility.yul\":4254:4476   */\n      swap3\n      swap2\n      pop\n      pop\n      jump\t// out\n        /* \"#utility.yul\":4482:4559   */\n    tag_232:\n        /* \"#utility.yul\":4519:4526   */\n      0x00\n        /* \"#utility.yul\":4548:4553   */\n      dup2\n        /* \"#utility.yul\":4537:4553   */\n      swap1\n      pop\n        /* \"#utility.yul\":4482:4559   */\n      swap2\n      swap1\n      pop\n      jump\t// out\n        /* \"#utility.yul\":4565:4687   */\n    tag_233:\n        /* \"#utility.yul\":4638:4662   */\n      tag_330\n        /* \"#utility.yul\":4656:4661   */\n      dup2\n        /* \"#utility.yul\":4638:4662   */\n      tag_232\n      jump\t// in\n    tag_330:\n        /* \"#utility.yul\":4631:4636   */\n      dup2\n        /* \"#utility.yul\":4628:4663   */\n      eq\n        /* \"#utility.yul\":4618:4681   */\n      tag_331\n      jumpi\n        /* \"#utility.yul\":4677:4678   */\n      0x00\n        /* \"#utility.yul\":4674:4675   */\n      dup1\n        /* \"#utility.yul\":4667:4679   */\n      revert\n        /* \"#utility.yul\":4618:4681   */\n    tag_331:\n        /* \"#utility.yul\":4565:4687   */\n      pop\n      jump\t// out\n        /* \"#utility.yul\":4693:4832   */\n    tag_234:\n        /* \"#utility.yul\":4739:4744   */\n      0x00\n        /* \"#utility.yul\":4777:4783   */\n      dup2\n        /* \"#utility.yul\":4764:4784   */\n      calldataload\n        /* \"#utility.yul\":4755:4784   */\n      swap1\n      pop\n        /* \"#utility.yul\":4793:4826   */\n      tag_333\n        /* \"#utility.yul\":4820:4825   */\n      dup2\n        /* \"#utility.yul\":4793:4826   */\n      tag_233\n      jump\t// in\n    tag_333:\n        /* \"#utility.yul\":4693:4832   */\n      swap3\n      swap2\n      pop\n      pop\n      jump\t// out\n        /* \"#utility.yul\":4838:5167   */\n    tag_30:\n        /* \"#utility.yul\":4897:4903   */\n      0x00\n        /* \"#utility.yul\":4946:4948   */\n      0x20\n        /* \"#utility.yul\":4934:4943   */\n      dup3\n        /* \"#utility.yul\":4925:4932   */\n      dup5\n        /* \"#utility.yul\":4921:4944   */\n      sub\n        /* \"#utility.yul\":4917:4949   */\n      slt\n        /* \"#utility.yul\":4914:5033   */\n      iszero\n      tag_335\n      jumpi\n        /* \"#utility.yul\":4952:5031   */\n      tag_336\n      tag_215\n      jump\t// in\n    tag_336:\n        /* \"#utility.yul\":4914:5033   */\n    tag_335:\n        /* \"#utility.yul\":5072:5073   */\n      0x00\n        /* \"#utility.yul\":5097:5150   */\n      tag_337\n        /* \"#utility.yul\":5142:5149   */\n      dup5\n        /* \"#utility.yul\":5133:5139   */\n      dup3\n        /* \"#utility.yul\":5122:5131   */\n      dup6\n        /* \"#utility.yul\":5118:5140   */\n      add\n        /* \"#utility.yul\":5097:5150   */\n      tag_234\n      jump\t// in\n    tag_337:\n        /* \"#utility.yul\":5087:5150   */\n      swap2\n      pop\n        /* \"#utility.yul\":5043:5160   */\n      pop\n        /* \"#utility.yul\":4838:5167   */\n      swap3\n      swap2\n      pop\n      pop\n      jump\t// out\n        /* \"#utility.yul\":5173:5291   */\n    tag_235:\n        /* \"#utility.yul\":5260:5284   */\n      tag_339\n        /* \"#utility.yul\":5278:5283   */\n      dup2\n        /* \"#utility.yul\":5260:5284   */\n      tag_232\n      jump\t// in\n    tag_339:\n        /* \"#utility.yul\":5255:5258   */\n      dup3\n        /* \"#utility.yul\":5248:5285   */\n      mstore\n        /* \"#utility.yul\":5173:5291   */\n      pop\n      pop\n      jump\t// out\n        /* \"#utility.yul\":5297:5519   */\n    tag_36:\n        /* \"#utility.yul\":5390:5394   */\n      0x00\n        /* \"#utility.yul\":5428:5430   */\n      0x20\n        /* \"#utility.yul\":5417:5426   */\n      dup3\n        /* \"#utility.yul\":5413:5431   */\n      add\n        /* \"#utility.yul\":5405:5431   */\n      swap1\n      pop\n        /* \"#utility.yul\":5441:5512   */\n      tag_341\n        /* \"#utility.yul\":5509:5510   */\n      0x00\n        /* \"#utility.yul\":5498:5507   */\n      dup4\n        /* \"#utility.yul\":5494:5511   */\n      add\n        /* \"#utility.yul\":5485:5491   */\n      dup5\n        /* \"#utility.yul\":5441:5512   */\n      tag_235\n      jump\t// in\n    tag_341:\n        /* \"#utility.yul\":5297:5519   */\n      swap3\n      swap2\n      pop\n      pop\n      jump\t// out\n        /* \"#utility.yul\":5525:5643   */\n    tag_236:\n        /* \"#utility.yul\":5612:5636   */\n      tag_343\n        /* \"#utility.yul\":5630:5635   */\n      dup2\n        /* \"#utility.yul\":5612:5636   */\n      tag_218\n      jump\t// in\n    tag_343:\n        /* \"#utility.yul\":5607:5610   */\n      dup3\n        /* \"#utility.yul\":5600:5637   */\n      mstore\n        /* \"#utility.yul\":5525:5643   */\n      pop\n      pop\n      jump\t// out\n        /* \"#utility.yul\":5649:5871   */\n    tag_47:\n        /* \"#utility.yul\":5742:5746   */\n      0x00\n        /* \"#utility.yul\":5780:5782   */\n      0x20\n        /* \"#utility.yul\":5769:5778   */\n      dup3\n        /* \"#utility.yul\":5765:5783   */\n      add\n        /* \"#utility.yul\":5757:5783   */\n      swap1\n      pop\n        /* \"#utility.yul\":5793:5864   */\n      tag_345\n        /* \"#utility.yul\":5861:5862   */\n      0x00\n        /* \"#utility.yul\":5850:5859   */\n      dup4\n        /* \"#utility.yul\":5846:5863   */\n      add\n        /* \"#utility.yul\":5837:5843   */\n      dup5\n        /* \"#utility.yul\":5793:5864   */\n      tag_236\n      jump\t// in\n    tag_345:\n        /* \"#utility.yul\":5649:5871   */\n      swap3\n      swap2\n      pop\n      pop\n      jump\t// out\n        /* \"#utility.yul\":5877:6046   */\n    tag_237:\n        /* \"#utility.yul\":5961:5972   */\n      0x00\n        /* \"#utility.yul\":5995:6001   */\n      dup3\n        /* \"#utility.yul\":5990:5993   */\n      dup3\n        /* \"#utility.yul\":5983:6002   */\n      mstore\n        /* \"#utility.yul\":6035:6039   */\n      0x20\n        /* \"#utility.yul\":6030:6033   */\n      dup3\n        /* \"#utility.yul\":6026:6040   */\n      add\n        /* \"#utility.yul\":6011:6040   */\n      swap1\n      pop\n        /* \"#utility.yul\":5877:6046   */\n      swap3\n      swap2\n      pop\n      pop\n      jump\t// out\n        /* \"#utility.yul\":6052:6283   */\n    tag_238:\n        /* \"#utility.yul\":6192:6226   */\n      0x46756e6374696f6e206d7573742062652063616c6c6564207468726f75676820\n        /* \"#utility.yul\":6188:6189   */\n      0x00\n        /* \"#utility.yul\":6180:6186   */\n      dup3\n        /* \"#utility.yul\":6176:6190   */\n      add\n        /* \"#utility.yul\":6169:6227   */\n      mstore\n        /* \"#utility.yul\":6261:6275   */\n      0x64656c656761746563616c6c0000000000000000000000000000000000000000\n        /* \"#utility.yul\":6256:6258   */\n      0x20\n        /* \"#utility.yul\":6248:6254   */\n      dup3\n        /* \"#utility.yul\":6244:6259   */\n      add\n        /* \"#utility.yul\":6237:6276   */\n      mstore\n        /* \"#utility.yul\":6052:6283   */\n      pop\n      jump\t// out\n        /* \"#utility.yul\":6289:6655   */\n    tag_239:\n        /* \"#utility.yul\":6431:6434   */\n      0x00\n        /* \"#utility.yul\":6452:6519   */\n      tag_349\n        /* \"#utility.yul\":6516:6518   */\n      0x2c\n        /* \"#utility.yul\":6511:6514   */\n      dup4\n        /* \"#utility.yul\":6452:6519   */\n      tag_237\n      jump\t// in\n    tag_349:\n        /* \"#utility.yul\":6445:6519   */\n      swap2\n      pop\n        /* \"#utility.yul\":6528:6621   */\n      tag_350\n        /* \"#utility.yul\":6617:6620   */\n      dup3\n        /* \"#utility.yul\":6528:6621   */\n      tag_238\n      jump\t// in\n    tag_350:\n        /* \"#utility.yul\":6646:6648   */\n      0x40\n        /* \"#utility.yul\":6641:6644   */\n      dup3\n        /* \"#utility.yul\":6637:6649   */\n      add\n        /* \"#utility.yul\":6630:6649   */\n      swap1\n      pop\n        /* \"#utility.yul\":6289:6655   */\n      swap2\n      swap1\n      pop\n      jump\t// out\n        /* \"#utility.yul\":6661:7080   */\n    tag_58:\n        /* \"#utility.yul\":6827:6831   */\n      0x00\n        /* \"#utility.yul\":6865:6867   */\n      0x20\n        /* \"#utility.yul\":6854:6863   */\n      dup3\n        /* \"#utility.yul\":6850:6868   */\n      add\n        /* \"#utility.yul\":6842:6868   */\n      swap1\n      pop\n        /* \"#utility.yul\":6914:6923   */\n      dup2\n        /* \"#utility.yul\":6908:6912   */\n      dup2\n        /* \"#utility.yul\":6904:6924   */\n      sub\n        /* \"#utility.yul\":6900:6901   */\n      0x00\n        /* \"#utility.yul\":6889:6898   */\n      dup4\n        /* \"#utility.yul\":6885:6902   */\n      add\n        /* \"#utility.yul\":6878:6925   */\n      mstore\n        /* \"#utility.yul\":6942:7073   */\n      tag_352\n        /* \"#utility.yul\":7068:7072   */\n      dup2\n        /* \"#utility.yul\":6942:7073   */\n      tag_239\n      jump\t// in\n    tag_352:\n        /* \"#utility.yul\":6934:7073   */\n      swap1\n      pop\n        /* \"#utility.yul\":6661:7080   */\n      swap2\n      swap1\n      pop\n      jump\t// out\n        /* \"#utility.yul\":7086:7317   */\n    tag_240:\n        /* \"#utility.yul\":7226:7260   */\n      0x46756e6374696f6e206d7573742062652063616c6c6564207468726f75676820\n        /* \"#utility.yul\":7222:7223   */\n      0x00\n        /* \"#utility.yul\":7214:7220   */\n      dup3\n        /* \"#utility.yul\":7210:7224   */\n      add\n        /* \"#utility.yul\":7203:7261   */\n      mstore\n        /* \"#utility.yul\":7295:7309   */\n      0x6163746976652070726f78790000000000000000000000000000000000000000\n        /* \"#utility.yul\":7290:7292   */\n      0x20\n        /* \"#utility.yul\":7282:7288   */\n      dup3\n        /* \"#utility.yul\":7278:7293   */\n      add\n        /* \"#utility.yul\":7271:7310   */\n      mstore\n        /* \"#utility.yul\":7086:7317   */\n      pop\n      jump\t// out\n        /* \"#utility.yul\":7323:7689   */\n    tag_241:\n        /* \"#utility.yul\":7465:7468   */\n      0x00\n        /* \"#utility.yul\":7486:7553   */\n      tag_355\n        /* \"#utility.yul\":7550:7552   */\n      0x2c\n        /* \"#utility.yul\":7545:7548   */\n      dup4\n        /* \"#utility.yul\":7486:7553   */\n      tag_237\n      jump\t// in\n    tag_355:\n        /* \"#utility.yul\":7479:7553   */\n      swap2\n      pop\n        /* \"#utility.yul\":7562:7655   */\n      tag_356\n        /* \"#utility.yul\":7651:7654   */\n      dup3\n        /* \"#utility.yul\":7562:7655   */\n      tag_240\n      jump\t// in\n    tag_356:\n        /* \"#utility.yul\":7680:7682   */\n      0x40\n        /* \"#utility.yul\":7675:7678   */\n      dup3\n        /* \"#utility.yul\":7671:7683   */\n      add\n        /* \"#utility.yul\":7664:7683   */\n      swap1\n      pop\n        /* \"#utility.yul\":7323:7689   */\n      swap2\n      swap1\n      pop\n      jump\t// out\n        /* \"#utility.yul\":7695:8114   */\n    tag_63:\n        /* \"#utility.yul\":7861:7865   */\n      0x00\n        /* \"#utility.yul\":7899:7901   */\n      0x20\n        /* \"#utility.yul\":7888:7897   */\n      dup3\n        /* \"#utility.yul\":7884:7902   */\n      add\n        /* \"#utility.yul\":7876:7902   */\n      swap1\n      pop\n        /* \"#utility.yul\":7948:7957   */\n      dup2\n        /* \"#utility.yul\":7942:7946   */\n      dup2\n        /* \"#utility.yul\":7938:7958   */\n      sub\n        /* \"#utility.yul\":7934:7935   */\n      0x00\n        /* \"#utility.yul\":7923:7932   */\n      dup4\n        /* \"#utility.yul\":7919:7936   */\n      add\n        /* \"#utility.yul\":7912:7959   */\n      mstore\n        /* \"#utility.yul\":7976:8107   */\n      tag_358\n        /* \"#utility.yul\":8102:8106   */\n      dup2\n        /* \"#utility.yul\":7976:8107   */\n      tag_241\n      jump\t// in\n    tag_358:\n        /* \"#utility.yul\":7968:8107   */\n      swap1\n      pop\n        /* \"#utility.yul\":7695:8114   */\n      swap2\n      swap1\n      pop\n      jump\t// out\n        /* \"#utility.yul\":8120:8363   */\n    tag_242:\n        /* \"#utility.yul\":8260:8294   */\n      0x555550535570677261646561626c653a206d757374206e6f742062652063616c\n        /* \"#utility.yul\":8256:8257   */\n      0x00\n        /* \"#utility.yul\":8248:8254   */\n      dup3\n        /* \"#utility.yul\":8244:8258   */\n      add\n        /* \"#utility.yul\":8237:8295   */\n      mstore\n        /* \"#utility.yul\":8329:8355   */\n      0x6c6564207468726f7567682064656c656761746563616c6c0000000000000000\n        /* \"#utility.yul\":8324:8326   */\n      0x20\n        /* \"#utility.yul\":8316:8322   */\n      dup3\n        /* \"#utility.yul\":8312:8327   */\n      add\n        /* \"#utility.yul\":8305:8356   */\n      mstore\n        /* \"#utility.yul\":8120:8363   */\n      pop\n      jump\t// out\n        /* \"#utility.yul\":8369:8735   */\n    tag_243:\n        /* \"#utility.yul\":8511:8514   */\n      0x00\n        /* \"#utility.yul\":8532:8599   */\n      tag_361\n        /* \"#utility.yul\":8596:8598   */\n      0x38\n        /* \"#utility.yul\":8591:8594   */\n      dup4\n        /* \"#utility.yul\":8532:8599   */\n      tag_237\n      jump\t// in\n    tag_361:\n        /* \"#utility.yul\":8525:8599   */\n      swap2\n      pop\n        /* \"#utility.yul\":8608:8701   */\n      tag_362\n        /* \"#utility.yul\":8697:8700   */\n      dup3\n        /* \"#utility.yul\":8608:8701   */\n      tag_242\n      jump\t// in\n    tag_362:\n        /* \"#utility.yul\":8726:8728   */\n      0x40\n        /* \"#utility.yul\":8721:8724   */\n      dup3\n        /* \"#utility.yul\":8717:8729   */\n      add\n        /* \"#utility.yul\":8710:8729   */\n      swap1\n      pop\n        /* \"#utility.yul\":8369:8735   */\n      swap2\n      swap1\n      pop\n      jump\t// out\n        /* \"#utility.yul\":8741:9160   */\n    tag_85:\n        /* \"#utility.yul\":8907:8911   */\n      0x00\n        /* \"#utility.yul\":8945:8947   */\n      0x20\n        /* \"#utility.yul\":8934:8943   */\n      dup3\n        /* \"#utility.yul\":8930:8948   */\n      add\n        /* \"#utility.yul\":8922:8948   */\n      swap1\n      pop\n        /* \"#utility.yul\":8994:9003   */\n      dup2\n        /* \"#utility.yul\":8988:8992   */\n      dup2\n        /* \"#utility.yul\":8984:9004   */\n      sub\n        /* \"#utility.yul\":8980:8981   */\n      0x00\n        /* \"#utility.yul\":8969:8978   */\n      dup4\n        /* \"#utility.yul\":8965:8982   */\n      add\n        /* \"#utility.yul\":8958:9005   */\n      mstore\n        /* \"#utility.yul\":9022:9153   */\n      tag_364\n        /* \"#utility.yul\":9148:9152   */\n      dup2\n        /* \"#utility.yul\":9022:9153   */\n      tag_243\n      jump\t// in\n    tag_364:\n        /* \"#utility.yul\":9014:9153   */\n      swap1\n      pop\n        /* \"#utility.yul\":8741:9160   */\n      swap2\n      swap1\n      pop\n      jump\t// out\n        /* \"#utility.yul\":9166:9399   */\n    tag_244:\n        /* \"#utility.yul\":9306:9340   */\n      0x496e697469616c697a61626c653a20636f6e747261637420697320616c726561\n        /* \"#utility.yul\":9302:9303   */\n      0x00\n        /* \"#utility.yul\":9294:9300   */\n      dup3\n        /* \"#utility.yul\":9290:9304   */\n      add\n        /* \"#utility.yul\":9283:9341   */\n      mstore\n        /* \"#utility.yul\":9375:9391   */\n      0x647920696e697469616c697a6564000000000000000000000000000000000000\n        /* \"#utility.yul\":9370:9372   */\n      0x20\n        /* \"#utility.yul\":9362:9368   */\n      dup3\n        /* \"#utility.yul\":9358:9373   */\n      add\n        /* \"#utility.yul\":9351:9392   */\n      mstore\n        /* \"#utility.yul\":9166:9399   */\n      pop\n      jump\t// out\n        /* \"#utility.yul\":9405:9771   */\n    tag_245:\n        /* \"#utility.yul\":9547:9550   */\n      0x00\n        /* \"#utility.yul\":9568:9635   */\n      tag_367\n        /* \"#utility.yul\":9632:9634   */\n      0x2e\n        /* \"#utility.yul\":9627:9630   */\n      dup4\n        /* \"#utility.yul\":9568:9635   */\n      tag_237\n      jump\t// in\n    tag_367:\n        /* \"#utility.yul\":9561:9635   */\n      swap2\n      pop\n        /* \"#utility.yul\":9644:9737   */\n      tag_368\n        /* \"#utility.yul\":9733:9736   */\n      dup3\n        /* \"#utility.yul\":9644:9737   */\n      tag_244\n      jump\t// in\n    tag_368:\n        /* \"#utility.yul\":9762:9764   */\n      0x40\n        /* \"#utility.yul\":9757:9760   */\n      dup3\n        /* \"#utility.yul\":9753:9765   */\n      add\n        /* \"#utility.yul\":9746:9765   */\n      swap1\n      pop\n        /* \"#utility.yul\":9405:9771   */\n      swap2\n      swap1\n      pop\n      jump\t// out\n        /* \"#utility.yul\":9777:10196   */\n    tag_104:\n        /* \"#utility.yul\":9943:9947   */\n      0x00\n        /* \"#utility.yul\":9981:9983   */\n      0x20\n        /* \"#utility.yul\":9970:9979   */\n      dup3\n        /* \"#utility.yul\":9966:9984   */\n      add\n        /* \"#utility.yul\":9958:9984   */\n      swap1\n      pop\n        /* \"#utility.yul\":10030:10039   */\n      dup2\n        /* \"#utility.yul\":10024:10028   */\n      dup2\n        /* \"#utility.yul\":10020:10040   */\n      sub\n        /* \"#utility.yul\":10016:10017   */\n      0x00\n        /* \"#utility.yul\":10005:10014   */\n      dup4\n        /* \"#utility.yul\":10001:10018   */\n      add\n        /* \"#utility.yul\":9994:10041   */\n      mstore\n        /* \"#utility.yul\":10058:10189   */\n      tag_370\n        /* \"#utility.yul\":10184:10188   */\n      dup2\n        /* \"#utility.yul\":10058:10189   */\n      tag_245\n      jump\t// in\n    tag_370:\n        /* \"#utility.yul\":10050:10189   */\n      swap1\n      pop\n        /* \"#utility.yul\":9777:10196   */\n      swap2\n      swap1\n      pop\n      jump\t// out\n        /* \"#utility.yul\":10202:10287   */\n    tag_246:\n        /* \"#utility.yul\":10247:10254   */\n      0x00\n        /* \"#utility.yul\":10276:10281   */\n      dup2\n        /* \"#utility.yul\":10265:10281   */\n      swap1\n      pop\n        /* \"#utility.yul\":10202:10287   */\n      swap2\n      swap1\n      pop\n      jump\t// out\n        /* \"#utility.yul\":10293:10379   */\n    tag_247:\n        /* \"#utility.yul\":10328:10335   */\n      0x00\n        /* \"#utility.yul\":10368:10372   */\n      0xff\n        /* \"#utility.yul\":10361:10366   */\n      dup3\n        /* \"#utility.yul\":10357:10373   */\n      and\n        /* \"#utility.yul\":10346:10373   */\n      swap1\n      pop\n        /* \"#utility.yul\":10293:10379   */\n      swap2\n      swap1\n      pop\n      jump\t// out\n        /* \"#utility.yul\":10385:10445   */\n    tag_248:\n        /* \"#utility.yul\":10413:10416   */\n      0x00\n        /* \"#utility.yul\":10434:10439   */\n      dup2\n        /* \"#utility.yul\":10427:10439   */\n      swap1\n      pop\n        /* \"#utility.yul\":10385:10445   */\n      swap2\n      swap1\n      pop\n      jump\t// out\n        /* \"#utility.yul\":10451:10605   */\n    tag_249:\n        /* \"#utility.yul\":10507:10516   */\n      0x00\n        /* \"#utility.yul\":10540:10599   */\n      tag_375\n        /* \"#utility.yul\":10556:10598   */\n      tag_376\n        /* \"#utility.yul\":10565:10597   */\n      tag_377\n        /* \"#utility.yul\":10591:10596   */\n      dup5\n        /* \"#utility.yul\":10565:10597   */\n      tag_246\n      jump\t// in\n    tag_377:\n        /* \"#utility.yul\":10556:10598   */\n      tag_248\n      jump\t// in\n    tag_376:\n        /* \"#utility.yul\":10540:10599   */\n      tag_247\n      jump\t// in\n    tag_375:\n        /* \"#utility.yul\":10527:10599   */\n      swap1\n      pop\n        /* \"#utility.yul\":10451:10605   */\n      swap2\n      swap1\n      pop\n      jump\t// out\n        /* \"#utility.yul\":10611:10754   */\n    tag_250:\n        /* \"#utility.yul\":10704:10747   */\n      tag_379\n        /* \"#utility.yul\":10741:10746   */\n      dup2\n        /* \"#utility.yul\":10704:10747   */\n      tag_249\n      jump\t// in\n    tag_379:\n        /* \"#utility.yul\":10699:10702   */\n      dup3\n        /* \"#utility.yul\":10692:10748   */\n      mstore\n        /* \"#utility.yul\":10611:10754   */\n      pop\n      pop\n      jump\t// out\n        /* \"#utility.yul\":10760:10994   */\n    tag_111:\n        /* \"#utility.yul\":10859:10863   */\n      0x00\n        /* \"#utility.yul\":10897:10899   */\n      0x20\n        /* \"#utility.yul\":10886:10895   */\n      dup3\n        /* \"#utility.yul\":10882:10900   */\n      add\n        /* \"#utility.yul\":10874:10900   */\n      swap1\n      pop\n        /* \"#utility.yul\":10910:10987   */\n      tag_381\n        /* \"#utility.yul\":10984:10985   */\n      0x00\n        /* \"#utility.yul\":10973:10982   */\n      dup4\n        /* \"#utility.yul\":10969:10986   */\n      add\n        /* \"#utility.yul\":10960:10966   */\n      dup5\n        /* \"#utility.yul\":10910:10987   */\n      tag_250\n      jump\t// in\n    tag_381:\n        /* \"#utility.yul\":10760:10994   */\n      swap3\n      swap2\n      pop\n      pop\n      jump\t// out\n        /* \"#utility.yul\":11000:11180   */\n    tag_251:\n        /* \"#utility.yul\":11048:11125   */\n      0x4e487b7100000000000000000000000000000000000000000000000000000000\n        /* \"#utility.yul\":11045:11046   */\n      0x00\n        /* \"#utility.yul\":11038:11126   */\n      mstore\n        /* \"#utility.yul\":11145:11149   */\n      0x11\n        /* \"#utility.yul\":11142:11143   */\n      0x04\n        /* \"#utility.yul\":11135:11150   */\n      mstore\n        /* \"#utility.yul\":11169:11173   */\n      0x24\n        /* \"#utility.yul\":11166:11167   */\n      0x00\n        /* \"#utility.yul\":11159:11174   */\n      revert\n        /* \"#utility.yul\":11186:11377   */\n    tag_115:\n        /* \"#utility.yul\":11226:11229   */\n      0x00\n        /* \"#utility.yul\":11245:11265   */\n      tag_384\n        /* \"#utility.yul\":11263:11264   */\n      dup3\n        /* \"#utility.yul\":11245:11265   */\n      tag_232\n      jump\t// in\n    tag_384:\n        /* \"#utility.yul\":11240:11265   */\n      swap2\n      pop\n        /* \"#utility.yul\":11279:11299   */\n      tag_385\n        /* \"#utility.yul\":11297:11298   */\n      dup4\n        /* \"#utility.yul\":11279:11299   */\n      tag_232\n      jump\t// in\n    tag_385:\n        /* \"#utility.yul\":11274:11299   */\n      swap3\n      pop\n        /* \"#utility.yul\":11322:11323   */\n      dup3\n        /* \"#utility.yul\":11319:11320   */\n      dup3\n        /* \"#utility.yul\":11315:11324   */\n      add\n        /* \"#utility.yul\":11308:11324   */\n      swap1\n      pop\n        /* \"#utility.yul\":11343:11346   */\n      dup1\n        /* \"#utility.yul\":11340:11341   */\n      dup3\n        /* \"#utility.yul\":11337:11347   */\n      gt\n        /* \"#utility.yul\":11334:11370   */\n      iszero\n      tag_386\n      jumpi\n        /* \"#utility.yul\":11350:11368   */\n      tag_387\n      tag_251\n      jump\t// in\n    tag_387:\n        /* \"#utility.yul\":11334:11370   */\n    tag_386:\n        /* \"#utility.yul\":11186:11377   */\n      swap3\n      swap2\n      pop\n      pop\n      jump\t// out\n        /* \"#utility.yul\":11383:11608   */\n    tag_252:\n        /* \"#utility.yul\":11523:11557   */\n      0x4f776e61626c653a206e6577206f776e657220697320746865207a65726f2061\n        /* \"#utility.yul\":11519:11520   */\n      0x00\n        /* \"#utility.yul\":11511:11517   */\n      dup3\n        /* \"#utility.yul\":11507:11521   */\n      add\n        /* \"#utility.yul\":11500:11558   */\n      mstore\n        /* \"#utility.yul\":11592:11600   */\n      0x6464726573730000000000000000000000000000000000000000000000000000\n        /* \"#utility.yul\":11587:11589   */\n      0x20\n        /* \"#utility.yul\":11579:11585   */\n      dup3\n        /* \"#utility.yul\":11575:11590   */\n      add\n        /* \"#utility.yul\":11568:11601   */\n      mstore\n        /* \"#utility.yul\":11383:11608   */\n      pop\n      jump\t// out\n        /* \"#utility.yul\":11614:11980   */\n    tag_253:\n        /* \"#utility.yul\":11756:11759   */\n      0x00\n        /* \"#utility.yul\":11777:11844   */\n      tag_390\n        /* \"#utility.yul\":11841:11843   */\n      0x26\n        /* \"#utility.yul\":11836:11839   */\n      dup4\n        /* \"#utility.yul\":11777:11844   */\n      tag_237\n      jump\t// in\n    tag_390:\n        /* \"#utility.yul\":11770:11844   */\n      swap2\n      pop\n        /* \"#utility.yul\":11853:11946   */\n      tag_391\n        /* \"#utility.yul\":11942:11945   */\n      dup3\n        /* \"#utility.yul\":11853:11946   */\n      tag_252\n      jump\t// in\n    tag_391:\n        /* \"#utility.yul\":11971:11973   */\n      0x40\n        /* \"#utility.yul\":11966:11969   */\n      dup3\n        /* \"#utility.yul\":11962:11974   */\n      add\n        /* \"#utility.yul\":11955:11974   */\n      swap1\n      pop\n        /* \"#utility.yul\":11614:11980   */\n      swap2\n      swap1\n      pop\n      jump\t// out\n        /* \"#utility.yul\":11986:12405   */\n    tag_122:\n        /* \"#utility.yul\":12152:12156   */\n      0x00\n        /* \"#utility.yul\":12190:12192   */\n      0x20\n        /* \"#utility.yul\":12179:12188   */\n      dup3\n        /* \"#utility.yul\":12175:12193   */\n      add\n        /* \"#utility.yul\":12167:12193   */\n      swap1\n      pop\n        /* \"#utility.yul\":12239:12248   */\n      dup2\n        /* \"#utility.yul\":12233:12237   */\n      dup2\n        /* \"#utility.yul\":12229:12249   */\n      sub\n        /* \"#utility.yul\":12225:12226   */\n      0x00\n        /* \"#utility.yul\":12214:12223   */\n      dup4\n        /* \"#utility.yul\":12210:12227   */\n      add\n        /* \"#utility.yul\":12203:12250   */\n      mstore\n        /* \"#utility.yul\":12267:12398   */\n      tag_393\n        /* \"#utility.yul\":12393:12397   */\n      dup2\n        /* \"#utility.yul\":12267:12398   */\n      tag_253\n      jump\t// in\n    tag_393:\n        /* \"#utility.yul\":12259:12398   */\n      swap1\n      pop\n        /* \"#utility.yul\":11986:12405   */\n      swap2\n      swap1\n      pop\n      jump\t// out\n        /* \"#utility.yul\":12411:12533   */\n    tag_254:\n        /* \"#utility.yul\":12484:12508   */\n      tag_395\n        /* \"#utility.yul\":12502:12507   */\n      dup2\n        /* \"#utility.yul\":12484:12508   */\n      tag_230\n      jump\t// in\n    tag_395:\n        /* \"#utility.yul\":12477:12482   */\n      dup2\n        /* \"#utility.yul\":12474:12509   */\n      eq\n        /* \"#utility.yul\":12464:12527   */\n      tag_396\n      jumpi\n        /* \"#utility.yul\":12523:12524   */\n      0x00\n        /* \"#utility.yul\":12520:12521   */\n      dup1\n        /* \"#utility.yul\":12513:12525   */\n      revert\n        /* \"#utility.yul\":12464:12527   */\n    tag_396:\n        /* \"#utility.yul\":12411:12533   */\n      pop\n      jump\t// out\n        /* \"#utility.yul\":12539:12682   */\n    tag_255:\n        /* \"#utility.yul\":12596:12601   */\n      0x00\n        /* \"#utility.yul\":12627:12633   */\n      dup2\n        /* \"#utility.yul\":12621:12634   */\n      mload\n        /* \"#utility.yul\":12612:12634   */\n      swap1\n      pop\n        /* \"#utility.yul\":12643:12676   */\n      tag_398\n        /* \"#utility.yul\":12670:12675   */\n      dup2\n        /* \"#utility.yul\":12643:12676   */\n      tag_254\n      jump\t// in\n    tag_398:\n        /* \"#utility.yul\":12539:12682   */\n      swap3\n      swap2\n      pop\n      pop\n      jump\t// out\n        /* \"#utility.yul\":12688:13039   */\n    tag_139:\n        /* \"#utility.yul\":12758:12764   */\n      0x00\n        /* \"#utility.yul\":12807:12809   */\n      0x20\n        /* \"#utility.yul\":12795:12804   */\n      dup3\n        /* \"#utility.yul\":12786:12793   */\n      dup5\n        /* \"#utility.yul\":12782:12805   */\n      sub\n        /* \"#utility.yul\":12778:12810   */\n      slt\n        /* \"#utility.yul\":12775:12894   */\n      iszero\n      tag_400\n      jumpi\n        /* \"#utility.yul\":12813:12892   */\n      tag_401\n      tag_215\n      jump\t// in\n    tag_401:\n        /* \"#utility.yul\":12775:12894   */\n    tag_400:\n        /* \"#utility.yul\":12933:12934   */\n      0x00\n        /* \"#utility.yul\":12958:13022   */\n      tag_402\n        /* \"#utility.yul\":13014:13021   */\n      dup5\n        /* \"#utility.yul\":13005:13011   */\n      dup3\n        /* \"#utility.yul\":12994:13003   */\n      dup6\n        /* \"#utility.yul\":12990:13012   */\n      add\n        /* \"#utility.yul\":12958:13022   */\n      tag_255\n      jump\t// in\n    tag_402:\n        /* \"#utility.yul\":12948:13022   */\n      swap2\n      pop\n        /* \"#utility.yul\":12904:13032   */\n      pop\n        /* \"#utility.yul\":12688:13039   */\n      swap3\n      swap2\n      pop\n      pop\n      jump\t// out\n        /* \"#utility.yul\":13045:13278   */\n    tag_256:\n        /* \"#utility.yul\":13185:13219   */\n      0x45524331393637557067726164653a206e657720696d706c656d656e74617469\n        /* \"#utility.yul\":13181:13182   */\n      0x00\n        /* \"#utility.yul\":13173:13179   */\n      dup3\n        /* \"#utility.yul\":13169:13183   */\n      add\n        /* \"#utility.yul\":13162:13220   */\n      mstore\n        /* \"#utility.yul\":13254:13270   */\n      0x6f6e206973206e6f742055555053000000000000000000000000000000000000\n        /* \"#utility.yul\":13249:13251   */\n      0x20\n        /* \"#utility.yul\":13241:13247   */\n      dup3\n        /* \"#utility.yul\":13237:13252   */\n      add\n        /* \"#utility.yul\":13230:13271   */\n      mstore\n        /* \"#utility.yul\":13045:13278   */\n      pop\n      jump\t// out\n        /* \"#utility.yul\":13284:13650   */\n    tag_257:\n        /* \"#utility.yul\":13426:13429   */\n      0x00\n        /* \"#utility.yul\":13447:13514   */\n      tag_405\n        /* \"#utility.yul\":13511:13513   */\n      0x2e\n        /* \"#utility.yul\":13506:13509   */\n      dup4\n        /* \"#utility.yul\":13447:13514   */\n      tag_237\n      jump\t// in\n    tag_405:\n        /* \"#utility.yul\":13440:13514   */\n      swap2\n      pop\n        /* \"#utility.yul\":13523:13616   */\n      tag_406\n        /* \"#utility.yul\":13612:13615   */\n      dup3\n        /* \"#utility.yul\":13523:13616   */\n      tag_256\n      jump\t// in\n    tag_406:\n        /* \"#utility.yul\":13641:13643   */\n      0x40\n        /* \"#utility.yul\":13636:13639   */\n      dup3\n        /* \"#utility.yul\":13632:13644   */\n      add\n        /* \"#utility.yul\":13625:13644   */\n      swap1\n      pop\n        /* \"#utility.yul\":13284:13650   */\n      swap2\n      swap1\n      pop\n      jump\t// out\n        /* \"#utility.yul\":13656:14075   */\n    tag_145:\n        /* \"#utility.yul\":13822:13826   */\n      0x00\n        /* \"#utility.yul\":13860:13862   */\n      0x20\n        /* \"#utility.yul\":13849:13858   */\n      dup3\n        /* \"#utility.yul\":13845:13863   */\n      add\n        /* \"#utility.yul\":13837:13863   */\n      swap1\n      pop\n        /* \"#utility.yul\":13909:13918   */\n      dup2\n        /* \"#utility.yul\":13903:13907   */\n      dup2\n        /* \"#utility.yul\":13899:13919   */\n      sub\n        /* \"#utility.yul\":13895:13896   */\n      0x00\n        /* \"#utility.yul\":13884:13893   */\n      dup4\n        /* \"#utility.yul\":13880:13897   */\n      add\n        /* \"#utility.yul\":13873:13920   */\n      mstore\n        /* \"#utility.yul\":13937:14068   */\n      tag_408\n        /* \"#utility.yul\":14063:14067   */\n      dup2\n        /* \"#utility.yul\":13937:14068   */\n      tag_257\n      jump\t// in\n    tag_408:\n        /* \"#utility.yul\":13929:14068   */\n      swap1\n      pop\n        /* \"#utility.yul\":13656:14075   */\n      swap2\n      swap1\n      pop\n      jump\t// out\n        /* \"#utility.yul\":14081:14309   */\n    tag_258:\n        /* \"#utility.yul\":14221:14255   */\n      0x45524331393637557067726164653a20756e737570706f727465642070726f78\n        /* \"#utility.yul\":14217:14218   */\n      0x00\n        /* \"#utility.yul\":14209:14215   */\n      dup3\n        /* \"#utility.yul\":14205:14219   */\n      add\n        /* \"#utility.yul\":14198:14256   */\n      mstore\n        /* \"#utility.yul\":14290:14301   */\n      0x6961626c65555549440000000000000000000000000000000000000000000000\n        /* \"#utility.yul\":14285:14287   */\n      0x20\n        /* \"#utility.yul\":14277:14283   */\n      dup3\n        /* \"#utility.yul\":14273:14288   */\n      add\n        /* \"#utility.yul\":14266:14302   */\n      mstore\n        /* \"#utility.yul\":14081:14309   */\n      pop\n      jump\t// out\n        /* \"#utility.yul\":14315:14681   */\n    tag_259:\n        /* \"#utility.yul\":14457:14460   */\n      0x00\n        /* \"#utility.yul\":14478:14545   */\n      tag_411\n        /* \"#utility.yul\":14542:14544   */\n      0x29\n        /* \"#utility.yul\":14537:14540   */\n      dup4\n        /* \"#utility.yul\":14478:14545   */\n      tag_237\n      jump\t// in\n    tag_411:\n        /* \"#utility.yul\":14471:14545   */\n      swap2\n      pop\n        /* \"#utility.yul\":14554:14647   */\n      tag_412\n        /* \"#utility.yul\":14643:14646   */\n      dup3\n        /* \"#utility.yul\":14554:14647   */\n      tag_258\n      jump\t// in\n    tag_412:\n        /* \"#utility.yul\":14672:14674   */\n      0x40\n        /* \"#utility.yul\":14667:14670   */\n      dup3\n        /* \"#utility.yul\":14663:14675   */\n      add\n        /* \"#utility.yul\":14656:14675   */\n      swap1\n      pop\n        /* \"#utility.yul\":14315:14681   */\n      swap2\n      swap1\n      pop\n      jump\t// out\n        /* \"#utility.yul\":14687:15106   */\n    tag_149:\n        /* \"#utility.yul\":14853:14857   */\n      0x00\n        /* \"#utility.yul\":14891:14893   */\n      0x20\n        /* \"#utility.yul\":14880:14889   */\n      dup3\n        /* \"#utility.yul\":14876:14894   */\n      add\n        /* \"#utility.yul\":14868:14894   */\n      swap1\n      pop\n        /* \"#utility.yul\":14940:14949   */\n      dup2\n        /* \"#utility.yul\":14934:14938   */\n      dup2\n        /* \"#utility.yul\":14930:14950   */\n      sub\n        /* \"#utility.yul\":14926:14927   */\n      0x00\n        /* \"#utility.yul\":14915:14924   */\n      dup4\n        /* \"#utility.yul\":14911:14928   */\n      add\n        /* \"#utility.yul\":14904:14951   */\n      mstore\n        /* \"#utility.yul\":14968:15099   */\n      tag_414\n        /* \"#utility.yul\":15094:15098   */\n      dup2\n        /* \"#utility.yul\":14968:15099   */\n      tag_259\n      jump\t// in\n    tag_414:\n        /* \"#utility.yul\":14960:15099   */\n      swap1\n      pop\n        /* \"#utility.yul\":14687:15106   */\n      swap2\n      swap1\n      pop\n      jump\t// out\n        /* \"#utility.yul\":15112:15294   */\n    tag_260:\n        /* \"#utility.yul\":15252:15286   */\n      0x4f776e61626c653a2063616c6c6572206973206e6f7420746865206f776e6572\n        /* \"#utility.yul\":15248:15249   */\n      0x00\n        /* \"#utility.yul\":15240:15246   */\n      dup3\n        /* \"#utility.yul\":15236:15250   */\n      add\n        /* \"#utility.yul\":15229:15287   */\n      mstore\n        /* \"#utility.yul\":15112:15294   */\n      pop\n      jump\t// out\n        /* \"#utility.yul\":15300:15666   */\n    tag_261:\n        /* \"#utility.yul\":15442:15445   */\n      0x00\n        /* \"#utility.yul\":15463:15530   */\n      tag_417\n        /* \"#utility.yul\":15527:15529   */\n      0x20\n        /* \"#utility.yul\":15522:15525   */\n      dup4\n        /* \"#utility.yul\":15463:15530   */\n      tag_237\n      jump\t// in\n    tag_417:\n        /* \"#utility.yul\":15456:15530   */\n      swap2\n      pop\n        /* \"#utility.yul\":15539:15632   */\n      tag_418\n        /* \"#utility.yul\":15628:15631   */\n      dup3\n        /* \"#utility.yul\":15539:15632   */\n      tag_260\n      jump\t// in\n    tag_418:\n        /* \"#utility.yul\":15657:15659   */\n      0x20\n        /* \"#utility.yul\":15652:15655   */\n      dup3\n        /* \"#utility.yul\":15648:15660   */\n      add\n        /* \"#utility.yul\":15641:15660   */\n      swap1\n      pop\n        /* \"#utility.yul\":15300:15666   */\n      swap2\n      swap1\n      pop\n      jump\t// out\n        /* \"#utility.yul\":15672:16091   */\n    tag_158:\n        /* \"#utility.yul\":15838:15842   */\n      0x00\n        /* \"#utility.yul\":15876:15878   */\n      0x20\n        /* \"#utility.yul\":15865:15874   */\n      dup3\n        /* \"#utility.yul\":15861:15879   */\n      add\n        /* \"#utility.yul\":15853:15879   */\n      swap1\n      pop\n        /* \"#utility.yul\":15925:15934   */\n      dup2\n        /* \"#utility.yul\":15919:15923   */\n      dup2\n        /* \"#utility.yul\":15915:15935   */\n      sub\n        /* \"#utility.yul\":15911:15912   */\n      0x00\n        /* \"#utility.yul\":15900:15909   */\n      dup4\n        /* \"#utility.yul\":15896:15913   */\n      add\n        /* \"#utility.yul\":15889:15936   */\n      mstore\n        /* \"#utility.yul\":15953:16084   */\n      tag_420\n        /* \"#utility.yul\":16079:16083   */\n      dup2\n        /* \"#utility.yul\":15953:16084   */\n      tag_261\n      jump\t// in\n    tag_420:\n        /* \"#utility.yul\":15945:16084   */\n      swap1\n      pop\n        /* \"#utility.yul\":15672:16091   */\n      swap2\n      swap1\n      pop\n      jump\t// out\n        /* \"#utility.yul\":16097:16327   */\n    tag_262:\n        /* \"#utility.yul\":16237:16271   */\n      0x496e697469616c697a61626c653a20636f6e7472616374206973206e6f742069\n        /* \"#utility.yul\":16233:16234   */\n      0x00\n        /* \"#utility.yul\":16225:16231   */\n      dup3\n        /* \"#utility.yul\":16221:16235   */\n      add\n        /* \"#utility.yul\":16214:16272   */\n      mstore\n        /* \"#utility.yul\":16306:16319   */\n      0x6e697469616c697a696e67000000000000000000000000000000000000000000\n        /* \"#utility.yul\":16301:16303   */\n      0x20\n        /* \"#utility.yul\":16293:16299   */\n      dup3\n        /* \"#utility.yul\":16289:16304   */\n      add\n        /* \"#utility.yul\":16282:16320   */\n      mstore\n        /* \"#utility.yul\":16097:16327   */\n      pop\n      jump\t// out\n        /* \"#utility.yul\":16333:16699   */\n    tag_263:\n        /* \"#utility.yul\":16475:16478   */\n      0x00\n        /* \"#utility.yul\":16496:16563   */\n      tag_423\n        /* \"#utility.yul\":16560:16562   */\n      0x2b\n        /* \"#utility.yul\":16555:16558   */\n      dup4\n        /* \"#utility.yul\":16496:16563   */\n      tag_237\n      jump\t// in\n    tag_423:\n        /* \"#utility.yul\":16489:16563   */\n      swap2\n      pop\n        /* \"#utility.yul\":16572:16665   */\n      tag_424\n        /* \"#utility.yul\":16661:16664   */\n      dup3\n        /* \"#utility.yul\":16572:16665   */\n      tag_262\n      jump\t// in\n    tag_424:\n        /* \"#utility.yul\":16690:16692   */\n      0x40\n        /* \"#utility.yul\":16685:16688   */\n      dup3\n        /* \"#utility.yul\":16681:16693   */\n      add\n        /* \"#utility.yul\":16674:16693   */\n      swap1\n      pop\n        /* \"#utility.yul\":16333:16699   */\n      swap2\n      swap1\n      pop\n      jump\t// out\n        /* \"#utility.yul\":16705:17124   */\n    tag_164:\n        /* \"#utility.yul\":16871:16875   */\n      0x00\n        /* \"#utility.yul\":16909:16911   */\n      0x20\n        /* \"#utility.yul\":16898:16907   */\n      dup3\n        /* \"#utility.yul\":16894:16912   */\n      add\n        /* \"#utility.yul\":16886:16912   */\n      swap1\n      pop\n        /* \"#utility.yul\":16958:16967   */\n      dup2\n        /* \"#utility.yul\":16952:16956   */\n      dup2\n        /* \"#utility.yul\":16948:16968   */\n      sub\n        /* \"#utility.yul\":16944:16945   */\n      0x00\n        /* \"#utility.yul\":16933:16942   */\n      dup4\n        /* \"#utility.yul\":16929:16946   */\n      add\n        /* \"#utility.yul\":16922:16969   */\n      mstore\n        /* \"#utility.yul\":16986:17117   */\n      tag_426\n        /* \"#utility.yul\":17112:17116   */\n      dup2\n        /* \"#utility.yul\":16986:17117   */\n      tag_263\n      jump\t// in\n    tag_426:\n        /* \"#utility.yul\":16978:17117   */\n      swap1\n      pop\n        /* \"#utility.yul\":16705:17124   */\n      swap2\n      swap1\n      pop\n      jump\t// out\n        /* \"#utility.yul\":17130:17362   */\n    tag_264:\n        /* \"#utility.yul\":17270:17304   */\n      0x455243313936373a206e657720696d706c656d656e746174696f6e206973206e\n        /* \"#utility.yul\":17266:17267   */\n      0x00\n        /* \"#utility.yul\":17258:17264   */\n      dup3\n        /* \"#utility.yul\":17254:17268   */\n      add\n        /* \"#utility.yul\":17247:17305   */\n      mstore\n        /* \"#utility.yul\":17339:17354   */\n      0x6f74206120636f6e747261637400000000000000000000000000000000000000\n        /* \"#utility.yul\":17334:17336   */\n      0x20\n        /* \"#utility.yul\":17326:17332   */\n      dup3\n        /* \"#utility.yul\":17322:17337   */\n      add\n        /* \"#utility.yul\":17315:17355   */\n      mstore\n        /* \"#utility.yul\":17130:17362   */\n      pop\n      jump\t// out\n        /* \"#utility.yul\":17368:17734   */\n    tag_265:\n        /* \"#utility.yul\":17510:17513   */\n      0x00\n        /* \"#utility.yul\":17531:17598   */\n      tag_429\n        /* \"#utility.yul\":17595:17597   */\n      0x2d\n        /* \"#utility.yul\":17590:17593   */\n      dup4\n        /* \"#utility.yul\":17531:17598   */\n      tag_237\n      jump\t// in\n    tag_429:\n        /* \"#utility.yul\":17524:17598   */\n      swap2\n      pop\n        /* \"#utility.yul\":17607:17700   */\n      tag_430\n        /* \"#utility.yul\":17696:17699   */\n      dup3\n        /* \"#utility.yul\":17607:17700   */\n      tag_264\n      jump\t// in\n    tag_430:\n        /* \"#utility.yul\":17725:17727   */\n      0x40\n        /* \"#utility.yul\":17720:17723   */\n      dup3\n        /* \"#utility.yul\":17716:17728   */\n      add\n        /* \"#utility.yul\":17709:17728   */\n      swap1\n      pop\n        /* \"#utility.yul\":17368:17734   */\n      swap2\n      swap1\n      pop\n      jump\t// out\n        /* \"#utility.yul\":17740:18159   */\n    tag_174:\n        /* \"#utility.yul\":17906:17910   */\n      0x00\n        /* \"#utility.yul\":17944:17946   */\n      0x20\n        /* \"#utility.yul\":17933:17942   */\n      dup3\n        /* \"#utility.yul\":17929:17947   */\n      add\n        /* \"#utility.yul\":17921:17947   */\n      swap1\n      pop\n        /* \"#utility.yul\":17993:18002   */\n      dup2\n        /* \"#utility.yul\":17987:17991   */\n      dup2\n        /* \"#utility.yul\":17983:18003   */\n      sub\n        /* \"#utility.yul\":17979:17980   */\n      0x00\n        /* \"#utility.yul\":17968:17977   */\n      dup4\n        /* \"#utility.yul\":17964:17981   */\n      add\n        /* \"#utility.yul\":17957:18004   */\n      mstore\n        /* \"#utility.yul\":18021:18152   */\n      tag_432\n        /* \"#utility.yul\":18147:18151   */\n      dup2\n        /* \"#utility.yul\":18021:18152   */\n      tag_265\n      jump\t// in\n    tag_432:\n        /* \"#utility.yul\":18013:18152   */\n      swap1\n      pop\n        /* \"#utility.yul\":17740:18159   */\n      swap2\n      swap1\n      pop\n      jump\t// out\n        /* \"#utility.yul\":18165:18390   */\n    tag_266:\n        /* \"#utility.yul\":18305:18339   */\n      0x416464726573733a2064656c65676174652063616c6c20746f206e6f6e2d636f\n        /* \"#utility.yul\":18301:18302   */\n      0x00\n        /* \"#utility.yul\":18293:18299   */\n      dup3\n        /* \"#utility.yul\":18289:18303   */\n      add\n        /* \"#utility.yul\":18282:18340   */\n      mstore\n        /* \"#utility.yul\":18374:18382   */\n      0x6e74726163740000000000000000000000000000000000000000000000000000\n        /* \"#utility.yul\":18369:18371   */\n      0x20\n        /* \"#utility.yul\":18361:18367   */\n      dup3\n        /* \"#utility.yul\":18357:18372   */\n      add\n        /* \"#utility.yul\":18350:18383   */\n      mstore\n        /* \"#utility.yul\":18165:18390   */\n      pop\n      jump\t// out\n        /* \"#utility.yul\":18396:18762   */\n    tag_267:\n        /* \"#utility.yul\":18538:18541   */\n      0x00\n        /* \"#utility.yul\":18559:18626   */\n      tag_435\n        /* \"#utility.yul\":18623:18625   */\n      0x26\n        /* \"#utility.yul\":18618:18621   */\n      dup4\n        /* \"#utility.yul\":18559:18626   */\n      tag_237\n      jump\t// in\n    tag_435:\n        /* \"#utility.yul\":18552:18626   */\n      swap2\n      pop\n        /* \"#utility.yul\":18635:18728   */\n      tag_436\n        /* \"#utility.yul\":18724:18727   */\n      dup3\n        /* \"#utility.yul\":18635:18728   */\n      tag_266\n      jump\t// in\n    tag_436:\n        /* \"#utility.yul\":18753:18755   */\n      0x40\n        /* \"#utility.yul\":18748:18751   */\n      dup3\n        /* \"#utility.yul\":18744:18756   */\n      add\n        /* \"#utility.yul\":18737:18756   */\n      swap1\n      pop\n        /* \"#utility.yul\":18396:18762   */\n      swap2\n      swap1\n      pop\n      jump\t// out\n        /* \"#utility.yul\":18768:19187   */\n    tag_196:\n        /* \"#utility.yul\":18934:18938   */\n      0x00\n        /* \"#utility.yul\":18972:18974   */\n      0x20\n        /* \"#utility.yul\":18961:18970   */\n      dup3\n        /* \"#utility.yul\":18957:18975   */\n      add\n        /* \"#utility.yul\":18949:18975   */\n      swap1\n      pop\n        /* \"#utility.yul\":19021:19030   */\n      dup2\n        /* \"#utility.yul\":19015:19019   */\n      dup2\n        /* \"#utility.yul\":19011:19031   */\n      sub\n        /* \"#utility.yul\":19007:19008   */\n      0x00\n        /* \"#utility.yul\":18996:19005   */\n      dup4\n        /* \"#utility.yul\":18992:19009   */\n      add\n        /* \"#utility.yul\":18985:19032   */\n      mstore\n        /* \"#utility.yul\":19049:19180   */\n      tag_438\n        /* \"#utility.yul\":19175:19179   */\n      dup2\n        /* \"#utility.yul\":19049:19180   */\n      tag_267\n      jump\t// in\n    tag_438:\n        /* \"#utility.yul\":19041:19180   */\n      swap1\n      pop\n        /* \"#utility.yul\":18768:19187   */\n      swap2\n      swap1\n      pop\n      jump\t// out\n        /* \"#utility.yul\":19193:19291   */\n    tag_268:\n        /* \"#utility.yul\":19244:19250   */\n      0x00\n        /* \"#utility.yul\":19278:19283   */\n      dup2\n        /* \"#utility.yul\":19272:19284   */\n      mload\n        /* \"#utility.yul\":19262:19284   */\n      swap1\n      pop\n        /* \"#utility.yul\":19193:19291   */\n      swap2\n      swap1\n      pop\n      jump\t// out\n        /* \"#utility.yul\":19297:19444   */\n    tag_269:\n        /* \"#utility.yul\":19398:19409   */\n      0x00\n        /* \"#utility.yul\":19435:19438   */\n      dup2\n        /* \"#utility.yul\":19420:19438   */\n      swap1\n      pop\n        /* \"#utility.yul\":19297:19444   */\n      swap3\n      swap2\n      pop\n      pop\n      jump\t// out\n        /* \"#utility.yul\":19450:19696   */\n    tag_270:\n        /* \"#utility.yul\":19531:19532   */\n      0x00\n        /* \"#utility.yul\":19541:19654   */\n    tag_442:\n        /* \"#utility.yul\":19555:19561   */\n      dup4\n        /* \"#utility.yul\":19552:19553   */\n      dup2\n        /* \"#utility.yul\":19549:19562   */\n      lt\n        /* \"#utility.yul\":19541:19654   */\n      iszero\n      tag_444\n      jumpi\n        /* \"#utility.yul\":19640:19641   */\n      dup1\n        /* \"#utility.yul\":19635:19638   */\n      dup3\n        /* \"#utility.yul\":19631:19642   */\n      add\n        /* \"#utility.yul\":19625:19643   */\n      mload\n        /* \"#utility.yul\":19621:19622   */\n      dup2\n        /* \"#utility.yul\":19616:19619   */\n      dup5\n        /* \"#utility.yul\":19612:19623   */\n      add\n        /* \"#utility.yul\":19605:19644   */\n      mstore\n        /* \"#utility.yul\":19577:19579   */\n      0x20\n        /* \"#utility.yul\":19574:19575   */\n      dup2\n        /* \"#utility.yul\":19570:19580   */\n      add\n        /* \"#utility.yul\":19565:19580   */\n      swap1\n      pop\n        /* \"#utility.yul\":19541:19654   */\n      jump(tag_442)\n    tag_444:\n        /* \"#utility.yul\":19688:19689   */\n      0x00\n        /* \"#utility.yul\":19679:19685   */\n      dup5\n        /* \"#utility.yul\":19674:19677   */\n      dup5\n        /* \"#utility.yul\":19670:19686   */\n      add\n        /* \"#utility.yul\":19663:19690   */\n      mstore\n        /* \"#utility.yul\":19512:19696   */\n      pop\n        /* \"#utility.yul\":19450:19696   */\n      pop\n      pop\n      pop\n      jump\t// out\n        /* \"#utility.yul\":19702:20088   */\n    tag_271:\n        /* \"#utility.yul\":19806:19809   */\n      0x00\n        /* \"#utility.yul\":19834:19872   */\n      tag_446\n        /* \"#utility.yul\":19866:19871   */\n      dup3\n        /* \"#utility.yul\":19834:19872   */\n      tag_268\n      jump\t// in\n    tag_446:\n        /* \"#utility.yul\":19888:19976   */\n      tag_447\n        /* \"#utility.yul\":19969:19975   */\n      dup2\n        /* \"#utility.yul\":19964:19967   */\n      dup6\n        /* \"#utility.yul\":19888:19976   */\n      tag_269\n      jump\t// in\n    tag_447:\n        /* \"#utility.yul\":19881:19976   */\n      swap4\n      pop\n        /* \"#utility.yul\":19985:20050   */\n      tag_448\n        /* \"#utility.yul\":20043:20049   */\n      dup2\n        /* \"#utility.yul\":20038:20041   */\n      dup6\n        /* \"#utility.yul\":20031:20035   */\n      0x20\n        /* \"#utility.yul\":20024:20029   */\n      dup7\n        /* \"#utility.yul\":20020:20036   */\n      add\n        /* \"#utility.yul\":19985:20050   */\n      tag_270\n      jump\t// in\n    tag_448:\n        /* \"#utility.yul\":20075:20081   */\n      dup1\n        /* \"#utility.yul\":20070:20073   */\n      dup5\n        /* \"#utility.yul\":20066:20082   */\n      add\n        /* \"#utility.yul\":20059:20082   */\n      swap2\n      pop\n        /* \"#utility.yul\":19810:20088   */\n      pop\n        /* \"#utility.yul\":19702:20088   */\n      swap3\n      swap2\n      pop\n      pop\n      jump\t// out\n        /* \"#utility.yul\":20094:20365   */\n    tag_198:\n        /* \"#utility.yul\":20224:20227   */\n      0x00\n        /* \"#utility.yul\":20246:20339   */\n      tag_450\n        /* \"#utility.yul\":20335:20338   */\n      dup3\n        /* \"#utility.yul\":20326:20332   */\n      dup5\n        /* \"#utility.yul\":20246:20339   */\n      tag_271\n      jump\t// in\n    tag_450:\n        /* \"#utility.yul\":20239:20339   */\n      swap2\n      pop\n        /* \"#utility.yul\":20356:20359   */\n      dup2\n        /* \"#utility.yul\":20349:20359   */\n      swap1\n      pop\n        /* \"#utility.yul\":20094:20365   */\n      swap3\n      swap2\n      pop\n      pop\n      jump\t// out\n        /* \"#utility.yul\":20371:20470   */\n    tag_272:\n        /* \"#utility.yul\":20423:20429   */\n      0x00\n        /* \"#utility.yul\":20457:20462   */\n      dup2\n        /* \"#utility.yul\":20451:20463   */\n      mload\n        /* \"#utility.yul\":20441:20463   */\n      swap1\n      pop\n        /* \"#utility.yul\":20371:20470   */\n      swap2\n      swap1\n      pop\n      jump\t// out\n        /* \"#utility.yul\":20476:20853   */\n    tag_273:\n        /* \"#utility.yul\":20564:20567   */\n      0x00\n        /* \"#utility.yul\":20592:20631   */\n      tag_453\n        /* \"#utility.yul\":20625:20630   */\n      dup3\n        /* \"#utility.yul\":20592:20631   */\n      tag_272\n      jump\t// in\n    tag_453:\n        /* \"#utility.yul\":20647:20718   */\n      tag_454\n        /* \"#utility.yul\":20711:20717   */\n      dup2\n        /* \"#utility.yul\":20706:20709   */\n      dup6\n        /* \"#utility.yul\":20647:20718   */\n      tag_237\n      jump\t// in\n    tag_454:\n        /* \"#utility.yul\":20640:20718   */\n      swap4\n      pop\n        /* \"#utility.yul\":20727:20792   */\n      tag_455\n        /* \"#utility.yul\":20785:20791   */\n      dup2\n        /* \"#utility.yul\":20780:20783   */\n      dup6\n        /* \"#utility.yul\":20773:20777   */\n      0x20\n        /* \"#utility.yul\":20766:20771   */\n      dup7\n        /* \"#utility.yul\":20762:20778   */\n      add\n        /* \"#utility.yul\":20727:20792   */\n      tag_270\n      jump\t// in\n    tag_455:\n        /* \"#utility.yul\":20817:20846   */\n      tag_456\n        /* \"#utility.yul\":20839:20845   */\n      dup2\n        /* \"#utility.yul\":20817:20846   */\n      tag_223\n      jump\t// in\n    tag_456:\n        /* \"#utility.yul\":20812:20815   */\n      dup5\n        /* \"#utility.yul\":20808:20847   */\n      add\n        /* \"#utility.yul\":20801:20847   */\n      swap2\n      pop\n        /* \"#utility.yul\":20568:20853   */\n      pop\n        /* \"#utility.yul\":20476:20853   */\n      swap3\n      swap2\n      pop\n      pop\n      jump\t// out\n        /* \"#utility.yul\":20859:21172   */\n    tag_213:\n        /* \"#utility.yul\":20972:20976   */\n      0x00\n        /* \"#utility.yul\":21010:21012   */\n      0x20\n        /* \"#utility.yul\":20999:21008   */\n      dup3\n        /* \"#utility.yul\":20995:21013   */\n      add\n        /* \"#utility.yul\":20987:21013   */\n      swap1\n      pop\n        /* \"#utility.yul\":21059:21068   */\n      dup2\n        /* \"#utility.yul\":21053:21057   */\n      dup2\n        /* \"#utility.yul\":21049:21069   */\n      sub\n        /* \"#utility.yul\":21045:21046   */\n      0x00\n        /* \"#utility.yul\":21034:21043   */\n      dup4\n        /* \"#utility.yul\":21030:21047   */\n      add\n        /* \"#utility.yul\":21023:21070   */\n      mstore\n        /* \"#utility.yul\":21087:21165   */\n      tag_458\n        /* \"#utility.yul\":21160:21164   */\n      dup2\n        /* \"#utility.yul\":21151:21157   */\n      dup5\n        /* \"#utility.yul\":21087:21165   */\n      tag_273\n      jump\t// in\n    tag_458:\n        /* \"#utility.yul\":21079:21165   */\n      swap1\n      pop\n        /* \"#utility.yul\":20859:21172   */\n      swap3\n      swap2\n      pop\n      pop\n      jump\t// out\n    stop\n    data_9fdcd12e4b726339b32a442b0a448365d5d85c96b2d2cff917b4f66c63110398 416464726573733a206c6f772d6c6576656c2064656c65676174652063616c6c206661696c6564\n\n    auxdata: 0xa2646970667358221220a2fbbf8c7ce0f3bf82f0f86813036acc4720f74aecb9d7daf1c920d8b1bb1e5864736f6c63430008110033\n}\n",
				"bytecode": {
					"linkReferences": {},
					"object": "60a06040523073ffffffffffffffffffffffffffffffffffffffff1660809073ffffffffffffffffffffffffffffffffffffffff1681525034801561004357600080fd5b50608051611a7461007b600039600081816101f5015281816102830152818161037d0152818161040b01526104bb0152611a746000f3fe6080604052600436106100915760003560e01c8063715018a611610059578063715018a61461015a5780638129fc1c146101715780638da5cb5b14610188578063d09de08a146101b3578063f2fde38b146101ca57610091565b80633659cfe6146100965780634f1ef286146100bf57806352d1902d146100db57806360fe47b1146101065780636d4ce63c1461012f575b600080fd5b3480156100a257600080fd5b506100bd60048036038101906100b89190610f15565b6101f3565b005b6100d960048036038101906100d49190611088565b61037b565b005b3480156100e757600080fd5b506100f06104b7565b6040516100fd91906110fd565b60405180910390f35b34801561011257600080fd5b5061012d6004803603810190610128919061114e565b610570565b005b34801561013b57600080fd5b506101446105b3565b604051610151919061118a565b60405180910390f35b34801561016657600080fd5b5061016f6105bd565b005b34801561017d57600080fd5b506101866105d1565b005b34801561019457600080fd5b5061019d61070f565b6040516101aa91906111b4565b60405180910390f35b3480156101bf57600080fd5b506101c8610739565b005b3480156101d657600080fd5b506101f160048036038101906101ec9190610f15565b610789565b005b7f000000000000000000000000000000000000000000000000000000000000000073ffffffffffffffffffffffffffffffffffffffff163073ffffffffffffffffffffffffffffffffffffffff1603610281576040517f08c379a000000000000000000000000000000000000000000000000000000000815260040161027890611252565b60405180910390fd5b7f000000000000000000000000000000000000000000000000000000000000000073ffffffffffffffffffffffffffffffffffffffff166102c061080c565b73ffffffffffffffffffffffffffffffffffffffff1614610316576040517f08c379a000000000000000000000000000000000000000000000000000000000815260040161030d906112e4565b60405180910390fd5b61031f81610863565b61037881600067ffffffffffffffff81111561033e5761033d610f5d565b5b6040519080825280601f01601f1916602001820160405280156103705781602001600182028036833780820191505090505b50600061086e565b50565b7f000000000000000000000000000000000000000000000000000000000000000073ffffffffffffffffffffffffffffffffffffffff163073ffffffffffffffffffffffffffffffffffffffff1603610409576040517f08c379a000000000000000000000000000000000000000000000000000000000815260040161040090611252565b60405180910390fd5b7f000000000000000000000000000000000000000000000000000000000000000073ffffffffffffffffffffffffffffffffffffffff1661044861080c565b73ffffffffffffffffffffffffffffffffffffffff161461049e576040517f08c379a0000000000000000000000000000000000000000000000000000000008152600401610495906112e4565b60405180910390fd5b6104a782610863565b6104b38282600161086e565b5050565b60007f000000000000000000000000000000000000000000000000000000000000000073ffffffffffffffffffffffffffffffffffffffff163073ffffffffffffffffffffffffffffffffffffffff1614610547576040517f08c379a000000000000000000000000000000000000000000000000000000000815260040161053e90611376565b60405180910390fd5b7f360894a13ba1a3210667c828492db98dca3e2076cc3735a920a3ca505d382bbc60001b905090565b8060c9819055507f93fe6d397c74fdf1402a8b72e47b68512f0510d7b98a4bc4cbdf6ac7108b3c5960c9546040516105a8919061118a565b60405180910390a150565b600060c954905090565b6105c56109dc565b6105cf6000610a5a565b565b60008060019054906101000a900460ff161590508080156106025750600160008054906101000a900460ff1660ff16105b8061062f575061061130610b20565b15801561062e5750600160008054906101000a900460ff1660ff16145b5b61066e576040517f08c379a000000000000000000000000000000000000000000000000000000000815260040161066590611408565b60405180910390fd5b60016000806101000a81548160ff021916908360ff16021790555080156106ab576001600060016101000a81548160ff0219169083151502179055505b6106b3610b43565b801561070c5760008060016101000a81548160ff0219169083151502179055507f7f26b83ff96e1f2b6a682f133852f6798a09c465da95921460cefb38474024986001604051610703919061147a565b60405180910390a15b50565b6000609760009054906101000a900473ffffffffffffffffffffffffffffffffffffffff16905090565b600160c95461074891906114c4565b60c9819055507f93fe6d397c74fdf1402a8b72e47b68512f0510d7b98a4bc4cbdf6ac7108b3c5960c95460405161077f919061118a565b60405180910390a1565b6107916109dc565b600073ffffffffffffffffffffffffffffffffffffffff168173ffffffffffffffffffffffffffffffffffffffff1603610800576040517f08c379a00000000000000000000000000000000000000000000000000000000081526004016107f79061156a565b60405180910390fd5b61080981610a5a565b50565b600061083a7f360894a13ba1a3210667c828492db98dca3e2076cc3735a920a3ca505d382bbc60001b610b9c565b60000160009054906101000a900473ffffffffffffffffffffffffffffffffffffffff16905090565b61086b6109dc565b50565b61089a7f4910fdfa16fed3260ed0e7147f7cc6da11a60208b5b9406d12a635614ffd914360001b610ba6565b60000160009054906101000a900460ff16156108be576108b983610bb0565b6109d7565b8273ffffffffffffffffffffffffffffffffffffffff166352d1902d6040518163ffffffff1660e01b8152600401602060405180830381865afa92505050801561092657506040513d601f19601f8201168201806040525081019061092391906115b6565b60015b610965576040517f08c379a000000000000000000000000000000000000000000000000000000000815260040161095c90611655565b60405180910390fd5b7f360894a13ba1a3210667c828492db98dca3e2076cc3735a920a3ca505d382bbc60001b81146109ca576040517f08c379a00000000000000000000000000000000000000000000000000000000081526004016109c1906116e7565b60405180910390fd5b506109d6838383610c69565b5b505050565b6109e4610c95565b73ffffffffffffffffffffffffffffffffffffffff16610a0261070f565b73ffffffffffffffffffffffffffffffffffffffff1614610a58576040517f08c379a0000000000000000000000000000000000000000000000000000000008152600401610a4f90611753565b60405180910390fd5b565b6000609760009054906101000a900473ffffffffffffffffffffffffffffffffffffffff16905081609760006101000a81548173ffffffffffffffffffffffffffffffffffffffff021916908373ffffffffffffffffffffffffffffffffffffffff1602179055508173ffffffffffffffffffffffffffffffffffffffff168173ffffffffffffffffffffffffffffffffffffffff167f8be0079c531659141344cd1fd0a4f28419497f9722a3daafe3b4186f6b6457e060405160405180910390a35050565b6000808273ffffffffffffffffffffffffffffffffffffffff163b119050919050565b600060019054906101000a900460ff16610b92576040517f08c379a0000000000000000000000000000000000000000000000000000000008152600401610b89906117e5565b60405180910390fd5b610b9a610c9d565b565b6000819050919050565b6000819050919050565b610bb981610b20565b610bf8576040517f08c379a0000000000000000000000000000000000000000000000000000000008152600401610bef90611877565b60405180910390fd5b80610c257f360894a13ba1a3210667c828492db98dca3e2076cc3735a920a3ca505d382bbc60001b610b9c565b60000160006101000a81548173ffffffffffffffffffffffffffffffffffffffff021916908373ffffffffffffffffffffffffffffffffffffffff16021790555050565b610c7283610cfe565b600082511180610c7f5750805b15610c9057610c8e8383610d4d565b505b505050565b600033905090565b600060019054906101000a900460ff16610cec576040517f08c379a0000000000000000000000000000000000000000000000000000000008152600401610ce3906117e5565b60405180910390fd5b610cfc610cf7610c95565b610a5a565b565b610d0781610bb0565b8073ffffffffffffffffffffffffffffffffffffffff167fbc7cd75a20ee27fd9adebab32041f755214dbc6bffa90cc0225b39da2e5c2d3b60405160405180910390a250565b6060610d5883610b20565b610d97576040517f08c379a0000000000000000000000000000000000000000000000000000000008152600401610d8e90611909565b60405180910390fd5b6000808473ffffffffffffffffffffffffffffffffffffffff1684604051610dbf919061199a565b600060405180830381855af49150503d8060008114610dfa576040519150601f19603f3d011682016040523d82523d6000602084013e610dff565b606091505b5091509150610e278282604051806060016040528060278152602001611a1860279139610e31565b9250505092915050565b60608315610e4157829050610e4c565b610e4b8383610e53565b5b9392505050565b600082511115610e665781518083602001fd5b806040517f08c379a0000000000000000000000000000000000000000000000000000000008152600401610e9a91906119f5565b60405180910390fd5b6000604051905090565b600080fd5b600080fd5b600073ffffffffffffffffffffffffffffffffffffffff82169050919050565b6000610ee282610eb7565b9050919050565b610ef281610ed7565b8114610efd57600080fd5b50565b600081359050610f0f81610ee9565b92915050565b600060208284031215610f2b57610f2a610ead565b5b6000610f3984828501610f00565b91505092915050565b600080fd5b600080fd5b6000601f19601f8301169050919050565b7f4e487b7100000000000000000000000000000000000000000000000000000000600052604160045260246000fd5b610f9582610f4c565b810181811067ffffffffffffffff82111715610fb457610fb3610f5d565b5b80604052505050565b6000610fc7610ea3565b9050610fd38282610f8c565b919050565b600067ffffffffffffffff821115610ff357610ff2610f5d565b5b610ffc82610f4c565b9050602081019050919050565b82818337600083830152505050565b600061102b61102684610fd8565b610fbd565b90508281526020810184848401111561104757611046610f47565b5b611052848285611009565b509392505050565b600082601f83011261106f5761106e610f42565b5b813561107f848260208601611018565b91505092915050565b6000806040838503121561109f5761109e610ead565b5b60006110ad85828601610f00565b925050602083013567ffffffffffffffff8111156110ce576110cd610eb2565b5b6110da8582860161105a565b9150509250929050565b6000819050919050565b6110f7816110e4565b82525050565b600060208201905061111260008301846110ee565b92915050565b6000819050919050565b61112b81611118565b811461113657600080fd5b50565b60008135905061114881611122565b92915050565b60006020828403121561116457611163610ead565b5b600061117284828501611139565b91505092915050565b61118481611118565b82525050565b600060208201905061119f600083018461117b565b92915050565b6111ae81610ed7565b82525050565b60006020820190506111c960008301846111a5565b92915050565b600082825260208201905092915050565b7f46756e6374696f6e206d7573742062652063616c6c6564207468726f7567682060008201527f64656c656761746563616c6c0000000000000000000000000000000000000000602082015250565b600061123c602c836111cf565b9150611247826111e0565b604082019050919050565b6000602082019050818103600083015261126b8161122f565b9050919050565b7f46756e6374696f6e206d7573742062652063616c6c6564207468726f7567682060008201527f6163746976652070726f78790000000000000000000000000000000000000000602082015250565b60006112ce602c836111cf565b91506112d982611272565b604082019050919050565b600060208201905081810360008301526112fd816112c1565b9050919050565b7f555550535570677261646561626c653a206d757374206e6f742062652063616c60008201527f6c6564207468726f7567682064656c656761746563616c6c0000000000000000602082015250565b60006113606038836111cf565b915061136b82611304565b604082019050919050565b6000602082019050818103600083015261138f81611353565b9050919050565b7f496e697469616c697a61626c653a20636f6e747261637420697320616c72656160008201527f647920696e697469616c697a6564000000000000000000000000000000000000602082015250565b60006113f2602e836111cf565b91506113fd82611396565b604082019050919050565b60006020820190508181036000830152611421816113e5565b9050919050565b6000819050919050565b600060ff82169050919050565b6000819050919050565b600061146461145f61145a84611428565b61143f565b611432565b9050919050565b61147481611449565b82525050565b600060208201905061148f600083018461146b565b92915050565b7f4e487b7100000000000000000000000000000000000000000000000000000000600052601160045260246000fd5b60006114cf82611118565b91506114da83611118565b92508282019050808211156114f2576114f1611495565b5b92915050565b7f4f776e61626c653a206e6577206f776e657220697320746865207a65726f206160008201527f6464726573730000000000000000000000000000000000000000000000000000602082015250565b60006115546026836111cf565b915061155f826114f8565b604082019050919050565b6000602082019050818103600083015261158381611547565b9050919050565b611593816110e4565b811461159e57600080fd5b50565b6000815190506115b08161158a565b92915050565b6000602082840312156115cc576115cb610ead565b5b60006115da848285016115a1565b91505092915050565b7f45524331393637557067726164653a206e657720696d706c656d656e7461746960008201527f6f6e206973206e6f742055555053000000000000000000000000000000000000602082015250565b600061163f602e836111cf565b915061164a826115e3565b604082019050919050565b6000602082019050818103600083015261166e81611632565b9050919050565b7f45524331393637557067726164653a20756e737570706f727465642070726f7860008201527f6961626c65555549440000000000000000000000000000000000000000000000602082015250565b60006116d16029836111cf565b91506116dc82611675565b604082019050919050565b60006020820190508181036000830152611700816116c4565b9050919050565b7f4f776e61626c653a2063616c6c6572206973206e6f7420746865206f776e6572600082015250565b600061173d6020836111cf565b915061174882611707565b602082019050919050565b6000602082019050818103600083015261176c81611730565b9050919050565b7f496e697469616c697a61626c653a20636f6e7472616374206973206e6f74206960008201527f6e697469616c697a696e67000000000000000000000000000000000000000000602082015250565b60006117cf602b836111cf565b91506117da82611773565b604082019050919050565b600060208201905081810360008301526117fe816117c2565b9050919050565b7f455243313936373a206e657720696d706c656d656e746174696f6e206973206e60008201527f6f74206120636f6e747261637400000000000000000000000000000000000000602082015250565b6000611861602d836111cf565b915061186c82611805565b604082019050919050565b6000602082019050818103600083015261189081611854565b9050919050565b7f416464726573733a2064656c65676174652063616c6c20746f206e6f6e2d636f60008201527f6e74726163740000000000000000000000000000000000000000000000000000602082015250565b60006118f36026836111cf565b91506118fe82611897565b604082019050919050565b60006020820190508181036000830152611922816118e6565b9050919050565b600081519050919050565b600081905092915050565b60005b8381101561195d578082015181840152602081019050611942565b60008484015250505050565b600061197482611929565b61197e8185611934565b935061198e81856020860161193f565b80840191505092915050565b60006119a68284611969565b915081905092915050565b600081519050919050565b60006119c7826119b1565b6119d181856111cf565b93506119e181856020860161193f565b6119ea81610f4c565b840191505092915050565b60006020820190508181036000830152611a0f81846119bc565b90509291505056fe416464726573733a206c6f772d6c6576656c2064656c65676174652063616c6c206661696c6564a2646970667358221220a2fbbf8c7ce0f3bf82f0f86813036acc4720f74aecb9d7daf1c920d8b1bb1e5864736f6c63430008110033",
					"opcodes": "PUSH1 0xA0 PUSH1 0x40 MSTORE ADDRESS PUSH20 0xFFFFFFFFFFFFFFFFFFFFFFFFFFFFFFFFFFFFFFFF AND PUSH1 0x80 SWAP1 PUSH20 0xFFFFFFFFFFFFFFFFFFFFFFFFFFFFFFFFFFFFFFFF AND DUP2 MSTORE POP CALLVALUE DUP1 ISZERO PUSH2 0x43 JUMPI PUSH1 0x0 DUP1 REVERT JUMPDEST POP PUSH1 0x80 MLOAD PUSH2 0x1A74 PUSH2 0x7B PUSH1 0x0 CODECOPY PUSH1 0x0 DUP2 DUP2 PUSH2 0x1F5 ADD MSTORE DUP2 DUP2 PUSH2 0x283 ADD MSTORE DUP2 DUP2 PUSH2 0x37D ADD MSTORE DUP2 DUP2 PUSH2 0x40B ADD MSTORE PUSH2 0x4BB ADD MSTORE PUSH2 0x1A74 PUSH1 0x0 RETURN INVALID PUSH1 0x80 PUSH1 0x40 MSTORE PUSH1 0x4 CALLDATASIZE LT PUSH2 0x91 JUMPI PUSH1 0x0 CALLDATALOAD PUSH1 0xE0 SHR DUP1 PUSH4 0x715018A6 GT PUSH2 0x59 JUMPI DUP1 PUSH4 0x715018A6 EQ PUSH2 0x15A JUMPI DUP1 PUSH4 0x8129FC1C EQ PUSH2 0x171 JUMPI DUP1 PUSH4 0x8DA5CB5B EQ PUSH2 0x188 JUMPI DUP1 PUSH4 0xD09DE08A EQ PUSH2 0x1B3 JUMPI DUP1 PUSH4 0xF2FDE38B EQ PUSH2 0x1CA JUMPI PUSH2 0x91 JUMP JUMPDEST DUP1 PUSH4 0x3659CFE6 EQ PUSH2 0x96 JUMPI DUP1 PUSH4 0x4F1EF286 EQ PUSH2 0xBF JUMPI DUP1 PUSH4 0x52D1902D EQ PUSH2 0xDB JUMPI DUP1 PUSH4 0x60FE47B1 EQ PUSH2 0x106 JUMPI DUP1 PUSH4 0x6D4CE63C EQ PUSH2 0x12F JUMPI JUMPDEST PUSH1 0x0 DUP1 REVERT JUMPDEST CALLVALUE DUP1 ISZERO PUSH2 0xA2 JUMPI PUSH1 0x0 DUP1 REVERT JUMPDEST POP PUSH2 0xBD PUSH1 0x4 DUP1 CALLDATASIZE SUB DUP2 ADD SWAP1 PUSH2 0xB8 SWAP2 SWAP1 PUSH2 0xF15 JUMP JUMPDEST PUSH2 0x1F3 JUMP JUMPDEST STOP JUMPDEST PUSH2 0xD9 PUSH1 0x4 DUP1 CALLDATASIZE SUB DUP2 ADD SWAP1 PUSH2 0xD4 SWAP2 SWAP1 PUSH2 0x1088 JUMP JUMPDEST PUSH2 0x37B JUMP JUMPDEST STOP JUMPDEST CALLVALUE DUP1 ISZERO PUSH2 0xE7 JUMPI PUSH1 0x0 DUP1 REVERT JUMPDEST POP PUSH2 0xF0 PUSH2 0x4B7 JUMP JUMPDEST PUSH1 0x40 MLOAD PUSH2 0xFD SWAP2 SWAP1 PUSH2 0x10FD JUMP JUMPDEST PUSH1 0x40 MLOAD DUP1 SWAP2 SUB SWAP1 RETURN JUMPDEST CALLVALUE DUP1 ISZERO PUSH2 0x112 JUMPI PUSH1 0x0 DUP1 REVERT JUMPDEST POP PUSH2 0x12D PUSH1 0x4 DUP1 CALLDATASIZE SUB DUP2 ADD SWAP1 PUSH2 0x128 SWAP2 SWAP1 PUSH2 0x114E JUMP JUMPDEST PUSH2 0x570 JUMP JUMPDEST STOP JUMPDEST CALLVALUE DUP1 ISZERO PUSH2 0x13B JUMPI PUSH1 0x0 DUP1 REVERT JUMPDEST POP PUSH2 0x144 PUSH2 0x5B3 JUMP JUMPDEST PUSH1 0x40 MLOAD PUSH2 0x151 SWAP2 SWAP1 PUSH2 0x118A JUMP JUMPDEST PUSH1 0x40 MLOAD DUP1 SWAP2 SUB SWAP1 RETURN JUMPDEST CALLVALUE DUP1 ISZERO PUSH2 0x166 JUMPI PUSH1 0x0 DUP1 REVERT JUMPDEST POP PUSH2 0x16F PUSH2 0x5BD JUMP JUMPDEST STOP JUMPDEST CALLVALUE DUP1 ISZERO PUSH2 0x17D JUMPI PUSH1 0x0 DUP1 REVERT JUMPDEST POP PUSH2 0x186 PUSH2 0x5D1 JUMP JUMPDEST STOP JUMPDEST CALLVALUE DUP1 ISZERO PUSH2 0x194 JUMPI PUSH1 0x0 DUP1 REVERT JUMPDEST POP PUSH2 0x19D PUSH2 0x70F JUMP JUMPDEST PUSH1 0x40 MLOAD PUSH2 0x1AA SWAP2 SWAP1 PUSH2 0x11B4 JUMP JUMPDEST PUSH1 0x40 MLOAD DUP1 SWAP2 SUB SWAP1 RETURN JUMPDEST CALLVALUE DUP1 ISZERO PUSH2 0x1BF JUMPI PUSH1 0x0 DUP1 REVERT JUMPDEST POP PUSH2 0x1C8 PUSH2 0x739 JUMP JUMPDEST STOP JUMPDEST CALLVALUE DUP1 ISZERO PUSH2 0x1D6 JUMPI PUSH1 0x0 DUP1 REVERT JUMPDEST POP PUSH2 0x1F1 PUSH1 0x4 DUP1 CALLDATASIZE SUB DUP2 ADD SWAP1 PUSH2 0x1EC SWAP2 SWAP1 PUSH2 0xF15 JUMP JUMPDEST PUSH2 0x789 JUMP JUMPDEST STOP JUMPDEST PUSH32 0x0 PUSH20 0xFFFFFFFFFFFFFFFFFFFFFFFFFFFFFFFFFFFFFFFF AND ADDRESS PUSH20 0xFFFFFFFFFFFFFFFFFFFFFFFFFFFFFFFFFFFFFFFF AND SUB PUSH2 0x281 JUMPI PUSH1 0x40 MLOAD PUSH32 0x8C379A000000000000000000000000000000000000000000000000000000000 DUP2 MSTORE PUSH1 0x4 ADD PUSH2 0x278 SWAP1 PUSH2 0x1252 JUMP JUMPDEST PUSH1 0x40 MLOAD DUP1 SWAP2 SUB SWAP1 REVERT JUMPDEST PUSH32 0x0 PUSH20 0xFFFFFFFFFFFFFFFFFFFFFFFFFFFFFFFFFFFFFFFF AND PUSH2 0x2C0 PUSH2 0x80C JUMP JUMPDEST PUSH20 0xFFFFFFFFFFFFFFFFFFFFFFFFFFFFFFFFFFFFFFFF AND EQ PUSH2 0x316 JUMPI PUSH1 0x40 MLOAD PUSH32 0x8C379A000000000000000000000000000000000000000000000000000000000 DUP2 MSTORE PUSH1 0x4 ADD PUSH2 0x30D SWAP1 PUSH2 0x12E4 JUMP JUMPDEST PUSH1 0x40 MLOAD DUP1 SWAP2 SUB SWAP1 REVERT JUMPDEST PUSH2 0x31F DUP2 PUSH2 0x863 JUMP JUMPDEST PUSH2 0x378 DUP2 PUSH1 0x0 PUSH8 0xFFFFFFFFFFFFFFFF DUP2 GT ISZERO PUSH2 0x33E JUMPI PUSH2 0x33D PUSH2 0xF5D JUMP JUMPDEST JUMPDEST PUSH1 0x40 MLOAD SWAP1 DUP1 DUP3 MSTORE DUP1 PUSH1 0x1F ADD PUSH1 0x1F NOT AND PUSH1 0x20 ADD DUP3 ADD PUSH1 0x40 MSTORE DUP1 ISZERO PUSH2 0x370 JUMPI DUP2 PUSH1 0x20 ADD PUSH1 0x1 DUP3 MUL DUP1 CALLDATASIZE DUP4 CALLDATACOPY DUP1 DUP3 ADD SWAP2 POP POP SWAP1 POP JUMPDEST POP PUSH1 0x0 PUSH2 0x86E JUMP JUMPDEST POP JUMP JUMPDEST PUSH32 0x0 PUSH20 0xFFFFFFFFFFFFFFFFFFFFFFFFFFFFFFFFFFFFFFFF AND ADDRESS PUSH20 0xFFFFFFFFFFFFFFFFFFFFFFFFFFFFFFFFFFFFFFFF AND SUB PUSH2 0x409 JUMPI PUSH1 0x40 MLOAD PUSH32 0x8C379A000000000000000000000000000000000000000000000000000000000 DUP2 MSTORE PUSH1 0x4 ADD PUSH2 0x400 SWAP1 PUSH2 0x1252 JUMP JUMPDEST PUSH1 0x40 MLOAD DUP1 SWAP2 SUB SWAP1 REVERT JUMPDEST PUSH32 0x0 PUSH20 0xFFFFFFFFFFFFFFFFFFFFFFFFFFFFFFFFFFFFFFFF AND PUSH2 0x448 PUSH2 0x80C JUMP JUMPDEST PUSH20 0xFFFFFFFFFFFFFFFFFFFFFFFFFFFFFFFFFFFFFFFF AND EQ PUSH2 0x49E JUMPI PUSH1 0x40 MLOAD PUSH32 0x8C379A000000000000000000000000000000000000000000000000000000000 DUP2 MSTORE PUSH1 0x4 ADD PUSH2 0x495 SWAP1 PUSH2 0x12E4 JUMP JUMPDEST PUSH1 0x40 MLOAD DUP1 SWAP2 SUB SWAP1 REVERT JUMPDEST PUSH2 0x4A7 DUP3 PUSH2 0x863 JUMP JUMPDEST PUSH2 0x4B3 DUP3 DUP3 PUSH1 0x1 PUSH2 0x86E JUMP JUMPDEST POP POP JUMP JUMPDEST PUSH1 0x0 PUSH32 0x0 PUSH20 0xFFFFFFFFFFFFFFFFFFFFFFFFFFFFFFFFFFFFFFFF AND ADDRESS PUSH20 0xFFFFFFFFFFFFFFFFFFFFFFFFFFFFFFFFFFFFFFFF AND EQ PUSH2 0x547 JUMPI PUSH1 0x40 MLOAD PUSH32 0x8C379A000000000000000000000000000000000000000000000000000000000 DUP2 MSTORE PUSH1 0x4 ADD PUSH2 0x53E SWAP1 PUSH2 0x1376 JUMP JUMPDEST PUSH1 0x40 MLOAD DUP1 SWAP2 SUB SWAP1 REVERT JUMPDEST PUSH32 0x360894A13BA1A3210667C828492DB98DCA3E2076CC3735A920A3CA505D382BBC PUSH1 0x0 SHL SWAP1 POP SWAP1 JUMP JUMPDEST DUP1 PUSH1 0xC9 DUP2 SWAP1 SSTORE POP PUSH32 0x93FE6D397C74FDF1402A8B72E47B68512F0510D7B98A4BC4CBDF6AC7108B3C59 PUSH1 0xC9 SLOAD PUSH1 0x40 MLOAD PUSH2 0x5A8 SWAP2 SWAP1 PUSH2 0x118A JUMP JUMPDEST PUSH1 0x40 MLOAD DUP1 SWAP2 SUB SWAP1 LOG1 POP JUMP JUMPDEST PUSH1 0x0 PUSH1 0xC9 SLOAD SWAP1 POP SWAP1 JUMP JUMPDEST PUSH2 0x5C5 PUSH2 0x9DC JUMP JUMPDEST PUSH2 0x5CF PUSH1 0x0 PUSH2 0xA5A JUMP JUMPDEST JUMP JUMPDEST PUSH1 0x0 DUP1 PUSH1 0x1 SWAP1 SLOAD SWAP1 PUSH2 0x100 EXP SWAP1 DIV PUSH1 0xFF AND ISZERO SWAP1 POP DUP1 DUP1 ISZERO PUSH2 0x602 JUMPI POP PUSH1 0x1 PUSH1 0x0 DUP1 SLOAD SWAP1 PUSH2 0x100 EXP SWAP1 DIV PUSH1 0xFF AND PUSH1 0xFF AND LT JUMPDEST DUP1 PUSH2 0x62F JUMPI POP PUSH2 0x611 ADDRESS PUSH2 0xB20 JUMP JUMPDEST ISZERO DUP1 ISZERO PUSH2 0x62E JUMPI POP PUSH1 0x1 PUSH1 0x0 DUP1 SLOAD SWAP1 PUSH2 0x100 EXP SWAP1 DIV PUSH1 0xFF AND PUSH1 0xFF AND EQ JUMPDEST JUMPDEST PUSH2 0x66E JUMPI PUSH1 0x40 MLOAD PUSH32 0x8C379A000000000000000000000000000000000000000000000000000000000 DUP2 MSTORE PUSH1 0x4 ADD PUSH2 0x665 SWAP1 PUSH2 0x1408 JUMP JUMPDEST PUSH1 0x40 MLOAD DUP1 SWAP2 SUB SWAP1 REVERT JUMPDEST PUSH1 0x1 PUSH1 0x0 DUP1 PUSH2 0x100 EXP DUP2 SLOAD DUP2 PUSH1 0xFF MUL NOT AND SWAP1 DUP4 PUSH1 0xFF AND MUL OR SWAP1 SSTORE POP DUP1 ISZERO PUSH2 0x6AB JUMPI PUSH1 0x1 PUSH1 0x0 PUSH1 0x1 PUSH2 0x100 EXP DUP2 SLOAD DUP2 PUSH1 0xFF MUL NOT AND SWAP1 DUP4 ISZERO ISZERO MUL OR SWAP1 SSTORE POP JUMPDEST PUSH2 0x6B3 PUSH2 0xB43 JUMP JUMPDEST DUP1 ISZERO PUSH2 0x70C JUMPI PUSH1 0x0 DUP1 PUSH1 0x1 PUSH2 0x100 EXP DUP2 SLOAD DUP2 PUSH1 0xFF MUL NOT AND SWAP1 DUP4 ISZERO ISZERO MUL OR SWAP1 SSTORE POP PUSH32 0x7F26B83FF96E1F2B6A682F133852F6798A09C465DA95921460CEFB3847402498 PUSH1 0x1 PUSH1 0x40 MLOAD PUSH2 0x703 SWAP2 SWAP1 PUSH2 0x147A JUMP JUMPDEST PUSH1 0x40 MLOAD DUP1 SWAP2 SUB SWAP1 LOG1 JUMPDEST POP JUMP JUMPDEST PUSH1 0x0 PUSH1 0x97 PUSH1 0x0 SWAP1 SLOAD SWAP1 PUSH2 0x100 EXP SWAP1 DIV PUSH20 0xFFFFFFFFFFFFFFFFFFFFFFFFFFFFFFFFFFFFFFFF AND SWAP1 POP SWAP1 JUMP JUMPDEST PUSH1 0x1 PUSH1 0xC9 SLOAD PUSH2 0x748 SWAP2 SWAP1 PUSH2 0x14C4 JUMP JUMPDEST PUSH1 0xC9 DUP2 SWAP1 SSTORE POP PUSH32 0x93FE6D397C74FDF1402A8B72E47B68512F0510D7B98A4BC4CBDF6AC7108B3C59 PUSH1 0xC9 SLOAD PUSH1 0x40 MLOAD PUSH2 0x77F SWAP2 SWAP1 PUSH2 0x118A JUMP JUMPDEST PUSH1 0x40 MLOAD DUP1 SWAP2 SUB SWAP1 LOG1 JUMP JUMPDEST PUSH2 0x791 PUSH2 0x9DC JUMP JUMPDEST PUSH1 0x0 PUSH20 0xFFFFFFFFFFFFFFFFFFFFFFFFFFFFFFFFFFFFFFFF AND DUP2 PUSH20 0xFFFFFFFFFFFFFFFFFFFFFFFFFFFFFFFFFFFFFFFF AND SUB PUSH2 0x800 JUMPI PUSH1 0x40 MLOAD PUSH32 0x8C379A000000000000000000000000000000000000000000000000000000000 DUP2 MSTORE PUSH1 0x4 ADD PUSH2 0x7F7 SWAP1 PUSH2 0x156A JUMP JUMPDEST PUSH1 0x40 MLOAD DUP1 SWAP2 SUB SWAP1 REVERT JUMPDEST PUSH2 0x809 DUP2 PUSH2 0xA5A JUMP JUMPDEST POP JUMP JUMPDEST PUSH1 0x0 PUSH2 0x83A PUSH32 0x360894A13BA1A3210667C828492DB98DCA3E2076CC3735A920A3CA505D382BBC PUSH1 0x0 SHL PUSH2 0xB9C JUMP JUMPDEST PUSH1 0x0 ADD PUSH1 0x0 SWAP1 SLOAD SWAP1 PUSH2 0x100 EXP SWAP1 DIV PUSH20 0xFFFFFFFFFFFFFFFFFFFFFFFFFFFFFFFFFFFFFFFF AND SWAP1 POP SWAP1 JUMP JUMPDEST PUSH2 0x86B PUSH2 0x9DC JUMP JUMPDEST POP JUMP JUMPDEST PUSH2 0x89A PUSH32 0x4910FDFA16FED3260ED0E7147F7CC6DA11A60208B5B9406D12A635614FFD9143 PUSH1 0x0 SHL PUSH2 0xBA6 JUMP JUMPDEST PUSH1 0x0 ADD PUSH1 0x0 SWAP1 SLOAD SWAP1 PUSH2 0x100 EXP SWAP1 DIV PUSH1 0xFF AND ISZERO PUSH2 0x8BE JUMPI PUSH2 0x8B9 DUP4 PUSH2 0xBB0 JUMP JUMPDEST PUSH2 0x9D7 JUMP JUMPDEST DUP3 PUSH20 0xFFFFFFFFFFFFFFFFFFFFFFFFFFFFFFFFFFFFFFFF AND PUSH4 0x52D1902D PUSH1 0x40 MLOAD DUP2 PUSH4 0xFFFFFFFF AND PUSH1 0xE0 SHL DUP2 MSTORE PUSH1 0x4 ADD PUSH1 0x20 PUSH1 0x40 MLOAD DUP1 DUP4 SUB DUP2 DUP7 GAS STATICCALL SWAP3 POP POP POP DUP1 ISZERO PUSH2 0x926 JUMPI POP PUSH1 0x40 MLOAD RETURNDATASIZE PUSH1 0x1F NOT PUSH1 0x1F DUP3 ADD AND DUP3 ADD DUP1 PUSH1 0x40 MSTORE POP DUP2 ADD SWAP1 PUSH2 0x923 SWAP2 SWAP1 PUSH2 0x15B6 JUMP JUMPDEST PUSH1 0x1 JUMPDEST PUSH2 0x965 JUMPI PUSH1 0x40 MLOAD PUSH32 0x8C379A000000000000000000000000000000000000000000000000000000000 DUP2 MSTORE PUSH1 0x4 ADD PUSH2 0x95C SWAP1 PUSH2 0x1655 JUMP JUMPDEST PUSH1 0x40 MLOAD DUP1 SWAP2 SUB SWAP1 REVERT JUMPDEST PUSH32 0x360894A13BA1A3210667C828492DB98DCA3E2076CC3735A920A3CA505D382BBC PUSH1 0x0 SHL DUP2 EQ PUSH2 0x9CA JUMPI PUSH1 0x40 MLOAD PUSH32 0x8C379A000000000000000000000000000000000000000000000000000000000 DUP2 MSTORE PUSH1 0x4 ADD PUSH2 0x9C1 SWAP1 PUSH2 0x16E7 JUMP JUMPDEST PUSH1 0x40 MLOAD DUP1 SWAP2 SUB SWAP1 REVERT JUMPDEST POP PUSH2 0x9D6 DUP4 DUP4 DUP4 PUSH2 0xC69 JUMP JUMPDEST JUMPDEST POP POP POP JUMP JUMPDEST PUSH2 0x9E4 PUSH2 0xC95 JUMP JUMPDEST PUSH20 0xFFFFFFFFFFFFFFFFFFFFFFFFFFFFFFFFFFFFFFFF AND PUSH2 0xA02 PUSH2 0x70F JUMP JUMPDEST PUSH20 0xFFFFFFFFFFFFFFFFFFFFFFFFFFFFFFFFFFFFFFFF AND EQ PUSH2 0xA58 JUMPI PUSH1 0x40 MLOAD PUSH32 0x8C379A000000000000000000000000000000000000000000000000000000000 DUP2 MSTORE PUSH1 0x4 ADD PUSH2 0xA4F SWAP1 PUSH2 0x1753 JUMP JUMPDEST PUSH1 0x40 MLOAD DUP1 SWAP2 SUB SWAP1 REVERT JUMPDEST JUMP JUMPDEST PUSH1 0x0 PUSH1 0x97 PUSH1 0x0 SWAP1 SLOAD SWAP1 PUSH2 0x100 EXP SWAP1 DIV PUSH20 0xFFFFFFFFFFFFFFFFFFFFFFFFFFFFFFFFFFFFFFFF AND SWAP1 POP DUP2 PUSH1 0x97 PUSH1 0x0 PUSH2 0x100 EXP DUP2 SLOAD DUP2 PUSH20 0xFFFFFFFFFFFFFFFFFFFFFFFFFFFFFFFFFFFFFFFF MUL NOT AND SWAP1 DUP4 PUSH20 0xFFFFFFFFFFFFFFFFFFFFFFFFFFFFFFFFFFFFFFFF AND MUL OR SWAP1 SSTORE POP DUP2 PUSH20 0xFFFFFFFFFFFFFFFFFFFFFFFFFFFFFFFFFFFFFFFF AND DUP2 PUSH20 0xFFFFFFFFFFFFFFFFFFFFFFFFFFFFFFFFFFFFFFFF AND PUSH32 0x8BE0079C531659141344CD1FD0A4F28419497F9722A3DAAFE3B4186F6B6457E0 PUSH1 0x40 MLOAD PUSH1 0x40 MLOAD DUP1 SWAP2 SUB SWAP1 LOG3 POP POP JUMP JUMPDEST PUSH1 0x0 DUP1 DUP3 PUSH20 0xFFFFFFFFFFFFFFFFFFFFFFFFFFFFFFFFFFFFFFFF AND EXTCODESIZE GT SWAP1 POP SWAP2 SWAP1 POP JUMP JUMPDEST PUSH1 0x0 PUSH1 0x1 SWAP1 SLOAD SWAP1 PUSH2 0x100 EXP SWAP1 DIV PUSH1 0xFF AND PUSH2 0xB92 JUMPI PUSH1 0x40 MLOAD PUSH32 0x8C379A000000000000000000000000000000000000000000000000000000000 DUP2 MSTORE PUSH1 0x4 ADD PUSH2 0xB89 SWAP1 PUSH2 0x17E5 JUMP JUMPDEST PUSH1 0x40 MLOAD DUP1 SWAP2 SUB SWAP1 REVERT JUMPDEST PUSH2 0xB9A PUSH2 0xC9D JUMP JUMPDEST JUMP JUMPDEST PUSH1 0x0 DUP2 SWAP1 POP SWAP2 SWAP1 POP JUMP JUMPDEST PUSH1 0x0 DUP2 SWAP1 POP SWAP2 SWAP1 POP JUMP JUMPDEST PUSH2 0xBB9 DUP2 PUSH2 0xB20 JUMP JUMPDEST PUSH2 0xBF8 JUMPI PUSH1 0x40 MLOAD PUSH32 0x8C379A000000000000000000000000000000000000000000000000000000000 DUP2 MSTORE PUSH1 0x4 ADD PUSH2 0xBEF SWAP1 PUSH2 0x1877 JUMP JUMPDEST PUSH1 0x40 MLOAD DUP1 SWAP2 SUB SWAP1 REVERT JUMPDEST DUP1 PUSH2 0xC25 PUSH32 0x360894A13BA1A3210667C828492DB98DCA3E2076CC3735A920A3CA505D382BBC PUSH1 0x0 SHL PUSH2 0xB9C JUMP JUMPDEST PUSH1 0x0 ADD PUSH1 0x0 PUSH2 0x100 EXP DUP2 SLOAD DUP2 PUSH20 0xFFFFFFFFFFFFFFFFFFFFFFFFFFFFFFFFFFFFFFFF MUL NOT AND SWAP1 DUP4 PUSH20 0xFFFFFFFFFFFFFFFFFFFFFFFFFFFFFFFFFFFFFFFF AND MUL OR SWAP1 SSTORE POP POP JUMP JUMPDEST PUSH2 0xC72 DUP4 PUSH2 0xCFE JUMP JUMPDEST PUSH1 0x0 DUP3 MLOAD GT DUP1 PUSH2 0xC7F JUMPI POP DUP1 JUMPDEST ISZERO PUSH2 0xC90 JUMPI PUSH2 0xC8E DUP4 DUP4 PUSH2 0xD4D JUMP JUMPDEST POP JUMPDEST POP POP POP JUMP JUMPDEST PUSH1 0x0 CALLER SWAP1 POP SWAP1 JUMP JUMPDEST PUSH1 0x0 PUSH1 0x1 SWAP1 SLOAD SWAP1 PUSH2 0x100 EXP SWAP1 DIV PUSH1 0xFF AND PUSH2 0xCEC JUMPI PUSH1 0x40 MLOAD PUSH32 0x8C379A000000000000000000000000000000000000000000000000000000000 DUP2 MSTORE PUSH1 0x4 ADD PUSH2 0xCE3 SWAP1 PUSH2 0x17E5 JUMP JUMPDEST PUSH1 0x40 MLOAD DUP1 SWAP2 SUB SWAP1 REVERT JUMPDEST PUSH2 0xCFC PUSH2 0xCF7 PUSH2 0xC95 JUMP JUMPDEST PUSH2 0xA5A JUMP JUMPDEST JUMP JUMPDEST PUSH2 0xD07 DUP2 PUSH2 0xBB0 JUMP JUMPDEST DUP1 PUSH20 0xFFFFFFFFFFFFFFFFFFFFFFFFFFFFFFFFFFFFFFFF AND PUSH32 0xBC7CD75A20EE27FD9ADEBAB32041F755214DBC6BFFA90CC0225B39DA2E5C2D3B PUSH1 0x40 MLOAD PUSH1 0x40 MLOAD DUP1 SWAP2 SUB SWAP1 LOG2 POP JUMP JUMPDEST PUSH1 0x60 PUSH2 0xD58 DUP4 PUSH2 0xB20 JUMP JUMPDEST PUSH2 0xD97 JUMPI PUSH1 0x40 MLOAD PUSH32 0x8C379A000000000000000000000000000000000000000000000000000000000 DUP2 MSTORE PUSH1 0x4 ADD PUSH2 0xD8E SWAP1 PUSH2 0x1909 JUMP JUMPDEST PUSH1 0x40 MLOAD DUP1 SWAP2 SUB SWAP1 REVERT JUMPDEST PUSH1 0x0 DUP1 DUP5 PUSH20 0xFFFFFFFFFFFFFFFFFFFFFFFFFFFFFFFFFFFFFFFF AND DUP5 PUSH1 0x40 MLOAD PUSH2 0xDBF SWAP2 SWAP1 PUSH2 0x199A JUMP JUMPDEST PUSH1 0x0 PUSH1 0x40 MLOAD DUP1 DUP4 SUB DUP2 DUP6 GAS DELEGATECALL SWAP2 POP POP RETURNDATASIZE DUP1 PUSH1 0x0 DUP2 EQ PUSH2 0xDFA JUMPI PUSH1 0x40 MLOAD SWAP2 POP PUSH1 0x1F NOT PUSH1 0x3F RETURNDATASIZE ADD AND DUP3 ADD PUSH1 0x40 MSTORE RETURNDATASIZE DUP3 MSTORE RETURNDATASIZE PUSH1 0x0 PUSH1 0x20 DUP5 ADD RETURNDATACOPY PUSH2 0xDFF JUMP JUMPDEST PUSH1 0x60 SWAP2 POP JUMPDEST POP SWAP2 POP SWAP2 POP PUSH2 0xE27 DUP3 DUP3 PUSH1 0x40 MLOAD DUP1 PUSH1 0x60 ADD PUSH1 0x40 MSTORE DUP1 PUSH1 0x27 DUP2 MSTORE PUSH1 0x20 ADD PUSH2 0x1A18 PUSH1 0x27 SWAP2 CODECOPY PUSH2 0xE31 JUMP JUMPDEST SWAP3 POP POP POP SWAP3 SWAP2 POP POP JUMP JUMPDEST PUSH1 0x60 DUP4 ISZERO PUSH2 0xE41 JUMPI DUP3 SWAP1 POP PUSH2 0xE4C JUMP JUMPDEST PUSH2 0xE4B DUP4 DUP4 PUSH2 0xE53 JUMP JUMPDEST JUMPDEST SWAP4 SWAP3 POP POP POP JUMP JUMPDEST PUSH1 0x0 DUP3 MLOAD GT ISZERO PUSH2 0xE66 JUMPI DUP2 MLOAD DUP1 DUP4 PUSH1 0x20 ADD REVERT JUMPDEST DUP1 PUSH1 0x40 MLOAD PUSH32 0x8C379A000000000000000000000000000000000000000000000000000000000 DUP2 MSTORE PUSH1 0x4 ADD PUSH2 0xE9A SWAP2 SWAP1 PUSH2 0x19F5 JUMP JUMPDEST PUSH1 0x40 MLOAD DUP1 SWAP2 SUB SWAP1 REVERT JUMPDEST PUSH1 0x0 PUSH1 0x40 MLOAD SWAP1 POP SWAP1 JUMP JUMPDEST PUSH1 0x0 DUP1 REVERT JUMPDEST PUSH1 0x0 DUP1 REVERT JUMPDEST PUSH1 0x0 PUSH20 0xFFFFFFFFFFFFFFFFFFFFFFFFFFFFFFFFFFFFFFFF DUP3 AND SWAP1 POP SWAP2 SWAP1 POP JUMP JUMPDEST PUSH1 0x0 PUSH2 0xEE2 DUP3 PUSH2 0xEB7 JUMP JUMPDEST SWAP1 POP SWAP2 SWAP1 POP JUMP JUMPDEST PUSH2 0xEF2 DUP2 PUSH2 0xED7 JUMP JUMPDEST DUP2 EQ PUSH2 0xEFD JUMPI PUSH1 0x0 DUP1 REVERT JUMPDEST POP JUMP JUMPDEST PUSH1 0x0 DUP2 CALLDATALOAD SWAP1 POP PUSH2 0xF0F DUP2 PUSH2 0xEE9 JUMP JUMPDEST SWAP3 SWAP2 POP POP JUMP JUMPDEST PUSH1 0x0 PUSH1 0x20 DUP3 DUP5 SUB SLT ISZERO PUSH2 0xF2B JUMPI PUSH2 0xF2A PUSH2 0xEAD JUMP JUMPDEST JUMPDEST PUSH1 0x0 PUSH2 0xF39 DUP5 DUP3 DUP6 ADD PUSH2 0xF00 JUMP JUMPDEST SWAP2 POP POP SWAP3 SWAP2 POP POP JUMP JUMPDEST PUSH1 0x0 DUP1 REVERT JUMPDEST PUSH1 0x0 DUP1 REVERT JUMPDEST PUSH1 0x0 PUSH1 0x1F NOT PUSH1 0x1F DUP4 ADD AND SWAP1 POP SWAP2 SWAP1 POP JUMP JUMPDEST PUSH32 0x4E487B7100000000000000000000000000000000000000000000000000000000 PUSH1 0x0 MSTORE PUSH1 0x41 PUSH1 0x4 MSTORE PUSH1 0x24 PUSH1 0x0 REVERT JUMPDEST PUSH2 0xF95 DUP3 PUSH2 0xF4C JUMP JUMPDEST DUP2 ADD DUP2 DUP2 LT PUSH8 0xFFFFFFFFFFFFFFFF DUP3 GT OR ISZERO PUSH2 0xFB4 JUMPI PUSH2 0xFB3 PUSH2 0xF5D JUMP JUMPDEST JUMPDEST DUP1 PUSH1 0x40 MSTORE POP POP POP JUMP JUMPDEST PUSH1 0x0 PUSH2 0xFC7 PUSH2 0xEA3 JUMP JUMPDEST SWAP1 POP PUSH2 0xFD3 DUP3 DUP3 PUSH2 0xF8C JUMP JUMPDEST SWAP2 SWAP1 POP JUMP JUMPDEST PUSH1 0x0 PUSH8 0xFFFFFFFFFFFFFFFF DUP3 GT ISZERO PUSH2 0xFF3 JUMPI PUSH2 0xFF2 PUSH2 0xF5D JUMP JUMPDEST JUMPDEST PUSH2 0xFFC DUP3 PUSH2 0xF4C JUMP JUMPDEST SWAP1 POP PUSH1 0x20 DUP2 ADD SWAP1 POP SWAP2 SWAP1 POP JUMP JUMPDEST DUP3 DUP2 DUP4 CALLDATACOPY PUSH1 0x0 DUP4 DUP4 ADD MSTORE POP POP POP JUMP JUMPDEST PUSH1 0x0 PUSH2 0x102B PUSH2 0x1026 DUP5 PUSH2 0xFD8 JUMP JUMPDEST PUSH2 0xFBD JUMP JUMPDEST SWAP1 POP DUP3 DUP2 MSTORE PUSH1 0x20 DUP2 ADD DUP5 DUP5 DUP5 ADD GT ISZERO PUSH2 0x1047 JUMPI PUSH2 0x1046 PUSH2 0xF47 JUMP JUMPDEST JUMPDEST PUSH2 0x1052 DUP5 DUP3 DUP6 PUSH2 0x1009 JUMP JUMPDEST POP SWAP4 SWAP3 POP POP POP JUMP JUMPDEST PUSH1 0x0 DUP3 PUSH1 0x1F DUP4 ADD SLT PUSH2 0x106F JUMPI PUSH2 0x106E PUSH2 0xF42 JUMP JUMPDEST JUMPDEST DUP2 CALLDATALOAD PUSH2 0x107F DUP5 DUP3 PUSH1 0x20 DUP7 ADD PUSH2 0x1018 JUMP JUMPDEST SWAP2 POP POP SWAP3 SWAP2 POP POP JUMP JUMPDEST PUSH1 0x0 DUP1 PUSH1 0x40 DUP4 DUP6 SUB SLT ISZERO PUSH2 0x109F JUMPI PUSH2 0x109E PUSH2 0xEAD JUMP JUMPDEST JUMPDEST PUSH1 0x0 PUSH2 0x10AD DUP6 DUP3 DUP7 ADD PUSH2 0xF00 JUMP JUMPDEST SWAP3 POP POP PUSH1 0x20 DUP4 ADD CALLDATALOAD PUSH8 0xFFFFFFFFFFFFFFFF DUP2 GT ISZERO PUSH2 0x10CE JUMPI PUSH2 0x10CD PUSH2 0xEB2 JUMP JUMPDEST JUMPDEST PUSH2 0x10DA DUP6 DUP3 DUP7 ADD PUSH2 0x105A JUMP JUMPDEST SWAP2 POP POP SWAP3 POP SWAP3 SWAP1 POP JUMP JUMPDEST PUSH1 0x0 DUP2 SWAP1 POP SWAP2 SWAP1 POP JUMP JUMPDEST PUSH2 0x10F7 DUP2 PUSH2 0x10E4 JUMP JUMPDEST DUP3 MSTORE POP POP JUMP JUMPDEST PUSH1 0x0 PUSH1 0x20 DUP3 ADD SWAP1 POP PUSH2 0x1112 PUSH1 0x0 DUP4 ADD DUP5 PUSH2 0x10EE JUMP JUMPDEST SWAP3 SWAP2 POP POP JUMP JUMPDEST PUSH1 0x0 DUP2 SWAP1 POP SWAP2 SWAP1 POP JUMP JUMPDEST PUSH2 0x112B DUP2 PUSH2 0x1118 JUMP JUMPDEST DUP2 EQ PUSH2 0x1136 JUMPI PUSH1 0x0 DUP1 REVERT JUMPDEST POP JUMP JUMPDEST PUSH1 0x0 DUP2 CALLDATALOAD SWAP1 POP PUSH2 0x1148 DUP2 PUSH2 0x1122 JUMP JUMPDEST SWAP3 SWAP2 POP POP JUMP JUMPDEST PUSH1 0x0 PUSH1 0x20 DUP3 DUP5 SUB SLT ISZERO PUSH2 0x1164 JUMPI PUSH2 0x1163 PUSH2 0xEAD JUMP JUMPDEST JUMPDEST PUSH1 0x0 PUSH2 0x1172 DUP5 DUP3 DUP6 ADD PUSH2 0x1139 JUMP JUMPDEST SWAP2 POP POP SWAP3 SWAP2 POP POP JUMP JUMPDEST PUSH2 0x1184 DUP2 PUSH2 0x1118 JUMP JUMPDEST DUP3 MSTORE POP POP JUMP JUMPDEST PUSH1 0x0 PUSH1 0x20 DUP3 ADD SWAP1 POP PUSH2 0x119F PUSH1 0x0 DUP4 ADD DUP5 PUSH2 0x117B JUMP JUMPDEST SWAP3 SWAP2 POP POP JUMP JUMPDEST PUSH2 0x11AE DUP2 PUSH2 0xED7 JUMP JUMPDEST DUP3 MSTORE POP POP JUMP JUMPDEST PUSH1 0x0 PUSH1 0x20 DUP3 ADD SWAP1 POP PUSH2 0x11C9 PUSH1 0x0 DUP4 ADD DUP5 PUSH2 0x11A5 JUMP JUMPDEST SWAP3 SWAP2 POP POP JUMP JUMPDEST PUSH1 0x0 DUP3 DUP3 MSTORE PUSH1 0x20 DUP3 ADD SWAP1 POP SWAP3 SWAP2 POP POP JUMP JUMPDEST PUSH32 0x46756E6374696F6E206D7573742062652063616C6C6564207468726F75676820 PUSH1 0x0 DUP3 ADD MSTORE PUSH32 0x64656C656761746563616C6C0000000000000000000000000000000000000000 PUSH1 0x20 DUP3 ADD MSTORE POP JUMP JUMPDEST PUSH1 0x0 PUSH2 0x123C PUSH1 0x2C DUP4 PUSH2 0x11CF JUMP JUMPDEST SWAP2 POP PUSH2 0x1247 DUP3 PUSH2 0x11E0 JUMP JUMPDEST PUSH1 0x40 DUP3 ADD SWAP1 POP SWAP2 SWAP1 POP JUMP JUMPDEST PUSH1 0x0 PUSH1 0x20 DUP3 ADD SWAP1 POP DUP2 DUP2 SUB PUSH1 0x0 DUP4 ADD MSTORE PUSH2 0x126B DUP2 PUSH2 0x122F JUMP JUMPDEST SWAP1 POP SWAP2 SWAP1 POP JUMP JUMPDEST PUSH32 0x46756E6374696F6E206D7573742062652063616C6C6564207468726F75676820 PUSH1 0x0 DUP3 ADD MSTORE PUSH32 0x6163746976652070726F78790000000000000000000000000000000000000000 PUSH1 0x20 DUP3 ADD MSTORE POP JUMP JUMPDEST PUSH1 0x0 PUSH2 0x12CE PUSH1 0x2C DUP4 PUSH2 0x11CF JUMP JUMPDEST SWAP2 POP PUSH2 0x12D9 DUP3 PUSH2 0x1272 JUMP JUMPDEST PUSH1 0x40 DUP3 ADD SWAP1 POP SWAP2 SWAP1 POP JUMP JUMPDEST PUSH1 0x0 PUSH1 0x20 DUP3 ADD SWAP1 POP DUP2 DUP2 SUB PUSH1 0x0 DUP4 ADD MSTORE PUSH2 0x12FD DUP2 PUSH2 0x12C1 JUMP JUMPDEST SWAP1 POP SWAP2 SWAP1 POP JUMP JUMPDEST PUSH32 0x555550535570677261646561626C653A206D757374206E6F742062652063616C PUSH1 0x0 DUP3 ADD MSTORE PUSH32 0x6C6564207468726F7567682064656C656761746563616C6C0000000000000000 PUSH1 0x20 DUP3 ADD MSTORE POP JUMP JUMPDEST PUSH1 0x0 PUSH2 0x1360 PUSH1 0x38 DUP4 PUSH2 0x11CF JUMP JUMPDEST SWAP2 POP PUSH2 0x136B DUP3 PUSH2 0x1304 JUMP JUMPDEST PUSH1 0x40 DUP3 ADD SWAP1 POP SWAP2 SWAP1 POP JUMP JUMPDEST PUSH1 0x0 PUSH1 0x20 DUP3 ADD SWAP1 POP DUP2 DUP2 SUB PUSH1 0x0 DUP4 ADD MSTORE PUSH2 0x138F DUP2 PUSH2 0x1353 JUMP JUMPDEST SWAP1 POP SWAP2 SWAP1 POP JUMP JUMPDEST PUSH32 0x496E697469616C697A61626C653A20636F6E747261637420697320616C726561 PUSH1 0x0 DUP3 ADD MSTORE PUSH32 0x647920696E697469616C697A6564000000000000000000000000000000000000 PUSH1 0x20 DUP3 ADD MSTORE POP JUMP JUMPDEST PUSH1 0x0 PUSH2 0x13F2 PUSH1 0x2E DUP4 PUSH2 0x11CF JUMP JUMPDEST SWAP2 POP PUSH2 0x13FD DUP3 PUSH2 0x1396 JUMP JUMPDEST PUSH1 0x40 DUP3 ADD SWAP1 POP SWAP2 SWAP1 POP JUMP JUMPDEST PUSH1 0x0 PUSH1 0x20 DUP3 ADD SWAP1 POP DUP2 DUP2 SUB PUSH1 0x0 DUP4 ADD MSTORE PUSH2 0x1421 DUP2 PUSH2 0x13E5 JUMP JUMPDEST SWAP1 POP SWAP2 SWAP1 POP JUMP JUMPDEST PUSH1 0x0 DUP2 SWAP1 POP SWAP2 SWAP1 POP JUMP JUMPDEST PUSH1 0x0 PUSH1 0xFF DUP3 AND SWAP1 POP SWAP2 SWAP1 POP JUMP JUMPDEST PUSH1 0x0 DUP2 SWAP1 POP SWAP2 SWAP1 POP JUMP JUMPDEST PUSH1 0x0 PUSH2 0x1464 PUSH2 0x145F PUSH2 0x145A DUP5 PUSH2 0x1428 JUMP JUMPDEST PUSH2 0x143F JUMP JUMPDEST PUSH2 0x1432 JUMP JUMPDEST SWAP1 POP SWAP2 SWAP1 POP JUMP JUMPDEST PUSH2 0x1474 DUP2 PUSH2 0x1449 JUMP JUMPDEST DUP3 MSTORE POP POP JUMP JUMPDEST PUSH1 0x0 PUSH1 0x20 DUP3 ADD SWAP1 POP PUSH2 0x148F PUSH1 0x0 DUP4 ADD DUP5 PUSH2 0x146B JUMP JUMPDEST SWAP3 SWAP2 POP POP JUMP JUMPDEST PUSH32 0x4E487B7100000000000000000000000000000000000000000000000000000000 PUSH1 0x0 MSTORE PUSH1 0x11 PUSH1 0x4 MSTORE PUSH1 0x24 PUSH1 0x0 REVERT JUMPDEST PUSH1 0x0 PUSH2 0x14CF DUP3 PUSH2 0x1118 JUMP JUMPDEST SWAP2 POP PUSH2 0x14DA DUP4 PUSH2 0x1118 JUMP JUMPDEST SWAP3 POP DUP3 DUP3 ADD SWAP1 POP DUP1 DUP3 GT ISZERO PUSH2 0x14F2 JUMPI PUSH2 0x14F1 PUSH2 0x1495 JUMP JUMPDEST JUMPDEST SWAP3 SWAP2 POP POP JUMP JUMPDEST PUSH32 0x4F776E61626C653A206E6577206F776E657220697320746865207A65726F2061 PUSH1 0x0 DUP3 ADD MSTORE PUSH32 0x6464726573730000000000000000000000000000000000000000000000000000 PUSH1 0x20 DUP3 ADD MSTORE POP JUMP JUMPDEST PUSH1 0x0 PUSH2 0x1554 PUSH1 0x26 DUP4 PUSH2 0x11CF JUMP JUMPDEST SWAP2 POP PUSH2 0x155F DUP3 PUSH2 0x14F8 JUMP JUMPDEST PUSH1 0x40 DUP3 ADD SWAP1 POP SWAP2 SWAP1 POP JUMP JUMPDEST PUSH1 0x0 PUSH1 0x20 DUP3 ADD SWAP1 POP DUP2 DUP2 SUB PUSH1 0x0 DUP4 ADD MSTORE PUSH2 0x1583 DUP2 PUSH2 0x1547 JUMP JUMPDEST SWAP1 POP SWAP2 SWAP1 POP JUMP JUMPDEST PUSH2 0x1593 DUP2 PUSH2 0x10E4 JUMP JUMPDEST DUP2 EQ PUSH2 0x159E JUMPI PUSH1 0x0 DUP1 REVERT JUMPDEST POP JUMP JUMPDEST PUSH1 0x0 DUP2 MLOAD SWAP1 POP PUSH2 0x15B0 DUP2 PUSH2 0x158A JUMP JUMPDEST SWAP3 SWAP2 POP POP JUMP JUMPDEST PUSH1 0x0 PUSH1 0x20 DUP3 DUP5 SUB SLT ISZERO PUSH2 0x15CC JUMPI PUSH2 0x15CB PUSH2 0xEAD JUMP JUMPDEST JUMPDEST PUSH1 0x0 PUSH2 0x15DA DUP5 DUP3 DUP6 ADD PUSH2 0x15A1 JUMP JUMPDEST SWAP2 POP POP SWAP3 SWAP2 POP POP JUMP JUMPDEST PUSH32 0x45524331393637557067726164653A206E657720696D706C656D656E74617469 PUSH1 0x0 DUP3 ADD MSTORE PUSH32 0x6F6E206973206E6F742055555053000000000000000000000000000000000000 PUSH1 0x20 DUP3 ADD MSTORE POP JUMP JUMPDEST PUSH1 0x0 PUSH2 0x163F PUSH1 0x2E DUP4 PUSH2 0x11CF JUMP JUMPDEST SWAP2 POP PUSH2 0x164A DUP3 PUSH2 0x15E3 JUMP JUMPDEST PUSH1 0x40 DUP3 ADD SWAP1 POP SWAP2 SWAP1 POP JUMP JUMPDEST PUSH1 0x0 PUSH1 0x20 DUP3 ADD SWAP1 POP DUP2 DUP2 SUB PUSH1 0x0 DUP4 ADD MSTORE PUSH2 0x166E DUP2 PUSH2 0x1632 JUMP JUMPDEST SWAP1 POP SWAP2 SWAP1 POP JUMP JUMPDEST PUSH32 0x45524331393637557067726164653A20756E737570706F727465642070726F78 PUSH1 0x0 DUP3 ADD MSTORE PUSH32 0x6961626C65555549440000000000000000000000000000000000000000000000 PUSH1 0x20 DUP3 ADD MSTORE POP JUMP JUMPDEST PUSH1 0x0 PUSH2 0x16D1 PUSH1 0x29 DUP4 PUSH2 0x11CF JUMP JUMPDEST SWAP2 POP PUSH2 0x16DC DUP3 PUSH2 0x1675 JUMP JUMPDEST PUSH1 0x40 DUP3 ADD SWAP1 POP SWAP2 SWAP1 POP JUMP JUMPDEST PUSH1 0x0 PUSH1 0x20 DUP3 ADD SWAP1 POP DUP2 DUP2 SUB PUSH1 0x0 DUP4 ADD MSTORE PUSH2 0x1700 DUP2 PUSH2 0x16C4 JUMP JUMPDEST SWAP1 POP SWAP2 SWAP1 POP JUMP JUMPDEST PUSH32 0x4F776E61626C653A2063616C6C6572206973206E6F7420746865206F776E6572 PUSH1 0x0 DUP3 ADD MSTORE POP JUMP JUMPDEST PUSH1 0x0 PUSH2 0x173D PUSH1 0x20 DUP4 PUSH2 0x11CF JUMP JUMPDEST SWAP2 POP PUSH2 0x1748 DUP3 PUSH2 0x1707 JUMP JUMPDEST PUSH1 0x20 DUP3 ADD SWAP1 POP SWAP2 SWAP1 POP JUMP JUMPDEST PUSH1 0x0 PUSH1 0x20 DUP3 ADD SWAP1 POP DUP2 DUP2 SUB PUSH1 0x0 DUP4 ADD MSTORE PUSH2 0x176C DUP2 PUSH2 0x1730 JUMP JUMPDEST SWAP1 POP SWAP2 SWAP1 POP JUMP JUMPDEST PUSH32 0x496E697469616C697A61626C653A20636F6E7472616374206973206E6F742069 PUSH1 0x0 DUP3 ADD MSTORE PUSH32 0x6E697469616C697A696E67000000000000000000000000000000000000000000 PUSH1 0x20 DUP3 ADD MSTORE POP JUMP JUMPDEST PUSH1 0x0 PUSH2 0x17CF PUSH1 0x2B DUP4 PUSH2 0x11CF JUMP JUMPDEST SWAP2 POP PUSH2 0x17DA DUP3 PUSH2 0x1773 JUMP JUMPDEST PUSH1 0x40 DUP3 ADD SWAP1 POP SWAP2 SWAP1 POP JUMP JUMPDEST PUSH1 0x0 PUSH1 0x20 DUP3 ADD SWAP1 POP DUP2 DUP2 SUB PUSH1 0x0 DUP4 ADD MSTORE PUSH2 0x17FE DUP2 PUSH2 0x17C2 JUMP JUMPDEST SWAP1 POP SWAP2 SWAP1 POP JUMP JUMPDEST PUSH32 0x455243313936373A206E657720696D706C656D656E746174696F6E206973206E PUSH1 0x0 DUP3 ADD MSTORE PUSH32 0x6F74206120636F6E747261637400000000000000000000000000000000000000 PUSH1 0x20 DUP3 ADD MSTORE POP JUMP JUMPDEST PUSH1 0x0 PUSH2 0x1861 PUSH1 0x2D DUP4 PUSH2 0x11CF JUMP JUMPDEST SWAP2 POP PUSH2 0x186C DUP3 PUSH2 0x1805 JUMP JUMPDEST PUSH1 0x40 DUP3 ADD SWAP1 POP SWAP2 SWAP1 POP JUMP JUMPDEST PUSH1 0x0 PUSH1 0x20 DUP3 ADD SWAP1 POP DUP2 DUP2 SUB PUSH1 0x0 DUP4 ADD MSTORE PUSH2 0x1890 DUP2 PUSH2 0x1854 JUMP JUMPDEST SWAP1 POP SWAP2 SWAP1 POP JUMP JUMPDEST PUSH32 0x416464726573733A2064656C65676174652063616C6C20746F206E6F6E2D636F PUSH1 0x0 DUP3 ADD MSTORE PUSH32 0x6E74726163740000000000000000000000000000000000000000000000000000 PUSH1 0x20 DUP3 ADD MSTORE POP JUMP JUMPDEST PUSH1 0x0 PUSH2 0x18F3 PUSH1 0x26 DUP4 PUSH2 0x11CF JUMP JUMPDEST SWAP2 POP PUSH2 0x18FE DUP3 PUSH2 0x1897 JUMP JUMPDEST PUSH1 0x40 DUP3 ADD SWAP1 POP SWAP2 SWAP1 POP JUMP JUMPDEST PUSH1 0x0 PUSH1 0x20 DUP3 ADD SWAP1 POP DUP2 DUP2 SUB PUSH1 0x0 DUP4 ADD MSTORE PUSH2 0x1922 DUP2 PUSH2 0x18E6 JUMP JUMPDEST SWAP1 POP SWAP2 SWAP1 POP JUMP JUMPDEST PUSH1 0x0 DUP2 MLOAD SWAP1 POP SWAP2 SWAP1 POP JUMP JUMPDEST PUSH1 0x0 DUP2 SWAP1 POP SWAP3 SWAP2 POP POP JUMP JUMPDEST PUSH1 0x0 JUMPDEST DUP4 DUP2 LT ISZERO PUSH2 0x195D JUMPI DUP1 DUP3 ADD MLOAD DUP2 DUP5 ADD MSTORE PUSH1 0x20 DUP2 ADD SWAP1 POP PUSH2 0x1942 JUMP JUMPDEST PUSH1 0x0 DUP5 DUP5 ADD MSTORE POP POP POP POP JUMP JUMPDEST PUSH1 0x0 PUSH2 0x1974 DUP3 PUSH2 0x1929 JUMP JUMPDEST PUSH2 0x197E DUP2 DUP6 PUSH2 0x1934 JUMP JUMPDEST SWAP4 POP PUSH2 0x198E DUP2 DUP6 PUSH1 0x20 DUP7 ADD PUSH2 0x193F JUMP JUMPDEST DUP1 DUP5 ADD SWAP2 POP POP SWAP3 SWAP2 POP POP JUMP JUMPDEST PUSH1 0x0 PUSH2 0x19A6 DUP3 DUP5 PUSH2 0x1969 JUMP JUMPDEST SWAP2 POP DUP2 SWAP1 POP SWAP3 SWAP2 POP POP JUMP JUMPDEST PUSH1 0x0 DUP2 MLOAD SWAP1 POP SWAP2 SWAP1 POP JUMP JUMPDEST PUSH1 0x0 PUSH2 0x19C7 DUP3 PUSH2 0x19B1 JUMP JUMPDEST PUSH2 0x19D1 DUP2 DUP6 PUSH2 0x11CF JUMP JUMPDEST SWAP4 POP PUSH2 0x19E1 DUP2 DUP6 PUSH1 0x20 DUP7 ADD PUSH2 0x193F JUMP JUMPDEST PUSH2 0x19EA DUP2 PUSH2 0xF4C JUMP JUMPDEST DUP5 ADD SWAP2 POP POP SWAP3 SWAP2 POP POP JUMP JUMPDEST PUSH1 0x0 PUSH1 0x20 DUP3 ADD SWAP1 POP DUP2 DUP2 SUB PUSH1 0x0 DUP4 ADD MSTORE PUSH2 0x1A0F DUP2 DUP5 PUSH2 0x19BC JUMP JUMPDEST SWAP1 POP SWAP3 SWAP2 POP POP JUMP INVALID COINBASE PUSH5 0x6472657373 GASPRICE KECCAK256 PUSH13 0x6F772D6C6576656C2064656C65 PUSH8 0x6174652063616C6C KECCAK256 PUSH7 0x61696C6564A264 PUSH10 0x70667358221220A2FBBF DUP13 PUSH29 0xE0F3BF82F0F86813036ACC4720F74AECB9D7DAF1C920D8B1BB1E586473 PUSH16 0x6C634300081100330000000000000000 "
				},
				"gasEstimates": {
					"creation": {
						"codeDepositCost": "1354400",
						"executionCost": "infinite",
						"totalCost": "infinite"
					},
					"external": {
						"get()": "2526",
						"increment()": "infinite",
						"initialize()": "116149",
						"owner()": "2566",
						"proxiableUUID()": "infinite",
						"renounceOwnership()": "30398",
						"set(uint256)": "infinite",
						"transferOwnership(address)": "30832",
						"upgradeTo(address)": "infinite",
						"upgradeToAndCall(address,bytes)": "infinite"
					},
					"internal": {
						"_authorizeUpgrade(address)": "infinite"
					}
				},
				"methodIdentifiers": {
					"get()": "6d4ce63c",
					"increment()": "d09de08a",
					"initialize()": "8129fc1c",
					"owner()": "8da5cb5b",
					"proxiableUUID()": "52d1902d",
					"renounceOwnership()": "715018a6",
					"set(uint256)": "60fe47b1",
					"transferOwnership(address)": "f2fde38b",
					"upgradeTo(address)": "3659cfe6",
					"upgradeToAndCall(address,bytes)": "4f1ef286"
				}
			},
			"storageLayout": {
				"storage": [
					{
						"astId": 527,
						"contract": "contracts/boxUUPSV2.sol:BoxUUPSV2",
						"label": "_initialized",
						"offset": 0,
						"slot": "0",
						"type": "t_uint8"
					},
					{
						"astId": 530,
						"contract": "contracts/boxUUPSV2.sol:BoxUUPSV2",
						"label": "_initializing",
						"offset": 1,
						"slot": "0",
						"type": "t_bool"
					},
					{
						"astId": 509,
						"contract": "contracts/boxUUPSV2.sol:BoxUUPSV2",
						"label": "__gap",
						"offset": 0,
						"slot": "1",
						"type": "t_array(t_uint256)50_storage"
					},
					{
						"astId": 824,
						"contract": "contracts/boxUUPSV2.sol:BoxUUPSV2",
						"label": "__gap",
						"offset": 0,
						"slot": "51",
						"type": "t_array(t_uint256)50_storage"
					},
					{
						"astId": 1150,
						"contract": "contracts/boxUUPSV2.sol:BoxUUPSV2",
						"label": "__gap",
						"offset": 0,
						"slot": "101",
						"type": "t_array(t_uint256)50_storage"
					},
					{
						"astId": 10,
						"contract": "contracts/boxUUPSV2.sol:BoxUUPSV2",
						"label": "_owner",
						"offset": 0,
						"slot": "151",
						"type": "t_address"
					},
					{
						"astId": 130,
						"contract": "contracts/boxUUPSV2.sol:BoxUUPSV2",
						"label": "__gap",
						"offset": 0,
						"slot": "152",
						"type": "t_array(t_uint256)49_storage"
					},
					{
						"astId": 1224,
						"contract": "contracts/boxUUPSV2.sol:BoxUUPSV2",
						"label": "value",
						"offset": 0,
						"slot": "201",
						"type": "t_uint256"
					}
				],
				"types": {
					"t_address": {
						"encoding": "inplace",
						"label": "address",
						"numberOfBytes": "20"
					},
					"t_array(t_uint256)49_storage": {
						"base": "t_uint256",
						"encoding": "inplace",
						"label": "uint256[49]",
						"numberOfBytes": "1568"
					},
					"t_array(t_uint256)50_storage": {
						"base": "t_uint256",
						"encoding": "inplace",
						"label": "uint256[50]",
						"numberOfBytes": "1600"
					},
					"t_bool": {
						"encoding": "inplace",
						"label": "bool",
						"numberOfBytes": "1"
					},
					"t_uint256": {
						"encoding": "inplace",
						"label": "uint256",
						"numberOfBytes": "32"
					},
					"t_uint8": {
						"encoding": "inplace",
						"label": "uint8",
						"numberOfBytes": "1"
					}
				}
			},
			"userdoc": {
				"kind": "user",
				"methods": {},
				"version": 1
			}
		}
	}
}